{
  "_format": "hh-sol-artifact-1",
  "contractName": "MerkleDrop",
  "sourceName": "contracts/Distributors/MerkleDrop.sol",
  "abi": [
    {
      "anonymous": false,
      "inputs": [
        {
          "indexed": false,
          "internalType": "uint256",
          "name": "index",
          "type": "uint256"
        },
        {
          "indexed": false,
          "internalType": "address",
          "name": "account",
          "type": "address"
        },
        {
          "indexed": false,
          "internalType": "address",
          "name": "recipient",
          "type": "address"
        },
        {
          "indexed": false,
          "internalType": "uint256",
          "name": "amount",
          "type": "uint256"
        }
      ],
      "name": "Claimed",
      "type": "event"
    },
    {
      "anonymous": false,
      "inputs": [
        {
          "indexed": true,
          "internalType": "address",
          "name": "previousOwner",
          "type": "address"
        },
        {
          "indexed": true,
          "internalType": "address",
          "name": "newOwner",
          "type": "address"
        }
      ],
      "name": "OwnershipTransferred",
      "type": "event"
    },
    {
      "inputs": [
        {
          "internalType": "uint256",
          "name": "index",
          "type": "uint256"
        },
        {
          "internalType": "address",
          "name": "account",
          "type": "address"
        },
        {
          "internalType": "uint256",
          "name": "amount",
          "type": "uint256"
        },
        {
          "internalType": "bytes32[]",
          "name": "merkleProof",
          "type": "bytes32[]"
        }
      ],
      "name": "claim",
      "outputs": [],
      "stateMutability": "nonpayable",
      "type": "function"
    },
    {
      "inputs": [
        {
          "internalType": "uint256",
          "name": "index",
          "type": "uint256"
        },
        {
          "internalType": "address",
          "name": "account",
          "type": "address"
        },
        {
          "internalType": "address",
          "name": "recipient",
          "type": "address"
        },
        {
          "internalType": "uint256",
          "name": "amount",
          "type": "uint256"
        },
        {
          "internalType": "bytes32[]",
          "name": "merkleProof",
          "type": "bytes32[]"
        }
      ],
      "name": "claimTo",
      "outputs": [],
      "stateMutability": "nonpayable",
      "type": "function"
    },
    {
      "inputs": [
        {
          "internalType": "address",
          "name": "_token",
          "type": "address"
        },
        {
          "internalType": "bytes32",
          "name": "_merkleRoot",
          "type": "bytes32"
        }
      ],
      "name": "initialize",
      "outputs": [],
      "stateMutability": "nonpayable",
      "type": "function"
    },
    {
      "inputs": [
        {
          "internalType": "uint256",
          "name": "index",
          "type": "uint256"
        }
      ],
      "name": "isClaimed",
      "outputs": [
        {
          "internalType": "bool",
          "name": "",
          "type": "bool"
        }
      ],
      "stateMutability": "view",
      "type": "function"
    },
    {
      "inputs": [],
      "name": "merkleRoot",
      "outputs": [
        {
          "internalType": "bytes32",
          "name": "",
          "type": "bytes32"
        }
      ],
      "stateMutability": "view",
      "type": "function"
    },
    {
      "inputs": [],
      "name": "owner",
      "outputs": [
        {
          "internalType": "address",
          "name": "",
          "type": "address"
        }
      ],
      "stateMutability": "view",
      "type": "function"
    },
    {
      "inputs": [],
      "name": "renounceOwnership",
      "outputs": [],
      "stateMutability": "nonpayable",
      "type": "function"
    },
    {
      "inputs": [],
      "name": "token",
      "outputs": [
        {
          "internalType": "address",
          "name": "",
          "type": "address"
        }
      ],
      "stateMutability": "view",
      "type": "function"
    },
    {
      "inputs": [
        {
          "internalType": "address",
          "name": "newOwner",
          "type": "address"
        }
      ],
      "name": "transferOwnership",
      "outputs": [],
      "stateMutability": "nonpayable",
      "type": "function"
    }
  ],
  "bytecode": "0x608060405234801561001057600080fd5b5061133d806100206000396000f3fe608060405234801561001057600080fd5b50600436106100a35760003560e01c80638da5cb5b11610076578063be13f47c1161005b578063be13f47c14610156578063f2fde38b14610169578063fc0c546a1461017c57600080fd5b80638da5cb5b146100f45780639e34070f1461013357600080fd5b8063054d5e2a146100a85780632e7ba6ef146100bd5780632eb4a7ab146100d0578063715018a6146100ec575b600080fd5b6100bb6100b6366004611141565b61019c565b005b6100bb6100cb3660046111b9565b61053e565b6100d960665481565b6040519081526020015b60405180910390f35b6100bb610858565b60335473ffffffffffffffffffffffffffffffffffffffff165b60405173ffffffffffffffffffffffffffffffffffffffff90911681526020016100e3565b610146610141366004611128565b6108e5565b60405190151581526020016100e3565b6100bb6101643660046110dc565b610926565b6100bb6101773660046110ba565b610a8b565b60655461010e9073ffffffffffffffffffffffffffffffffffffffff1681565b60335473ffffffffffffffffffffffffffffffffffffffff163314610222576040517f08c379a000000000000000000000000000000000000000000000000000000000815260206004820181905260248201527f4f776e61626c653a2063616c6c6572206973206e6f7420746865206f776e657260448201526064015b60405180910390fd5b61022b866108e5565b156102b8576040517f08c379a000000000000000000000000000000000000000000000000000000000815260206004820152602760248201527f4d65726b6c6544726f703a3a636c61696d2044726f7020616c7265616479206360448201527f6c61696d65642e000000000000000000000000000000000000000000000000006064820152608401610219565b60408051602081018890527fffffffffffffffffffffffffffffffffffffffff000000000000000000000000606088901b169181019190915260548101849052600090607401604051602081830303815290604052805190602001209050610357838380806020026020016040519081016040528093929190818152602001838360200280828437600092019190915250506066549150849050610bbb565b6103bd576040517f08c379a000000000000000000000000000000000000000000000000000000000815260206004820181905260248201527f4d65726b6c6544726f703a3a636c61696d20496e76616c69642070726f6f662e6044820152606401610219565b6103c687610c6a565b6065546040517fa9059cbb00000000000000000000000000000000000000000000000000000000815273ffffffffffffffffffffffffffffffffffffffff8781166004830152602482018790529091169063a9059cbb90604401602060405180830381600087803b15801561043a57600080fd5b505af115801561044e573d6000803e3d6000fd5b505050506040513d601f19601f820116820180604052508101906104729190611106565b6104d8576040517f08c379a000000000000000000000000000000000000000000000000000000000815260206004820152601c60248201527f4d65726b6c6544726f703a205472616e73666572206661696c65642e000000006044820152606401610219565b6040805188815273ffffffffffffffffffffffffffffffffffffffff88811660208301528716818301526060810186905290517fce3bcb6e219596cf26007ffdfaae8953bc3f76e3f36c0a79b23e28020da3222e9181900360800190a150505050505050565b610547856108e5565b156105d4576040517f08c379a000000000000000000000000000000000000000000000000000000000815260206004820152602760248201527f4d65726b6c6544726f703a3a636c61696d2044726f7020616c7265616479206360448201527f6c61696d65642e000000000000000000000000000000000000000000000000006064820152608401610219565b60408051602081018790527fffffffffffffffffffffffffffffffffffffffff000000000000000000000000606087901b169181019190915260548101849052600090607401604051602081830303815290604052805190602001209050610673838380806020026020016040519081016040528093929190818152602001838360200280828437600092019190915250506066549150849050610bbb565b6106d9576040517f08c379a000000000000000000000000000000000000000000000000000000000815260206004820181905260248201527f4d65726b6c6544726f703a3a636c61696d20496e76616c69642070726f6f662e6044820152606401610219565b6106e286610c6a565b6065546040517fa9059cbb00000000000000000000000000000000000000000000000000000000815273ffffffffffffffffffffffffffffffffffffffff8781166004830152602482018790529091169063a9059cbb90604401602060405180830381600087803b15801561075657600080fd5b505af115801561076a573d6000803e3d6000fd5b505050506040513d601f19601f8201168201806040525081019061078e9190611106565b6107f4576040517f08c379a000000000000000000000000000000000000000000000000000000000815260206004820152601c60248201527f4d65726b6c6544726f703a205472616e73666572206661696c65642e000000006044820152606401610219565b6040805187815273ffffffffffffffffffffffffffffffffffffffff871660208201819052818301526060810186905290517fce3bcb6e219596cf26007ffdfaae8953bc3f76e3f36c0a79b23e28020da3222e9181900360800190a1505050505050565b60335473ffffffffffffffffffffffffffffffffffffffff1633146108d9576040517f08c379a000000000000000000000000000000000000000000000000000000000815260206004820181905260248201527f4f776e61626c653a2063616c6c6572206973206e6f7420746865206f776e65726044820152606401610219565b6108e36000610ca8565b565b6000806108f461010084611221565b9050600061090461010085611295565b60009283526067602052604090922054600190921b9182169091149392505050565b600054610100900460ff168061093f575060005460ff16155b6109cb576040517f08c379a000000000000000000000000000000000000000000000000000000000815260206004820152602e60248201527f496e697469616c697a61626c653a20636f6e747261637420697320616c72656160448201527f647920696e697469616c697a65640000000000000000000000000000000000006064820152608401610219565b600054610100900460ff16158015610a0a57600080547fffffffffffffffffffffffffffffffffffffffffffffffffffffffffffff0000166101011790555b610a12610d1f565b606580547fffffffffffffffffffffffff00000000000000000000000000000000000000001673ffffffffffffffffffffffffffffffffffffffff851617905560668290558015610a8657600080547fffffffffffffffffffffffffffffffffffffffffffffffffffffffffffff00ff1690555b505050565b60335473ffffffffffffffffffffffffffffffffffffffff163314610b0c576040517f08c379a000000000000000000000000000000000000000000000000000000000815260206004820181905260248201527f4f776e61626c653a2063616c6c6572206973206e6f7420746865206f776e65726044820152606401610219565b73ffffffffffffffffffffffffffffffffffffffff8116610baf576040517f08c379a000000000000000000000000000000000000000000000000000000000815260206004820152602660248201527f4f776e61626c653a206e6577206f776e657220697320746865207a65726f206160448201527f64647265737300000000000000000000000000000000000000000000000000006064820152608401610219565b610bb881610ca8565b50565b600081815b8551811015610c5f576000868281518110610bdd57610bdd6112d8565b60200260200101519050808311610c1f576040805160208101859052908101829052606001604051602081830303815290604052805190602001209250610c4c565b60408051602081018390529081018490526060016040516020818303038152906040528051906020012092505b5080610c5781611235565b915050610bc0565b509092149392505050565b6000610c7861010083611221565b90506000610c8861010084611295565b6000928352606760205260409092208054600190931b9092179091555050565b6033805473ffffffffffffffffffffffffffffffffffffffff8381167fffffffffffffffffffffffff0000000000000000000000000000000000000000831681179093556040519116919082907f8be0079c531659141344cd1fd0a4f28419497f9722a3daafe3b4186f6b6457e090600090a35050565b600054610100900460ff1680610d38575060005460ff16155b610dc4576040517f08c379a000000000000000000000000000000000000000000000000000000000815260206004820152602e60248201527f496e697469616c697a61626c653a20636f6e747261637420697320616c72656160448201527f647920696e697469616c697a65640000000000000000000000000000000000006064820152608401610219565b600054610100900460ff16158015610e0357600080547fffffffffffffffffffffffffffffffffffffffffffffffffffffffffffff0000166101011790555b610e0b610e44565b610e13610f58565b8015610bb857600080547fffffffffffffffffffffffffffffffffffffffffffffffffffffffffffff00ff16905550565b600054610100900460ff1680610e5d575060005460ff16155b610ee9576040517f08c379a000000000000000000000000000000000000000000000000000000000815260206004820152602e60248201527f496e697469616c697a61626c653a20636f6e747261637420697320616c72656160448201527f647920696e697469616c697a65640000000000000000000000000000000000006064820152608401610219565b600054610100900460ff16158015610e1357600080547fffffffffffffffffffffffffffffffffffffffffffffffffffffffffffff0000166101011790558015610bb857600080547fffffffffffffffffffffffffffffffffffffffffffffffffffffffffffff00ff16905550565b600054610100900460ff1680610f71575060005460ff16155b610ffd576040517f08c379a000000000000000000000000000000000000000000000000000000000815260206004820152602e60248201527f496e697469616c697a61626c653a20636f6e747261637420697320616c72656160448201527f647920696e697469616c697a65640000000000000000000000000000000000006064820152608401610219565b600054610100900460ff1615801561103c57600080547fffffffffffffffffffffffffffffffffffffffffffffffffffffffffffff0000166101011790555b610e1333610ca8565b803573ffffffffffffffffffffffffffffffffffffffff8116811461106957600080fd5b919050565b60008083601f84011261108057600080fd5b50813567ffffffffffffffff81111561109857600080fd5b6020830191508360208260051b85010111156110b357600080fd5b9250929050565b6000602082840312156110cc57600080fd5b6110d582611045565b9392505050565b600080604083850312156110ef57600080fd5b6110f883611045565b946020939093013593505050565b60006020828403121561111857600080fd5b815180151581146110d557600080fd5b60006020828403121561113a57600080fd5b5035919050565b60008060008060008060a0878903121561115a57600080fd5b8635955061116a60208801611045565b945061117860408801611045565b935060608701359250608087013567ffffffffffffffff81111561119b57600080fd5b6111a789828a0161106e565b979a9699509497509295939492505050565b6000806000806000608086880312156111d157600080fd5b853594506111e160208701611045565b935060408601359250606086013567ffffffffffffffff81111561120457600080fd5b6112108882890161106e565b969995985093965092949392505050565b600082611230576112306112a9565b500490565b60007fffffffffffffffffffffffffffffffffffffffffffffffffffffffffffffffff82141561128e577f4e487b7100000000000000000000000000000000000000000000000000000000600052601160045260246000fd5b5060010190565b6000826112a4576112a46112a9565b500690565b7f4e487b7100000000000000000000000000000000000000000000000000000000600052601260045260246000fd5b7f4e487b7100000000000000000000000000000000000000000000000000000000600052603260045260246000fdfea26469706673582212201f4f3f30d602d77f17882391ced8a922252dbd554a4cc754d374a7fe8e63524264736f6c63430008060033",
  "linkReferences": {},
  "deployedLinkReferences": {}
}