{
  "_format": "hh-sol-artifact-1",
  "contractName": "Token",
  "sourceName": "contracts/Mocks/DNToken.sol",
  "abi": [
    {
      "inputs": [
        {
          "internalType": "address",
          "name": "initialMinter",
          "type": "address"
        },
        {
          "internalType": "string",
          "name": "_name",
          "type": "string"
        },
        {
          "internalType": "string",
          "name": "_symbol",
          "type": "string"
        },
        {
          "internalType": "uint8",
          "name": "_decimals",
          "type": "uint8"
        }
      ],
      "stateMutability": "nonpayable",
      "type": "constructor"
    },
    {
      "anonymous": false,
      "inputs": [
        {
          "indexed": true,
          "internalType": "address",
          "name": "owner",
          "type": "address"
        },
        {
          "indexed": true,
          "internalType": "address",
          "name": "spender",
          "type": "address"
        },
        {
          "indexed": false,
          "internalType": "uint256",
          "name": "value",
          "type": "uint256"
        }
      ],
      "name": "Approval",
      "type": "event"
    },
    {
      "anonymous": false,
      "inputs": [
        {
          "indexed": true,
          "internalType": "address",
          "name": "authorizer",
          "type": "address"
        },
        {
          "indexed": true,
          "internalType": "bytes32",
          "name": "nonce",
          "type": "bytes32"
        }
      ],
      "name": "AuthorizationUsed",
      "type": "event"
    },
    {
      "anonymous": false,
      "inputs": [
        {
          "indexed": true,
          "internalType": "address",
          "name": "minter",
          "type": "address"
        }
      ],
      "name": "ChangeMinter",
      "type": "event"
    },
    {
      "anonymous": false,
      "inputs": [
        {
          "indexed": true,
          "internalType": "address",
          "name": "from",
          "type": "address"
        },
        {
          "indexed": true,
          "internalType": "address",
          "name": "to",
          "type": "address"
        },
        {
          "indexed": false,
          "internalType": "uint256",
          "name": "value",
          "type": "uint256"
        }
      ],
      "name": "Transfer",
      "type": "event"
    },
    {
      "inputs": [],
      "name": "DOMAIN_SEPARATOR",
      "outputs": [
        {
          "internalType": "bytes32",
          "name": "",
          "type": "bytes32"
        }
      ],
      "stateMutability": "view",
      "type": "function"
    },
    {
      "inputs": [],
      "name": "EIP712DOMAIN_HASH",
      "outputs": [
        {
          "internalType": "bytes32",
          "name": "",
          "type": "bytes32"
        }
      ],
      "stateMutability": "view",
      "type": "function"
    },
    {
      "inputs": [],
      "name": "NAME_HASH",
      "outputs": [
        {
          "internalType": "bytes32",
          "name": "",
          "type": "bytes32"
        }
      ],
      "stateMutability": "view",
      "type": "function"
    },
    {
      "inputs": [],
      "name": "PERMIT_TYPEHASH",
      "outputs": [
        {
          "internalType": "bytes32",
          "name": "",
          "type": "bytes32"
        }
      ],
      "stateMutability": "view",
      "type": "function"
    },
    {
      "inputs": [],
      "name": "TRANSFER_WITH_AUTHORIZATION_TYPEHASH",
      "outputs": [
        {
          "internalType": "bytes32",
          "name": "",
          "type": "bytes32"
        }
      ],
      "stateMutability": "view",
      "type": "function"
    },
    {
      "inputs": [],
      "name": "VERSION_HASH",
      "outputs": [
        {
          "internalType": "bytes32",
          "name": "",
          "type": "bytes32"
        }
      ],
      "stateMutability": "view",
      "type": "function"
    },
    {
      "inputs": [
        {
          "internalType": "address",
          "name": "",
          "type": "address"
        },
        {
          "internalType": "address",
          "name": "",
          "type": "address"
        }
      ],
      "name": "allowance",
      "outputs": [
        {
          "internalType": "uint256",
          "name": "",
          "type": "uint256"
        }
      ],
      "stateMutability": "view",
      "type": "function"
    },
    {
      "inputs": [
        {
          "internalType": "address",
          "name": "spender",
          "type": "address"
        },
        {
          "internalType": "uint256",
          "name": "value",
          "type": "uint256"
        }
      ],
      "name": "approve",
      "outputs": [
        {
          "internalType": "bool",
          "name": "",
          "type": "bool"
        }
      ],
      "stateMutability": "nonpayable",
      "type": "function"
    },
    {
      "inputs": [
        {
          "internalType": "address",
          "name": "",
          "type": "address"
        },
        {
          "internalType": "bytes32",
          "name": "",
          "type": "bytes32"
        }
      ],
      "name": "authorizationState",
      "outputs": [
        {
          "internalType": "bool",
          "name": "",
          "type": "bool"
        }
      ],
      "stateMutability": "view",
      "type": "function"
    },
    {
      "inputs": [
        {
          "internalType": "address",
          "name": "",
          "type": "address"
        }
      ],
      "name": "balanceOf",
      "outputs": [
        {
          "internalType": "uint256",
          "name": "",
          "type": "uint256"
        }
      ],
      "stateMutability": "view",
      "type": "function"
    },
    {
      "inputs": [
        {
          "internalType": "uint256",
          "name": "value",
          "type": "uint256"
        }
      ],
      "name": "burn",
      "outputs": [
        {
          "internalType": "bool",
          "name": "",
          "type": "bool"
        }
      ],
      "stateMutability": "nonpayable",
      "type": "function"
    },
    {
      "inputs": [
        {
          "internalType": "address",
          "name": "newMinter",
          "type": "address"
        }
      ],
      "name": "changeMinter",
      "outputs": [],
      "stateMutability": "nonpayable",
      "type": "function"
    },
    {
      "inputs": [],
      "name": "decimals",
      "outputs": [
        {
          "internalType": "uint8",
          "name": "",
          "type": "uint8"
        }
      ],
      "stateMutability": "view",
      "type": "function"
    },
    {
      "inputs": [],
      "name": "getChainId",
      "outputs": [
        {
          "internalType": "uint256",
          "name": "chainId",
          "type": "uint256"
        }
      ],
      "stateMutability": "view",
      "type": "function"
    },
    {
      "inputs": [],
      "name": "initialBalance",
      "outputs": [
        {
          "internalType": "uint256",
          "name": "",
          "type": "uint256"
        }
      ],
      "stateMutability": "view",
      "type": "function"
    },
    {
      "inputs": [
        {
          "internalType": "address",
          "name": "to",
          "type": "address"
        },
        {
          "internalType": "uint256",
          "name": "value",
          "type": "uint256"
        }
      ],
      "name": "mint",
      "outputs": [
        {
          "internalType": "bool",
          "name": "",
          "type": "bool"
        }
      ],
      "stateMutability": "nonpayable",
      "type": "function"
    },
    {
      "inputs": [],
      "name": "minter",
      "outputs": [
        {
          "internalType": "address",
          "name": "",
          "type": "address"
        }
      ],
      "stateMutability": "view",
      "type": "function"
    },
    {
      "inputs": [],
      "name": "name",
      "outputs": [
        {
          "internalType": "string",
          "name": "",
          "type": "string"
        }
      ],
      "stateMutability": "view",
      "type": "function"
    },
    {
      "inputs": [
        {
          "internalType": "address",
          "name": "",
          "type": "address"
        }
      ],
      "name": "nonces",
      "outputs": [
        {
          "internalType": "uint256",
          "name": "",
          "type": "uint256"
        }
      ],
      "stateMutability": "view",
      "type": "function"
    },
    {
      "inputs": [
        {
          "internalType": "address",
          "name": "owner",
          "type": "address"
        },
        {
          "internalType": "address",
          "name": "spender",
          "type": "address"
        },
        {
          "internalType": "uint256",
          "name": "value",
          "type": "uint256"
        },
        {
          "internalType": "uint256",
          "name": "deadline",
          "type": "uint256"
        },
        {
          "internalType": "uint8",
          "name": "v",
          "type": "uint8"
        },
        {
          "internalType": "bytes32",
          "name": "r",
          "type": "bytes32"
        },
        {
          "internalType": "bytes32",
          "name": "s",
          "type": "bytes32"
        }
      ],
      "name": "permit",
      "outputs": [],
      "stateMutability": "nonpayable",
      "type": "function"
    },
    {
      "inputs": [],
      "name": "symbol",
      "outputs": [
        {
          "internalType": "string",
          "name": "",
          "type": "string"
        }
      ],
      "stateMutability": "view",
      "type": "function"
    },
    {
      "inputs": [],
      "name": "totalSupply",
      "outputs": [
        {
          "internalType": "uint256",
          "name": "",
          "type": "uint256"
        }
      ],
      "stateMutability": "view",
      "type": "function"
    },
    {
      "inputs": [
        {
          "internalType": "address",
          "name": "to",
          "type": "address"
        },
        {
          "internalType": "uint256",
          "name": "value",
          "type": "uint256"
        }
      ],
      "name": "transfer",
      "outputs": [
        {
          "internalType": "bool",
          "name": "",
          "type": "bool"
        }
      ],
      "stateMutability": "nonpayable",
      "type": "function"
    },
    {
      "inputs": [
        {
          "internalType": "address",
          "name": "from",
          "type": "address"
        },
        {
          "internalType": "address",
          "name": "to",
          "type": "address"
        },
        {
          "internalType": "uint256",
          "name": "value",
          "type": "uint256"
        }
      ],
      "name": "transferFrom",
      "outputs": [
        {
          "internalType": "bool",
          "name": "",
          "type": "bool"
        }
      ],
      "stateMutability": "nonpayable",
      "type": "function"
    },
    {
      "inputs": [
        {
          "internalType": "address",
          "name": "from",
          "type": "address"
        },
        {
          "internalType": "address",
          "name": "to",
          "type": "address"
        },
        {
          "internalType": "uint256",
          "name": "value",
          "type": "uint256"
        },
        {
          "internalType": "uint256",
          "name": "validAfter",
          "type": "uint256"
        },
        {
          "internalType": "uint256",
          "name": "validBefore",
          "type": "uint256"
        },
        {
          "internalType": "bytes32",
          "name": "nonce",
          "type": "bytes32"
        },
        {
          "internalType": "uint8",
          "name": "v",
          "type": "uint8"
        },
        {
          "internalType": "bytes32",
          "name": "r",
          "type": "bytes32"
        },
        {
          "internalType": "bytes32",
          "name": "s",
          "type": "bytes32"
        }
      ],
      "name": "transferWithAuthorization",
      "outputs": [],
      "stateMutability": "nonpayable",
      "type": "function"
    }
  ],
  "bytecode": "0x60806040523480156200001157600080fd5b506040516200190338038062001903833981016040819052620000349162000227565b6000805460ff191660ff8316179055815162000058906001906020850190620000ce565b5082516200006e906002906020860190620000ce565b506200007a8462000084565b5050505062000319565b600480546001600160a01b0319166001600160a01b0383169081179091556040517fc87aeafc6e4ae6202adf4f08a76769119ae93cc129c0e0cbac08a118bc18e1ce90600090a250565b828054620000dc90620002c6565b90600052602060002090601f0160209004810192826200010057600085556200014b565b82601f106200011b57805160ff19168380011785556200014b565b828001600101855582156200014b579182015b828111156200014b5782518255916020019190600101906200012e565b50620001599291506200015d565b5090565b5b808211156200015957600081556001016200015e565b600082601f83011262000185578081fd5b81516001600160401b0380821115620001a257620001a262000303565b604051601f8301601f19908116603f01168101908282118183101715620001cd57620001cd62000303565b81604052838152602092508683858801011115620001e9578485fd5b8491505b838210156200020c5785820183015181830184015290820190620001ed565b838211156200021d57848385830101525b9695505050505050565b600080600080608085870312156200023d578384fd5b84516001600160a01b038116811462000254578485fd5b60208601519094506001600160401b038082111562000271578485fd5b6200027f8883890162000174565b9450604087015191508082111562000295578384fd5b50620002a48782880162000174565b925050606085015160ff81168114620002bb578182fd5b939692955090935050565b600181811c90821680620002db57607f821691505b60208210811415620002fd57634e487b7160e01b600052602260045260246000fd5b50919050565b634e487b7160e01b600052604160045260246000fd5b6115da80620003296000396000f3fe608060405234801561001057600080fd5b50600436106101a35760003560e01c806340c10f19116100ee578063a0cc6a6811610097578063d505accf11610071578063d505accf14610484578063dd62ed3e14610497578063e3ee160e146104c2578063e94a0102146104d5576101a3565b8063a0cc6a6814610423578063a9059cbb1461044a578063c473af331461045d576101a3565b80637ecebe00116100c85780637ecebe00146103d457806395d89b41146103f45780639e4e7318146103fc576101a3565b806340c10f191461038e57806342966c68146103a157806370a08231146103b4576101a3565b806323b872dd11610150578063313ce5671161012a578063313ce567146102c05780633408e470146102df5780633644e515146102e5576101a3565b806323b872dd146102715780632c4d4d181461028457806330adf81f14610299576101a3565b8063095ea7b311610181578063095ea7b31461023c57806318160ddd1461025f57806318369a2a14610268576101a3565b806304622c2e146101a857806306fdde03146101e257806307546172146101f7575b600080fd5b6101cf7f1317f51c845ce3bfb7c268e5337a825f12f3d0af9584c2bbfbf4e64e314eaf7381565b6040519081526020015b60405180910390f35b6101ea610503565b6040516101d99190611448565b6004546102179073ffffffffffffffffffffffffffffffffffffffff1681565b60405173ffffffffffffffffffffffffffffffffffffffff90911681526020016101d9565b61024f61024a366004611407565b610591565b60405190151581526020016101d9565b6101cf60055481565b6101cf60035481565b61024f61027f3660046112e6565b6105a7565b610297610292366004611293565b610651565b005b6101cf7f6e71edae12b1b97f4d1f60370fef10105fa2faae0126114a169c64845d6126c981565b6000546102cd9060ff1681565b60405160ff90911681526020016101d9565b466101cf565b6101cf60007f8b73c3c69bb8fe3d512ecc4cf759cc79239f7b179b0ffacaa9a75d522b39400f7f1317f51c845ce3bfb7c268e5337a825f12f3d0af9584c2bbfbf4e64e314eaf737fc89efdaa54c0f20c7adf612882df0950f5a951637e0307cdcb4c672f298b8bc646604080516020810195909552840192909252606083015260808201523060a082015260c00160405160208183030381529060405280519060200120905090565b61024f61039c366004611407565b6106e3565b61024f6103af366004611430565b610771565b6101cf6103c2366004611293565b60066020526000908152604090205481565b6101cf6103e2366004611293565b60086020526000908152604090205481565b6101ea610786565b6101cf7fc89efdaa54c0f20c7adf612882df0950f5a951637e0307cdcb4c672f298b8bc681565b6101cf7f7c7c6cdb67a18743f49ec6fa9b35f50d52ed05cbed4cc592e13b44501c1a226781565b61024f610458366004611407565b610793565b6101cf7f8b73c3c69bb8fe3d512ecc4cf759cc79239f7b179b0ffacaa9a75d522b39400f81565b61029761049236600461139e565b6107a0565b6101cf6104a53660046112b4565b600760209081526000928352604080842090915290825290205481565b6102976104d0366004611321565b6108e7565b61024f6104e3366004611407565b600960209081526000928352604080842090915290825290205460ff1681565b60028054610510906114e8565b80601f016020809104026020016040519081016040528092919081815260200182805461053c906114e8565b80156105895780601f1061055e57610100808354040283529160200191610589565b820191906000526020600020905b81548152906001019060200180831161056c57829003601f168201915b505050505081565b600061059e338484610c0c565b50600192915050565b73ffffffffffffffffffffffffffffffffffffffff831660009081526007602090815260408083203384529091528120547fffffffffffffffffffffffffffffffffffffffffffffffffffffffffffffffff811461063b5761060983826114d1565b73ffffffffffffffffffffffffffffffffffffffff861660009081526007602090815260408083203384529091529020555b610646858585610c7b565b506001949350505050565b60045473ffffffffffffffffffffffffffffffffffffffff1633146106d7576040517f08c379a000000000000000000000000000000000000000000000000000000000815260206004820152601a60248201527f444e3a3a6f6e6c794d696e7465723a204e4f545f4d494e54455200000000000060448201526064015b60405180910390fd5b6106e081610e11565b50565b60045460009073ffffffffffffffffffffffffffffffffffffffff163314610767576040517f08c379a000000000000000000000000000000000000000000000000000000000815260206004820152601a60248201527f444e3a3a6f6e6c794d696e7465723a204e4f545f4d494e54455200000000000060448201526064016106ce565b61059e8383610e80565b600061077d3383610f2c565b5060015b919050565b60018054610510906114e8565b600061059e338484610c7b565b4284101561080a576040517f08c379a000000000000000000000000000000000000000000000000000000000815260206004820152601860248201527f444e3a3a7065726d69743a20415554485f45585049524544000000000000000060448201526064016106ce565b73ffffffffffffffffffffffffffffffffffffffff8716600090815260086020526040812080547f6e71edae12b1b97f4d1f60370fef10105fa2faae0126114a169c64845d6126c9918a918a918a9190866108648361153c565b9091555060408051602081019690965273ffffffffffffffffffffffffffffffffffffffff94851690860152929091166060840152608083015260a082015260c0810186905260e0016040516020818303038152906040528051906020012090506108d28882868686610fdf565b6108dd888888610c0c565b5050505050505050565b854211610976576040517f08c379a000000000000000000000000000000000000000000000000000000000815260206004820152603160248201527f444e3a3a7472616e7366657257697468417574686f72697a6174696f6e3a204160448201527f5554485f4e4f545f5945545f56414c494400000000000000000000000000000060648201526084016106ce565b844210610a05576040517f08c379a000000000000000000000000000000000000000000000000000000000815260206004820152602b60248201527f444e3a3a7472616e7366657257697468417574686f72697a6174696f6e3a204160448201527f5554485f4558504952454400000000000000000000000000000000000000000060648201526084016106ce565b73ffffffffffffffffffffffffffffffffffffffff8916600090815260096020908152604080832087845290915290205460ff1615610ac6576040517f08c379a000000000000000000000000000000000000000000000000000000000815260206004820152603060248201527f444e3a3a7472616e7366657257697468417574686f72697a6174696f6e3a204160448201527f5554485f414c52454144595f555345440000000000000000000000000000000060648201526084016106ce565b604080517f7c7c6cdb67a18743f49ec6fa9b35f50d52ed05cbed4cc592e13b44501c1a226760208083019190915273ffffffffffffffffffffffffffffffffffffffff8c8116838501528b166060830152608082018a905260a0820189905260c0820188905260e0808301889052835180840390910181526101009092019092528051910120610b598a82868686610fdf565b73ffffffffffffffffffffffffffffffffffffffff8a166000908152600960209081526040808320888452909152902080547fffffffffffffffffffffffffffffffffffffffffffffffffffffffffffffff00166001179055610bbd8a8a8a610c7b565b604051859073ffffffffffffffffffffffffffffffffffffffff8c16907f98de503528ee59b575ef0c0a2576a82497bfc029a5685b209e9ec333479b10a590600090a350505050505050505050565b73ffffffffffffffffffffffffffffffffffffffff83811660008181526007602090815260408083209487168084529482529182902085905590518481527f8c5be1e5ebec7d5bd14f71427d1e84f3dd0314c0f7b2291e5b200ac8c7c3b92591015b60405180910390a3505050565b73ffffffffffffffffffffffffffffffffffffffff82163014801590610cb6575073ffffffffffffffffffffffffffffffffffffffff821615155b610d42576040517f08c379a000000000000000000000000000000000000000000000000000000000815260206004820152602160248201527f444e3a3a5f7472616e736665723a204e4f545f56414c49445f5452414e53464560448201527f520000000000000000000000000000000000000000000000000000000000000060648201526084016106ce565b73ffffffffffffffffffffffffffffffffffffffff8316600090815260066020526040902054610d739082906114d1565b73ffffffffffffffffffffffffffffffffffffffff8085166000908152600660205260408082209390935590841681522054610db09082906114b9565b73ffffffffffffffffffffffffffffffffffffffff80841660008181526006602052604090819020939093559151908516907fddf252ad1be2c89b69c2b068fc378daa952ba7f163c4a11628f55a4df523b3ef90610c6e9085815260200190565b600480547fffffffffffffffffffffffff00000000000000000000000000000000000000001673ffffffffffffffffffffffffffffffffffffffff83169081179091556040517fc87aeafc6e4ae6202adf4f08a76769119ae93cc129c0e0cbac08a118bc18e1ce90600090a250565b80600554610e8e91906114b9565b60055573ffffffffffffffffffffffffffffffffffffffff8216600090815260066020526040902054610ec29082906114b9565b73ffffffffffffffffffffffffffffffffffffffff83166000818152600660205260408082209390935591519091907fddf252ad1be2c89b69c2b068fc378daa952ba7f163c4a11628f55a4df523b3ef90610f209085815260200190565b60405180910390a35050565b73ffffffffffffffffffffffffffffffffffffffff8216600090815260066020526040902054610f5d9082906114d1565b73ffffffffffffffffffffffffffffffffffffffff8316600090815260066020526040902055600554610f919082906114d1565b60055560405181815260009073ffffffffffffffffffffffffffffffffffffffff8416907fddf252ad1be2c89b69c2b068fc378daa952ba7f163c4a11628f55a4df523b3ef90602001610f20565b600061108a60007f8b73c3c69bb8fe3d512ecc4cf759cc79239f7b179b0ffacaa9a75d522b39400f7f1317f51c845ce3bfb7c268e5337a825f12f3d0af9584c2bbfbf4e64e314eaf737fc89efdaa54c0f20c7adf612882df0950f5a951637e0307cdcb4c672f298b8bc646604080516020810195909552840192909252606083015260808201523060a082015260c00160405160208183030381529060405280519060200120905090565b6040517f19010000000000000000000000000000000000000000000000000000000000006020820152602281019190915260428101869052606201604080517fffffffffffffffffffffffffffffffffffffffffffffffffffffffffffffffe08184030181528282528051602091820120600080855291840180845281905260ff88169284019290925260608301869052608083018590529092509060019060a0016020604051602081039080840390855afa15801561114e573d6000803e3d6000fd5b50506040517fffffffffffffffffffffffffffffffffffffffffffffffffffffffffffffffe0015191505073ffffffffffffffffffffffffffffffffffffffff8116158015906111c957508673ffffffffffffffffffffffffffffffffffffffff168173ffffffffffffffffffffffffffffffffffffffff16145b611255576040517f08c379a000000000000000000000000000000000000000000000000000000000815260206004820152602a60248201527f444e3a3a5f76616c69646174655369676e6564446174613a20494e56414c494460448201527f5f5349474e41545552450000000000000000000000000000000000000000000060648201526084016106ce565b50505050505050565b803573ffffffffffffffffffffffffffffffffffffffff8116811461078157600080fd5b803560ff8116811461078157600080fd5b6000602082840312156112a4578081fd5b6112ad8261125e565b9392505050565b600080604083850312156112c6578081fd5b6112cf8361125e565b91506112dd6020840161125e565b90509250929050565b6000806000606084860312156112fa578081fd5b6113038461125e565b92506113116020850161125e565b9150604084013590509250925092565b60008060008060008060008060006101208a8c03121561133f578485fd5b6113488a61125e565b985061135660208b0161125e565b975060408a0135965060608a0135955060808a0135945060a08a0135935061138060c08b01611282565b925060e08a013591506101008a013590509295985092959850929598565b600080600080600080600060e0888a0312156113b8578283fd5b6113c18861125e565b96506113cf6020890161125e565b955060408801359450606088013593506113eb60808901611282565b925060a0880135915060c0880135905092959891949750929550565b60008060408385031215611419578182fd5b6114228361125e565b946020939093013593505050565b600060208284031215611441578081fd5b5035919050565b6000602080835283518082850152825b8181101561147457858101830151858201604001528201611458565b818111156114855783604083870101525b50601f017fffffffffffffffffffffffffffffffffffffffffffffffffffffffffffffffe016929092016040019392505050565b600082198211156114cc576114cc611575565b500190565b6000828210156114e3576114e3611575565b500390565b600181811c908216806114fc57607f821691505b60208210811415611536577f4e487b7100000000000000000000000000000000000000000000000000000000600052602260045260246000fd5b50919050565b60007fffffffffffffffffffffffffffffffffffffffffffffffffffffffffffffffff82141561156e5761156e611575565b5060010190565b7f4e487b7100000000000000000000000000000000000000000000000000000000600052601160045260246000fdfea2646970667358221220cd001a45b96ba39e92d3c19d1dc315059953cc62c6b5a003f0516d127c3cabf364736f6c63430008030033",
  "linkReferences": {},
  "deployedLinkReferences": {}
}