{
  "_format": "hh-sol-artifact-1",
  "contractName": "MiniMeTokenFactory",
  "sourceName": "contracts/Tokens/Token.sol",
  "abi": [
    {
      "constant": false,
      "inputs": [
        {
          "name": "_parentToken",
          "type": "address"
        },
        {
          "name": "_snapshotBlock",
          "type": "uint256"
        },
        {
          "name": "_tokenName",
          "type": "string"
        },
        {
          "name": "_decimalUnits",
          "type": "uint8"
        },
        {
          "name": "_tokenSymbol",
          "type": "string"
        },
        {
          "name": "_transfersEnabled",
          "type": "bool"
        }
      ],
      "name": "createCloneToken",
      "outputs": [
        {
          "name": "",
          "type": "address"
        }
      ],
      "payable": false,
      "stateMutability": "nonpayable",
      "type": "function"
    },
    {
      "anonymous": false,
      "inputs": [
        {
          "indexed": true,
          "name": "_cloneToken",
          "type": "address"
        },
        {
          "indexed": true,
          "name": "_parentToken",
          "type": "address"
        },
        {
          "indexed": false,
          "name": "_snapshotBlock",
          "type": "uint256"
        }
      ],
      "name": "NewFactoryCloneToken",
      "type": "event"
    }
  ],
  "bytecode": "0x608060405234801561001057600080fd5b50612fcf806100206000396000f3006080604052600436106100405763ffffffff7c01000000000000000000000000000000000000000000000000000000006000350416635b7b72c18114610045575b600080fd5b34801561005157600080fd5b50604080516020600460443581810135601f810184900484028501840190955284845261010694823573ffffffffffffffffffffffffffffffffffffffff1694602480359536959460649492019190819084018382808284375050604080516020601f818a01358b0180359182018390048302840183018552818452989b60ff8b35169b909a90999401975091955091820193509150819084018382808284375094975050505091351515925061012f915050565b6040805173ffffffffffffffffffffffffffffffffffffffff9092168252519081900360200190f35b60008030888888888888610141610359565b73ffffffffffffffffffffffffffffffffffffffff808916825287166020808301919091526040820187905260ff8516608083015282151560c083015260e0606083018181528751918401919091528651909160a084019161010085019189019080838360005b838110156101c05781810151838201526020016101a8565b50505050905090810190601f1680156101ed5780820380516001836020036101000a031916815260200191505b50838103825285518152855160209182019187019080838360005b83811015610220578181015183820152602001610208565b50505050905090810190601f16801561024d5780820380516001836020036101000a031916815260200191505b509950505050505050505050604051809103906000f080158015610275573d6000803e3d6000fd5b50604080517f3cebb823000000000000000000000000000000000000000000000000000000008152336004820152905191925073ffffffffffffffffffffffffffffffffffffffff831691633cebb8239160248082019260009290919082900301818387803b1580156102e757600080fd5b505af11580156102fb573d6000803e3d6000fd5b5050604080518a8152905173ffffffffffffffffffffffffffffffffffffffff808d169450851692507fc337445265c93360601091223596471f7a4b93b349452fdf81df12fd9ceb57ca9181900360200190a3979650505050505050565b604051612c3a8061036a83390190560060c0604052600760808190527f4d4d545f302e310000000000000000000000000000000000000000000000000060a0908152620000409160049190620001a7565b503480156200004e57600080fd5b5060405162002c3a38038062002c3a8339810160409081528151602080840151928401516060850151608086015160a087015160c088015160008054600160a060020a03191633179055600e8054600160a060020a0389166101000261010060a860020a031990911617905592880180519698949690959294919091019291620000de91600191870190620001a7565b506002805460ff191660ff8516179055815162000103906003906020850190620001a7565b5060088054600160a060020a031916600160a060020a0388161790556009859055600e805460ff191682151517905543600a556040518451859190819060208401908083835b602083106200016a5780518252601f19909201916020918201910162000149565b5181516020939093036101000a60001901801990911692169190911790526040519201829003909120600555506200024c98505050505050505050565b828054600181600116156101000203166002900490600052602060002090601f016020900481019282601f10620001ea57805160ff19168380011785556200021a565b828001600101855582156200021a579182015b828111156200021a578251825591602001919060010190620001fd565b50620002289291506200022c565b5090565b6200024991905b8082111562000228576000815560010162000233565b90565b6129de806200025c6000396000f3006080604052600436106101c15763ffffffff7c010000000000000000000000000000000000000000000000000000000060003504166306fdde03811461029e578063095ea7b314610328578063176345141461036d57806318160ddd1461039457806323b872dd146103a957806330adf81f146103e0578063313ce567146103f55780633cebb823146104205780634ee2cd7e1461044e57806354fd4d501461047f5780636638c0871461049457806370a08231146105645780637ecebe001461059257806380a54001146105c0578063827f32c0146105d557806395d89b4114610606578063981b24d01461061b5780639e4e731814610633578063a0cc6a6814610648578063a9059cbb1461065d578063bef97c871461068e578063c473af33146106a3578063c5bcc4f1146106b8578063cae9ca51146106cd578063cc79f97b14610743578063d3ce77fe14610758578063d505accf14610789578063dd62ed3e146107cf578063df8de3e714610803578063e3ee160e14610831578063e77772fe1461087e578063e94a010214610893578063ed24911d146108c4578063f172a4ce146108d9578063f41e60c5146108ee578063f77c479114610908575b6000546101e39073ffffffffffffffffffffffffffffffffffffffff1661091d565b15156101ee57600080fd5b600054604080517ff48c3054000000000000000000000000000000000000000000000000000000008152336004820152905173ffffffffffffffffffffffffffffffffffffffff9092169163f48c3054913491602480830192602092919082900301818588803b15801561026157600080fd5b505af1158015610275573d6000803e3d6000fd5b50505050506040513d602081101561028c57600080fd5b5051151560011461029c57600080fd5b005b3480156102aa57600080fd5b506102b3610957565b6040805160208082528351818301528351919283929083019185019080838360005b838110156102ed5781810151838201526020016102d5565b50505050905090810190601f16801561031a5780820380516001836020036101000a031916815260200191505b509250505060405180910390f35b34801561033457600080fd5b5061035973ffffffffffffffffffffffffffffffffffffffff60043516602435610a02565b604080519115158252519081900360200190f35b34801561037957600080fd5b50610382610a19565b60408051918252519081900360200190f35b3480156103a057600080fd5b50610382610a1f565b3480156103b557600080fd5b5061035973ffffffffffffffffffffffffffffffffffffffff60043581169060243516604435610a30565b3480156103ec57600080fd5b50610382610aee565b34801561040157600080fd5b5061040a610b12565b6040805160ff9092168252519081900360200190f35b34801561042c57600080fd5b5061029c73ffffffffffffffffffffffffffffffffffffffff60043516610b1b565b34801561045a57600080fd5b5061038273ffffffffffffffffffffffffffffffffffffffff60043516602435610b86565b34801561048b57600080fd5b506102b3610d50565b3480156104a057600080fd5b506040805160206004803580820135601f810184900484028501840190955284845261053b94369492936024939284019190819084018382808284375050604080516020601f818a01358b0180359182018390048302840183018552818452989b60ff8b35169b909a909994019750919550918201935091508190840183828082843750949750508435955050505050602001351515610dc9565b6040805173ffffffffffffffffffffffffffffffffffffffff9092168252519081900360200190f35b34801561057057600080fd5b5061038273ffffffffffffffffffffffffffffffffffffffff60043516611056565b34801561059e57600080fd5b5061038273ffffffffffffffffffffffffffffffffffffffff6004351661106a565b3480156105cc57600080fd5b5061053b61107c565b3480156105e157600080fd5b5061035973ffffffffffffffffffffffffffffffffffffffff60043516602435611098565b34801561061257600080fd5b506102b361118b565b34801561062757600080fd5b50610382600435611204565b34801561063f57600080fd5b50610382611334565b34801561065457600080fd5b50610382611358565b34801561066957600080fd5b5061035973ffffffffffffffffffffffffffffffffffffffff6004351660243561137c565b34801561069a57600080fd5b5061035961139b565b3480156106af57600080fd5b506103826113a4565b3480156106c457600080fd5b506103826113c8565b3480156106d957600080fd5b50604080516020600460443581810135601f810184900484028501840190955284845261035994823573ffffffffffffffffffffffffffffffffffffffff169460248035953695946064949201919081908401838280828437509497506113ce9650505050505050565b34801561074f57600080fd5b506103826114f6565b34801561076457600080fd5b5061035973ffffffffffffffffffffffffffffffffffffffff600435166024356114fb565b34801561079557600080fd5b5061029c73ffffffffffffffffffffffffffffffffffffffff6004358116906024351660443560643560ff6084351660a43560c4356115ea565b3480156107db57600080fd5b5061038273ffffffffffffffffffffffffffffffffffffffff6004358116906024351661178b565b34801561080f57600080fd5b5061029c73ffffffffffffffffffffffffffffffffffffffff600435166117c3565b34801561083d57600080fd5b5061029c73ffffffffffffffffffffffffffffffffffffffff6004358116906024351660443560643560843560a43560ff60c4351660e435610104356119f8565b34801561088a57600080fd5b5061053b611dc0565b34801561089f57600080fd5b5061035973ffffffffffffffffffffffffffffffffffffffff60043516602435611de1565b3480156108d057600080fd5b50610382611e01565b3480156108e557600080fd5b50610382611f04565b3480156108fa57600080fd5b5061029c6004351515611f0a565b34801561091457600080fd5b5061053b611f5f565b60008073ffffffffffffffffffffffffffffffffffffffff831615156109465760009150610951565b823b90506000811191505b50919050565b60018054604080516020600284861615610100027fffffffffffffffffffffffffffffffffffffffffffffffffffffffffffffffff0190941693909304601f810184900484028201840190925281815292918301828280156109fa5780601f106109cf576101008083540402835291602001916109fa565b820191906000526020600020905b8154815290600101906020018083116109dd57829003601f168201915b505050505081565b6000610a0f338484611f7b565b5060015b92915050565b600a5481565b6000610a2a43611204565b90505b90565b6000805473ffffffffffffffffffffffffffffffffffffffff163314610ad957600e5460ff161515610a6157600080fd5b73ffffffffffffffffffffffffffffffffffffffff84166000908152600c60209081526040808320338452909152902054821115610aa157506000610ae7565b73ffffffffffffffffffffffffffffffffffffffff84166000908152600c602090815260408083203384529091529020805483900390555b610ae484848461212b565b90505b9392505050565b7f6e71edae12b1b97f4d1f60370fef10105fa2faae0126114a169c64845d6126c981565b60025460ff1681565b60005473ffffffffffffffffffffffffffffffffffffffff163314610b3f57600080fd5b600080547fffffffffffffffffffffffff00000000000000000000000000000000000000001673ffffffffffffffffffffffffffffffffffffffff92909216919091179055565b73ffffffffffffffffffffffffffffffffffffffff82166000908152600b60205260408120541580610c05575073ffffffffffffffffffffffffffffffffffffffff83166000908152600b6020526040812080548492908110610be557fe5b6000918252602090912001546fffffffffffffffffffffffffffffffff16115b15610d1a5760085473ffffffffffffffffffffffffffffffffffffffff1615610d125760085460095473ffffffffffffffffffffffffffffffffffffffff90911690634ee2cd7e908590610c5a908690612388565b6040518363ffffffff167c0100000000000000000000000000000000000000000000000000000000028152600401808373ffffffffffffffffffffffffffffffffffffffff1673ffffffffffffffffffffffffffffffffffffffff16815260200182815260200192505050602060405180830381600087803b158015610cdf57600080fd5b505af1158015610cf3573d6000803e3d6000fd5b505050506040513d6020811015610d0957600080fd5b50519050610a13565b506000610a13565b73ffffffffffffffffffffffffffffffffffffffff83166000908152600b60205260409020610d49908361239e565b9050610a13565b6004805460408051602060026001851615610100027fffffffffffffffffffffffffffffffffffffffffffffffffffffffffffffffff0190941693909304601f810184900484028201840190925281815292918301828280156109fa5780601f106109cf576101008083540402835291602001916109fa565b600080808415610dd95784610dde565b600143035b600e546040517f5b7b72c100000000000000000000000000000000000000000000000000000000815230600482018181526024830185905260ff8c16606484015288151560a484015260c0604484019081528d5160c48501528d5195975061010090940473ffffffffffffffffffffffffffffffffffffffff1694635b7b72c194929388938f938f938f938e9391608482019160e40190602089019080838360005b83811015610e98578181015183820152602001610e80565b50505050905090810190601f168015610ec55780820380516001836020036101000a031916815260200191505b50838103825285518152855160209182019187019080838360005b83811015610ef8578181015183820152602001610ee0565b50505050905090810190601f168015610f255780820380516001836020036101000a031916815260200191505b5098505050505050505050602060405180830381600087803b158015610f4a57600080fd5b505af1158015610f5e573d6000803e3d6000fd5b505050506040513d6020811015610f7457600080fd5b5051604080517f3cebb823000000000000000000000000000000000000000000000000000000008152336004820152905191925073ffffffffffffffffffffffffffffffffffffffff831691633cebb8239160248082019260009290919082900301818387803b158015610fe757600080fd5b505af1158015610ffb573d6000803e3d6000fd5b505060408051858152905173ffffffffffffffffffffffffffffffffffffffff851693507f086c875b377f900b07ce03575813022f05dd10ed7640b5282cf6d3c3fc352ade92509081900360200190a2979650505050505050565b60006110628243610b86565b90505b919050565b60066020526000908152604090205481565b60085473ffffffffffffffffffffffffffffffffffffffff1681565b600080548190819073ffffffffffffffffffffffffffffffffffffffff1633146110c157600080fd5b6110c9610a1f565b91508382018211156110da57600080fd5b6110e385611056565b90508381018111156110f457600080fd5b611101600d858401612584565b73ffffffffffffffffffffffffffffffffffffffff85166000908152600b6020526040902061113290828601612584565b60408051858152905173ffffffffffffffffffffffffffffffffffffffff8716916000917fddf252ad1be2c89b69c2b068fc378daa952ba7f163c4a11628f55a4df523b3ef9181900360200190a3506001949350505050565b6003805460408051602060026001851615610100027fffffffffffffffffffffffffffffffffffffffffffffffffffffffffffffffff0190941693909304601f810184900484028201840190925281815292918301828280156109fa5780601f106109cf576101008083540402835291602001916109fa565b600d546000901580611242575081600d600081548110151561122257fe5b6000918252602090912001546fffffffffffffffffffffffffffffffff16115b156113225760085473ffffffffffffffffffffffffffffffffffffffff161561131a5760085460095473ffffffffffffffffffffffffffffffffffffffff9091169063981b24d090611295908590612388565b6040518263ffffffff167c010000000000000000000000000000000000000000000000000000000002815260040180828152602001915050602060405180830381600087803b1580156112e757600080fd5b505af11580156112fb573d6000803e3d6000fd5b505050506040513d602081101561131157600080fd5b50519050611065565b506000611065565b61132d600d8361239e565b9050611065565b7fc89efdaa54c0f20c7adf612882df0950f5a951637e0307cdcb4c672f298b8bc681565b7f7c7c6cdb67a18743f49ec6fa9b35f50d52ed05cbed4cc592e13b44501c1a226781565b600e5460009060ff16151561139057600080fd5b610ae733848461212b565b600e5460ff1681565b7f8b73c3c69bb8fe3d512ecc4cf759cc79239f7b179b0ffacaa9a75d522b39400f81565b60095481565b60006113da8484610a02565b15156113e557600080fd5b6040517f8f4ffcb1000000000000000000000000000000000000000000000000000000008152336004820181815260248301869052306044840181905260806064850190815286516084860152865173ffffffffffffffffffffffffffffffffffffffff8a1695638f4ffcb195948a94938a939192909160a490910190602085019080838360005b8381101561148557818101518382015260200161146d565b50505050905090810190601f1680156114b25780820380516001836020036101000a031916815260200191505b5095505050505050600060405180830381600087803b1580156114d457600080fd5b505af11580156114e8573d6000803e3d6000fd5b506001979650505050505050565b606481565b600080548190819073ffffffffffffffffffffffffffffffffffffffff16331461152457600080fd5b61152c610a1f565b91508382101561153b57600080fd5b61154485611056565b90508381101561155357600080fd5b611560600d858403612584565b73ffffffffffffffffffffffffffffffffffffffff85166000908152600b6020526040902061159190858303612584565b60408051858152905160009173ffffffffffffffffffffffffffffffffffffffff8816917fddf252ad1be2c89b69c2b068fc378daa952ba7f163c4a11628f55a4df523b3ef9181900360200190a3506001949350505050565b60004285101561165b57604080517f08c379a000000000000000000000000000000000000000000000000000000000815260206004820152601460248201527f7065726d69743a20415554485f45585049524544000000000000000000000000604482015290519081900360640190fd5b73ffffffffffffffffffffffffffffffffffffffff80891660008181526006602090815260409182902080546001810190915582517f6e71edae12b1b97f4d1f60370fef10105fa2faae0126114a169c64845d6126c98184015280840194909452938b166060840152608083018a905260a083019390935260c08083018990528151808403909101815260e09092019081905281519192909182918401908083835b6020831061173a57805182527fffffffffffffffffffffffffffffffffffffffffffffffffffffffffffffffe090920191602091820191016116fd565b6001836020036101000a0380198251168184511680821785525050505050509050019150506040518091039020905061177688828686866126fb565b611781888888611f7b565b5050505050505050565b73ffffffffffffffffffffffffffffffffffffffff9182166000908152600c6020908152604080832093909416825291909152205490565b60008054819073ffffffffffffffffffffffffffffffffffffffff1633146117ea57600080fd5b73ffffffffffffffffffffffffffffffffffffffff83161515611855576000805460405173ffffffffffffffffffffffffffffffffffffffff90911691303180156108fc02929091818181858888f1935050505015801561184f573d6000803e3d6000fd5b506119f3565b604080517f70a08231000000000000000000000000000000000000000000000000000000008152306004820152905184935073ffffffffffffffffffffffffffffffffffffffff8416916370a082319160248083019260209291908290030181600087803b1580156118c657600080fd5b505af11580156118da573d6000803e3d6000fd5b505050506040513d60208110156118f057600080fd5b505160008054604080517fa9059cbb00000000000000000000000000000000000000000000000000000000815273ffffffffffffffffffffffffffffffffffffffff92831660048201526024810185905290519394509085169263a9059cbb92604480840193602093929083900390910190829087803b15801561197357600080fd5b505af1158015611987573d6000803e3d6000fd5b505050506040513d602081101561199d57600080fd5b505060005460408051838152905173ffffffffffffffffffffffffffffffffffffffff928316928616917ff931edb47c50b4b4104c187b5814a9aef5f709e17e2ecf9617e860cacade929c919081900360200190a35b505050565b6000428710611a8e57604080517f08c379a000000000000000000000000000000000000000000000000000000000815260206004820152602d60248201527f7472616e7366657257697468417574686f72697a6174696f6e3a20415554485f60448201527f4e4f545f5945545f56414c494400000000000000000000000000000000000000606482015290519081900360840190fd5b428611611b2257604080517f08c379a000000000000000000000000000000000000000000000000000000000815260206004820152602760248201527f7472616e7366657257697468417574686f72697a6174696f6e3a20415554485f60448201527f4558504952454400000000000000000000000000000000000000000000000000606482015290519081900360840190fd5b73ffffffffffffffffffffffffffffffffffffffff8a16600090815260076020908152604080832088845290915290205460ff1615611be857604080517f08c379a000000000000000000000000000000000000000000000000000000000815260206004820152602c60248201527f7472616e7366657257697468417574686f72697a6174696f6e3a20415554485f60448201527f414c52454144595f555345440000000000000000000000000000000000000000606482015290519081900360840190fd5b604080517f7c7c6cdb67a18743f49ec6fa9b35f50d52ed05cbed4cc592e13b44501c1a226760208083019190915273ffffffffffffffffffffffffffffffffffffffff808e16838501528c166060830152608082018b905260a082018a905260c0820189905260e08083018990528351808403909101815261010090920192839052815191929182918401908083835b60208310611cb557805182527fffffffffffffffffffffffffffffffffffffffffffffffffffffffffffffffe09092019160209182019101611c78565b6001836020036101000a03801982511681845116808217855250505050505090500191505060405180910390209050611cf18a828686866126fb565b73ffffffffffffffffffffffffffffffffffffffff8a166000908152600760209081526040808320888452909152902080547fffffffffffffffffffffffffffffffffffffffffffffffffffffffffffffff00166001179055600e5460ff161515611d5b57600080fd5b611d668a8a8a61212b565b1515611d7157600080fd5b604051859073ffffffffffffffffffffffffffffffffffffffff8c16907f98de503528ee59b575ef0c0a2576a82497bfc029a5685b209e9ec333479b10a590600090a350505050505050505050565b600e54610100900473ffffffffffffffffffffffffffffffffffffffff1681565b600760209081526000928352604080842090915290825290205460ff1681565b600554604080517f8b73c3c69bb8fe3d512ecc4cf759cc79239f7b179b0ffacaa9a75d522b39400f602080830191909152818301939093527fc89efdaa54c0f20c7adf612882df0950f5a951637e0307cdcb4c672f298b8bc66060820152606460808201523060a0808301919091528251808303909101815260c09091019182905280516000939192918291908401908083835b60208310611ed257805182527fffffffffffffffffffffffffffffffffffffffffffffffffffffffffffffffe09092019160209182019101611e95565b6001836020036101000a0380198251168184511680821785525050505050509050019150506040518091039020905090565b60055481565b60005473ffffffffffffffffffffffffffffffffffffffff163314611f2e57600080fd5b600e80547fffffffffffffffffffffffffffffffffffffffffffffffffffffffffffffff0016911515919091179055565b60005473ffffffffffffffffffffffffffffffffffffffff1681565b600e5460ff161515611f8c57600080fd5b801580611fc9575073ffffffffffffffffffffffffffffffffffffffff8084166000908152600c6020908152604080832093861683529290522054155b1515611fd457600080fd5b600054611ff69073ffffffffffffffffffffffffffffffffffffffff1661091d565b156120bc5760008054604080517fda682aeb00000000000000000000000000000000000000000000000000000000815273ffffffffffffffffffffffffffffffffffffffff87811660048301528681166024830152604482018690529151919092169263da682aeb92606480820193602093909283900390910190829087803b15801561208257600080fd5b505af1158015612096573d6000803e3d6000fd5b505050506040513d60208110156120ac57600080fd5b505115156001146120bc57600080fd5b73ffffffffffffffffffffffffffffffffffffffff8084166000818152600c6020908152604080832094871680845294825291829020859055815185815291517f8c5be1e5ebec7d5bd14f71427d1e84f3dd0314c0f7b2291e5b200ac8c7c3b9259281900390910190a3505050565b6000808083151561213f576001925061237f565b600954431161214d57600080fd5b73ffffffffffffffffffffffffffffffffffffffff851615801590612188575073ffffffffffffffffffffffffffffffffffffffff85163014155b151561219357600080fd5b61219d8643610b86565b9150838210156121b0576000925061237f565b6000546121d29073ffffffffffffffffffffffffffffffffffffffff1661091d565b156122985760008054604080517f4a39314900000000000000000000000000000000000000000000000000000000815273ffffffffffffffffffffffffffffffffffffffff8a8116600483015289811660248301526044820189905291519190921692634a39314992606480820193602093909283900390910190829087803b15801561225e57600080fd5b505af1158015612272573d6000803e3d6000fd5b505050506040513d602081101561228857600080fd5b5051151560011461229857600080fd5b73ffffffffffffffffffffffffffffffffffffffff86166000908152600b602052604090206122c990858403612584565b6122d38543610b86565b90508381018111156122e457600080fd5b73ffffffffffffffffffffffffffffffffffffffff85166000908152600b6020526040902061231590828601612584565b8473ffffffffffffffffffffffffffffffffffffffff168673ffffffffffffffffffffffffffffffffffffffff167fddf252ad1be2c89b69c2b068fc378daa952ba7f163c4a11628f55a4df523b3ef866040518082815260200191505060405180910390a3600192505b50509392505050565b60008183106123975781610ae7565b5090919050565b6000806000808580549050600014156123ba576000935061257b565b855486907fffffffffffffffffffffffffffffffffffffffffffffffffffffffffffffffff81019081106123ea57fe5b6000918252602090912001546fffffffffffffffffffffffffffffffff16851061247757855486907fffffffffffffffffffffffffffffffffffffffffffffffffffffffffffffffff810190811061243e57fe5b60009182526020909120015470010000000000000000000000000000000090046fffffffffffffffffffffffffffffffff16935061257b565b85600081548110151561248657fe5b6000918252602090912001546fffffffffffffffffffffffffffffffff168510156124b4576000935061257b565b8554600093507fffffffffffffffffffffffffffffffffffffffffffffffffffffffffffffffff0191505b8282111561253857600260018385010104905084868281548110151561250157fe5b6000918252602090912001546fffffffffffffffffffffffffffffffff161161252c57809250612533565b6001810391505b6124df565b858381548110151561254657fe5b60009182526020909120015470010000000000000000000000000000000090046fffffffffffffffffffffffffffffffff1693505b50505092915050565b6000806fffffffffffffffffffffffffffffffff8311156125a457600080fd5b835415806125ff57508354439085907fffffffffffffffffffffffffffffffffffffffffffffffffffffffffffffffff81019081106125df57fe5b6000918252602090912001546fffffffffffffffffffffffffffffffff16105b1561268957835484906126158260018301612975565b8154811061261f57fe5b600091825260209091200180546fffffffffffffffffffffffffffffffff858116700100000000000000000000000000000000024382167fffffffffffffffffffffffffffffffff00000000000000000000000000000000909316929092171617815591506126f5565b835484907fffffffffffffffffffffffffffffffffffffffffffffffffffffffffffffffff81019081106126b957fe5b600091825260209091200180546fffffffffffffffffffffffffffffffff80861670010000000000000000000000000000000002911617815590505b50505050565b600080612706611e01565b604080517f1901000000000000000000000000000000000000000000000000000000000000602080830191909152602282019390935260428082018a905282518083039091018152606290910191829052805190928291908401908083835b602083106127a257805182527fffffffffffffffffffffffffffffffffffffffffffffffffffffffffffffffe09092019160209182019101612765565b51815160209384036101000a7fffffffffffffffffffffffffffffffffffffffffffffffffffffffffffffffff018019909216911617905260408051929094018290038220600080845283830180875282905260ff8d1684870152606084018c9052608084018b905294519098506001965060a0808401965091947fffffffffffffffffffffffffffffffffffffffffffffffffffffffffffffffe0820194509281900390910191865af115801561285e573d6000803e3d6000fd5b50506040517fffffffffffffffffffffffffffffffffffffffffffffffffffffffffffffffe0015191505073ffffffffffffffffffffffffffffffffffffffff8116158015906128d957508673ffffffffffffffffffffffffffffffffffffffff168173ffffffffffffffffffffffffffffffffffffffff16145b151561296c57604080517f08c379a000000000000000000000000000000000000000000000000000000000815260206004820152602660248201527f5f76616c69646174655369676e6564446174613a20494e56414c49445f53494760448201527f4e41545552450000000000000000000000000000000000000000000000000000606482015290519081900360840190fd5b50505050505050565b8154818355818111156119f3576000838152602090206119f3918101908301610a2d91905b808211156129ae576000815560010161299a565b50905600a165627a7a7230582021a9d9c86dc00a5989bb27199043912df7b85b36b8bd32769f2235e45e6489d80029a165627a7a723058206cafbfc43397a5e7c040fd2015b260df015c8dc7635df2b8d189fdb8442801e50029",
  "linkReferences": {},
  "deployedLinkReferences": {}
}