{
  "_format": "hh-sol-artifact-1",
  "contractName": "LiquidityMiningDeployer",
  "sourceName": "contracts/Deployers/LiquidityMiningDeployer.sol",
  "abi": [
    {
      "inputs": [
        {
          "internalType": "uint256",
          "name": "_totalTokens",
          "type": "uint256"
        },
        {
          "internalType": "uint256",
          "name": "_startToCliff",
          "type": "uint256"
        },
        {
          "internalType": "uint256",
          "name": "_duration",
          "type": "uint256"
        },
        {
          "internalType": "uint256",
          "name": "_initialPercentage",
          "type": "uint256"
        },
        {
          "internalType": "contract IERC20Upgradeable",
          "name": "_token",
          "type": "address"
        }
      ],
      "stateMutability": "nonpayable",
      "type": "constructor"
    },
    {
      "anonymous": false,
      "inputs": [
        {
          "indexed": false,
          "internalType": "contract UnipoolTokenDistributor",
          "name": "_address",
          "type": "address"
        },
        {
          "indexed": false,
          "internalType": "contract IERC20",
          "name": "_token",
          "type": "address"
        },
        {
          "indexed": false,
          "internalType": "uint256",
          "name": "poolTokens",
          "type": "uint256"
        }
      ],
      "name": "NewPool",
      "type": "event"
    },
    {
      "anonymous": false,
      "inputs": [
        {
          "indexed": true,
          "internalType": "address",
          "name": "previousOwner",
          "type": "address"
        },
        {
          "indexed": true,
          "internalType": "address",
          "name": "newOwner",
          "type": "address"
        }
      ],
      "name": "OwnershipTransferred",
      "type": "event"
    },
    {
      "inputs": [
        {
          "internalType": "uint256",
          "name": "_poolTokens",
          "type": "uint256"
        },
        {
          "internalType": "contract IERC20",
          "name": "_token",
          "type": "address"
        },
        {
          "internalType": "uint256",
          "name": "_duration_pool",
          "type": "uint256"
        }
      ],
      "name": "initializePool",
      "outputs": [],
      "stateMutability": "nonpayable",
      "type": "function"
    },
    {
      "inputs": [],
      "name": "owner",
      "outputs": [
        {
          "internalType": "address",
          "name": "",
          "type": "address"
        }
      ],
      "stateMutability": "view",
      "type": "function"
    },
    {
      "inputs": [],
      "name": "renounceOwnership",
      "outputs": [],
      "stateMutability": "nonpayable",
      "type": "function"
    },
    {
      "inputs": [],
      "name": "tokenDistro",
      "outputs": [
        {
          "internalType": "contract TokenDistro",
          "name": "",
          "type": "address"
        }
      ],
      "stateMutability": "view",
      "type": "function"
    },
    {
      "inputs": [
        {
          "internalType": "address",
          "name": "newOwner",
          "type": "address"
        }
      ],
      "name": "transferOwnership",
      "outputs": [],
      "stateMutability": "nonpayable",
      "type": "function"
    }
  ],
  "bytecode": "0x608060405234801561001057600080fd5b50604051614ff6380380614ff683398101604081905261002f91610142565b600080546001600160a01b031916339081178255604051909182917f8be0079c531659141344cd1fd0a4f28419497f9722a3daafe3b4186f6b6457e0908290a35060405161007c90610135565b604051809103906000f080158015610098573d6000803e3d6000fd5b50600180546001600160a01b0319166001600160a01b0392831690811790915560405163213d30dd60e11b81526004810188905242602482015260448101879052606481018690526084810185905291831660a48301529063427a61ba9060c401600060405180830381600087803b15801561011357600080fd5b505af1158015610127573d6000803e3d6000fd5b50505050505050505061019b565b6127918061286583390190565b600080600080600060a08688031215610159578081fd5b855160208701516040880151606089015160808a0151939850919650945092506001600160a01b038116811461018d578182fd5b809150509295509295909350565b6126bb806101aa6000396000f3fe608060405234801561001057600080fd5b50600436106100675760003560e01c8063bc07467211610050578063bc074672146100b9578063ca8af4d4146100cc578063f2fde38b146100ec57610067565b8063715018a61461006c5780638da5cb5b14610076575b600080fd5b6100746100ff565b005b60005473ffffffffffffffffffffffffffffffffffffffff165b60405173ffffffffffffffffffffffffffffffffffffffff909116815260200160405180910390f35b6100746100c7366004610800565b6101f4565b6001546100909073ffffffffffffffffffffffffffffffffffffffff1681565b6100746100fa3660046107c5565b610607565b60005473ffffffffffffffffffffffffffffffffffffffff163314610185576040517f08c379a000000000000000000000000000000000000000000000000000000000815260206004820181905260248201527f4f776e61626c653a2063616c6c6572206973206e6f7420746865206f776e657260448201526064015b60405180910390fd5b6000805460405173ffffffffffffffffffffffffffffffffffffffff909116907f8be0079c531659141344cd1fd0a4f28419497f9722a3daafe3b4186f6b6457e0908390a3600080547fffffffffffffffffffffffff0000000000000000000000000000000000000000169055565b60005473ffffffffffffffffffffffffffffffffffffffff163314610275576040517f08c379a000000000000000000000000000000000000000000000000000000000815260206004820181905260248201527f4f776e61626c653a2063616c6c6572206973206e6f7420746865206f776e6572604482015260640161017c565b60015460405160009173ffffffffffffffffffffffffffffffffffffffff1690849084906102a2906107b8565b73ffffffffffffffffffffffffffffffffffffffff93841681529290911660208301526040820152606001604051809103906000f0801580156102e9573d6000803e3d6000fd5b50600154604080517ff0bd87cc000000000000000000000000000000000000000000000000000000008152905192935073ffffffffffffffffffffffffffffffffffffffff90911691632f2ff15d91839163f0bd87cc91600480820192602092909190829003018186803b15801561036057600080fd5b505afa158015610374573d6000803e3d6000fd5b505050506040513d601f19601f8201168201806040525081019061039891906107e8565b6040517fffffffff0000000000000000000000000000000000000000000000000000000060e084901b168152600481019190915273ffffffffffffffffffffffffffffffffffffffff84166024820152604401600060405180830381600087803b15801561040557600080fd5b505af1158015610419573d6000803e3d6000fd5b50506001546040517fbe76048800000000000000000000000000000000000000000000000000000000815273ffffffffffffffffffffffffffffffffffffffff858116600483015260248201899052909116925063be7604889150604401600060405180830381600087803b15801561049157600080fd5b505af11580156104a5573d6000803e3d6000fd5b50506040517f0d68b76100000000000000000000000000000000000000000000000000000000815230600482015273ffffffffffffffffffffffffffffffffffffffff84169250630d68b7619150602401600060405180830381600087803b15801561051057600080fd5b505af1158015610524573d6000803e3d6000fd5b50506040517f3c6b16ab0000000000000000000000000000000000000000000000000000000081526004810187905273ffffffffffffffffffffffffffffffffffffffff84169250633c6b16ab9150602401600060405180830381600087803b15801561059057600080fd5b505af11580156105a4573d6000803e3d6000fd5b50506040805173ffffffffffffffffffffffffffffffffffffffff8086168252871660208201529081018790527f3e576c516aed7bfaa059edc1ec8f0628a6b75a37c777be146867372226f0bfdd9250606001905060405180910390a150505050565b60005473ffffffffffffffffffffffffffffffffffffffff163314610688576040517f08c379a000000000000000000000000000000000000000000000000000000000815260206004820181905260248201527f4f776e61626c653a2063616c6c6572206973206e6f7420746865206f776e6572604482015260640161017c565b73ffffffffffffffffffffffffffffffffffffffff811661072b576040517f08c379a000000000000000000000000000000000000000000000000000000000815260206004820152602660248201527f4f776e61626c653a206e6577206f776e657220697320746865207a65726f206160448201527f6464726573730000000000000000000000000000000000000000000000000000606482015260840161017c565b6000805460405173ffffffffffffffffffffffffffffffffffffffff808516939216917f8be0079c531659141344cd1fd0a4f28419497f9722a3daafe3b4186f6b6457e091a3600080547fffffffffffffffffffffffff00000000000000000000000000000000000000001673ffffffffffffffffffffffffffffffffffffffff92909216919091179055565b611e298061085d83390190565b6000602082840312156107d6578081fd5b81356107e181610837565b9392505050565b6000602082840312156107f9578081fd5b5051919050565b600080600060608486031215610814578182fd5b83359250602084013561082681610837565b929592945050506040919091013590565b73ffffffffffffffffffffffffffffffffffffffff8116811461085957600080fd5b5056fe60e0604052600060045560006005553480156200001b57600080fd5b5060405162001e2938038062001e298339810160408190526200003e91620000b0565b6001600160601b0319606083901b16608052600280546001600160a01b0319163390811790915560405181906000907f8be0079c531659141344cd1fd0a4f28419497f9722a3daafe3b4186f6b6457e0908290a35060609290921b6001600160601b03191660a0525060c05262000110565b600080600060608486031215620000c5578283fd5b8351620000d281620000f7565b6020850151909350620000e581620000f7565b80925050604084015190509250925092565b6001600160a01b03811681146200010d57600080fd5b50565b60805160601c60a05160601c60c051611cb26200017760003960008181610207015281816107b401528181610810015261084b015260008181610365015261098f0152600081816103ae0152818161100a015281816113f901526114bf0152611cb26000f3fe608060405234801561001057600080fd5b50600436106101a25760003560e01c80637b0a47ee116100ee578063ca8af4d411610097578063e9fad8ee11610071578063e9fad8ee14610398578063ebe2b12b146103a0578063edc9af95146103a9578063f2fde38b146103d0576101a2565b8063ca8af4d414610360578063cd3daf9d14610387578063df136d651461038f576101a2565b80638da5cb5b116100c85780638da5cb5b14610326578063a694fc3a14610344578063c8f33c9114610357576101a2565b80637b0a47ee146102f557806380faa57d146102fe5780638b87634714610306576101a2565b80632e1a7d4d1161015057806370a082311161012a57806370a08231146102a4578063715018a6146102da57806371cc29e5146102e2576101a2565b80632e1a7d4d146102765780633c6b16ab146102895780633d18b9121461029c576101a2565b80630fb5a6b4116101815780630fb5a6b414610202578063101114cf1461022957806318160ddd1461026e576101a2565b80628cc262146101a75780630700037d146101cd5780630d68b761146101ed575b600080fd5b6101ba6101b5366004611945565b6103e3565b6040519081526020015b60405180910390f35b6101ba6101db366004611945565b60096020526000908152604090205481565b6102006101fb366004611945565b61047c565b005b6101ba7f000000000000000000000000000000000000000000000000000000000000000081565b6003546102499073ffffffffffffffffffffffffffffffffffffffff1681565b60405173ffffffffffffffffffffffffffffffffffffffff90911681526020016101c4565b6101ba610549565b610200610284366004611a36565b610550565b610200610297366004611a36565b610672565b6102006108a9565b6101ba6102b2366004611945565b73ffffffffffffffffffffffffffffffffffffffff1660009081526001602052604090205490565b610200610a21565b6102006102f0366004611a4e565b610b11565b6101ba60055481565b6101ba610c41565b6101ba610314366004611945565b60086020526000908152604090205481565b60025473ffffffffffffffffffffffffffffffffffffffff16610249565b610200610352366004611a36565b610c54565b6101ba60065481565b6102497f000000000000000000000000000000000000000000000000000000000000000081565b6101ba610d6e565b6101ba60075481565b610200610dbc565b6101ba60045481565b6102497f000000000000000000000000000000000000000000000000000000000000000081565b6102006103de366004611945565b610ddf565b73ffffffffffffffffffffffffffffffffffffffff81166000908152600960209081526040808320546008909252822054610476919061047090670de0b6b3a76400009061046a9061043d90610437610d6e565b90610f91565b73ffffffffffffffffffffffffffffffffffffffff88166000908152600160205260409020545b90610fa4565b90610fb0565b90610fbc565b92915050565b60025473ffffffffffffffffffffffffffffffffffffffff163314610502576040517f08c379a000000000000000000000000000000000000000000000000000000000815260206004820181905260248201527f4f776e61626c653a2063616c6c6572206973206e6f7420746865206f776e657260448201526064015b60405180910390fd5b600380547fffffffffffffffffffffffff00000000000000000000000000000000000000001673ffffffffffffffffffffffffffffffffffffffff92909216919091179055565b6000545b90565b33610559610d6e565b600755610564610c41565b60065573ffffffffffffffffffffffffffffffffffffffff8116156105c55761058c816103e3565b73ffffffffffffffffffffffffffffffffffffffff82166000908152600960209081526040808320939093556007546008909152919020555b6000821161062f576040517f08c379a000000000000000000000000000000000000000000000000000000000815260206004820152601160248201527f43616e6e6f74207769746864726177203000000000000000000000000000000060448201526064016104f9565b61063882610fc8565b60405182815233907f7084f5476618d8e60b11ef0d7d3f06914655adb8793e28ff7f018d4c76d505d5906020015b60405180910390a25050565b60035473ffffffffffffffffffffffffffffffffffffffff163373ffffffffffffffffffffffffffffffffffffffff161461072f576040517f08c379a000000000000000000000000000000000000000000000000000000000815260206004820152602160248201527f43616c6c6572206973206e6f742072657761726420646973747269627574696f60448201527f6e0000000000000000000000000000000000000000000000000000000000000060648201526084016104f9565b6000610739610d6e565b600755610744610c41565b60065573ffffffffffffffffffffffffffffffffffffffff8116156107a55761076c816103e3565b73ffffffffffffffffffffffffffffffffffffffff82166000908152600960209081526040808320939093556007546008909152919020555b60045442106107e0576107d8827f0000000000000000000000000000000000000000000000000000000000000000610fb0565b60055561083f565b6004546000906107f09042610f91565b9050600061080960055483610fa490919063ffffffff16565b90506108397f000000000000000000000000000000000000000000000000000000000000000061046a8684610fbc565b60055550505b42600681905561086f907f0000000000000000000000000000000000000000000000000000000000000000610fbc565b6004556040518281527fde88a922e0d3b88b24e9623efeb464919c6bf9f66857a65e2bfcf2ce87a9433d9060200160405180910390a15050565b336108b2610d6e565b6007556108bd610c41565b60065573ffffffffffffffffffffffffffffffffffffffff81161561091e576108e5816103e3565b73ffffffffffffffffffffffffffffffffffffffff82166000908152600960209081526040808320939093556007546008909152919020555b6000610929336103e3565b90508015610a1d573360008181526009602052604080822091909155517fb78b52df00000000000000000000000000000000000000000000000000000000815260048101919091526024810182905273ffffffffffffffffffffffffffffffffffffffff7f0000000000000000000000000000000000000000000000000000000000000000169063b78b52df90604401600060405180830381600087803b1580156109d357600080fd5b505af11580156109e7573d6000803e3d6000fd5b50506040518381523392507fe2403640ba68fed3a2f88b7557551d1993f84b99bb10ff833f0cf8db0c5e04869150602001610666565b5050565b60025473ffffffffffffffffffffffffffffffffffffffff163314610aa2576040517f08c379a000000000000000000000000000000000000000000000000000000000815260206004820181905260248201527f4f776e61626c653a2063616c6c6572206973206e6f7420746865206f776e657260448201526064016104f9565b60025460405160009173ffffffffffffffffffffffffffffffffffffffff16907f8be0079c531659141344cd1fd0a4f28419497f9722a3daafe3b4186f6b6457e0908390a3600280547fffffffffffffffffffffffff0000000000000000000000000000000000000000169055565b33610b1a610d6e565b600755610b25610c41565b60065573ffffffffffffffffffffffffffffffffffffffff811615610b8657610b4d816103e3565b73ffffffffffffffffffffffffffffffffffffffff82166000908152600960209081526040808320939093556007546008909152919020555b60008411610bf0576040517f08c379a000000000000000000000000000000000000000000000000000000000815260206004820152600e60248201527f43616e6e6f74207374616b65203000000000000000000000000000000000000060448201526064016104f9565b610bfb848484611049565b5050610c068461147d565b60405184815233907f9e71bc8eea02a63969f509818f2dafb9254532904319f9dbda79b67bd34a5f3d9060200160405180910390a250505050565b6000610c4f426004546114fc565b905090565b33610c5d610d6e565b600755610c68610c41565b60065573ffffffffffffffffffffffffffffffffffffffff811615610cc957610c90816103e3565b73ffffffffffffffffffffffffffffffffffffffff82166000908152600960209081526040808320939093556007546008909152919020555b60008211610d33576040517f08c379a000000000000000000000000000000000000000000000000000000000815260206004820152600e60248201527f43616e6e6f74207374616b65203000000000000000000000000000000000000060448201526064016104f9565b610d3c8261147d565b60405182815233907f9e71bc8eea02a63969f509818f2dafb9254532904319f9dbda79b67bd34a5f3d90602001610666565b6000610d78610549565b610d85575060075461054d565b610c4f610db3610d93610549565b61046a670de0b6b3a7640000610464600554610464600654610437610c41565b60075490610fbc565b33600090815260016020526040902054610dd590610284565b610ddd6108a9565b565b60025473ffffffffffffffffffffffffffffffffffffffff163314610e60576040517f08c379a000000000000000000000000000000000000000000000000000000000815260206004820181905260248201527f4f776e61626c653a2063616c6c6572206973206e6f7420746865206f776e657260448201526064016104f9565b73ffffffffffffffffffffffffffffffffffffffff8116610f03576040517f08c379a000000000000000000000000000000000000000000000000000000000815260206004820152602660248201527f4f776e61626c653a206e6577206f776e657220697320746865207a65726f206160448201527f646472657373000000000000000000000000000000000000000000000000000060648201526084016104f9565b60025460405173ffffffffffffffffffffffffffffffffffffffff8084169216907f8be0079c531659141344cd1fd0a4f28419497f9722a3daafe3b4186f6b6457e090600090a3600280547fffffffffffffffffffffffff00000000000000000000000000000000000000001673ffffffffffffffffffffffffffffffffffffffff92909216919091179055565b6000610f9d8284611be8565b9392505050565b6000610f9d8284611bab565b6000610f9d8284611b72565b6000610f9d8284611b5a565b600054610fd59082610f91565b600090815533815260016020526040902054610ff19082610f91565b33600081815260016020526040902091909155611046907f000000000000000000000000000000000000000000000000000000000000000073ffffffffffffffffffffffffffffffffffffffff169083611512565b50565b600060608161105a848601866119f6565b90507fffffffff0000000000000000000000000000000000000000000000000000000081167fd505accf000000000000000000000000000000000000000000000000000000001461112d576040517f08c379a000000000000000000000000000000000000000000000000000000000815260206004820152603060248201527f556e69706f6f6c546f6b656e4469737472696275746f723a3a5f7065726d697460448201527f3a204e4f545f56414c49445f43414c4c0000000000000000000000000000000060648201526084016104f9565b60008080808080806111428b6004818f611b32565b81019061114f9190611961565b96509650965096509650965096503373ffffffffffffffffffffffffffffffffffffffff168773ffffffffffffffffffffffffffffffffffffffff1614611218576040517f08c379a000000000000000000000000000000000000000000000000000000000815260206004820152603860248201527f556e69706f6f6c546f6b656e4469737472696275746f723a3a5f7065726d697460448201527f3a204f574e45525f4e4f545f455155414c5f53454e444552000000000000000060648201526084016104f9565b73ffffffffffffffffffffffffffffffffffffffff861630146112bd576040517f08c379a000000000000000000000000000000000000000000000000000000000815260206004820152603860248201527f556e69706f6f6c546f6b656e4469737472696275746f723a3a5f7065726d697460448201527f3a205350454e4445525f4e4f545f455155414c5f54484953000000000000000060648201526084016104f9565b8c851461134c576040517f08c379a000000000000000000000000000000000000000000000000000000000815260206004820152602e60248201527f556e69706f6f6c546f6b656e4469737472696275746f723a3a5f7065726d697460448201527f3a2057524f4e475f414d4f554e5400000000000000000000000000000000000060648201526084016104f9565b6040805173ffffffffffffffffffffffffffffffffffffffff89811660248301528881166044830152606482018890526084820187905260ff861660a483015260c4820185905260e48083018590528351808403909101815261010490920183526020820180517bffffffffffffffffffffffffffffffffffffffffffffffffffffffff167fd505accf0000000000000000000000000000000000000000000000000000000017905291517f0000000000000000000000000000000000000000000000000000000000000000909216916114269190611ac5565b6000604051808303816000865af19150503d8060008114611463576040519150601f19603f3d011682016040523d82523d6000602084013e611468565b606091505b50995099505050505050505050935093915050565b60005461148a9082610fbc565b6000908155338152600160205260409020546114a69082610fbc565b33600081815260016020526040902091909155611046907f000000000000000000000000000000000000000000000000000000000000000073ffffffffffffffffffffffffffffffffffffffff169030846115eb565b600081831061150b5781610f9d565b5090919050565b60405173ffffffffffffffffffffffffffffffffffffffff83166024820152604481018290526115e69084907fa9059cbb00000000000000000000000000000000000000000000000000000000906064015b604080517fffffffffffffffffffffffffffffffffffffffffffffffffffffffffffffffe08184030181529190526020810180517bffffffffffffffffffffffffffffffffffffffffffffffffffffffff167fffffffff000000000000000000000000000000000000000000000000000000009093169290921790915261164f565b505050565b60405173ffffffffffffffffffffffffffffffffffffffff808516602483015283166044820152606481018290526116499085907f23b872dd0000000000000000000000000000000000000000000000000000000090608401611564565b50505050565b60006116b1826040518060400160405280602081526020017f5361666545524332303a206c6f772d6c6576656c2063616c6c206661696c65648152508573ffffffffffffffffffffffffffffffffffffffff1661175b9092919063ffffffff16565b8051909150156115e657808060200190518101906116cf91906119d6565b6115e6576040517f08c379a000000000000000000000000000000000000000000000000000000000815260206004820152602a60248201527f5361666545524332303a204552433230206f7065726174696f6e20646964206e60448201527f6f7420737563636565640000000000000000000000000000000000000000000060648201526084016104f9565b606061176a8484600085611772565b949350505050565b606082471015611804576040517f08c379a000000000000000000000000000000000000000000000000000000000815260206004820152602660248201527f416464726573733a20696e73756666696369656e742062616c616e636520666f60448201527f722063616c6c000000000000000000000000000000000000000000000000000060648201526084016104f9565b843b61186c576040517f08c379a000000000000000000000000000000000000000000000000000000000815260206004820152601d60248201527f416464726573733a2063616c6c20746f206e6f6e2d636f6e747261637400000060448201526064016104f9565b6000808673ffffffffffffffffffffffffffffffffffffffff1685876040516118959190611ac5565b60006040518083038185875af1925050503d80600081146118d2576040519150601f19603f3d011682016040523d82523d6000602084013e6118d7565b606091505b50915091506118e78282866118f2565b979650505050505050565b60608315611901575081610f9d565b8251156119115782518084602001fd5b816040517f08c379a00000000000000000000000000000000000000000000000000000000081526004016104f99190611ae1565b600060208284031215611956578081fd5b8135610f9d81611c5a565b600080600080600080600060e0888a03121561197b578283fd5b873561198681611c5a565b9650602088013561199681611c5a565b95506040880135945060608801359350608088013560ff811681146119b9578384fd5b9699959850939692959460a0840135945060c09093013592915050565b6000602082840312156119e7578081fd5b81518015158114610f9d578182fd5b600060208284031215611a07578081fd5b81357fffffffff0000000000000000000000000000000000000000000000000000000081168114610f9d578182fd5b600060208284031215611a47578081fd5b5035919050565b600080600060408486031215611a62578283fd5b83359250602084013567ffffffffffffffff80821115611a80578384fd5b818601915086601f830112611a93578384fd5b813581811115611aa1578485fd5b876020828501011115611ab2578485fd5b6020830194508093505050509250925092565b60008251611ad7818460208701611bff565b9190910192915050565b6000602082528251806020840152611b00816040850160208701611bff565b601f017fffffffffffffffffffffffffffffffffffffffffffffffffffffffffffffffe0169190910160400192915050565b60008085851115611b41578182fd5b83861115611b4d578182fd5b5050820193919092039150565b60008219821115611b6d57611b6d611c2b565b500190565b600082611ba6577f4e487b710000000000000000000000000000000000000000000000000000000081526012600452602481fd5b500490565b6000817fffffffffffffffffffffffffffffffffffffffffffffffffffffffffffffffff0483118215151615611be357611be3611c2b565b500290565b600082821015611bfa57611bfa611c2b565b500390565b60005b83811015611c1a578181015183820152602001611c02565b838111156116495750506000910152565b7f4e487b7100000000000000000000000000000000000000000000000000000000600052601160045260246000fd5b73ffffffffffffffffffffffffffffffffffffffff8116811461104657600080fdfea2646970667358221220aa0e5ec1845839818b6ba59b992983dcce9875122c72e2905a9745c43093ca4e64736f6c63430008030033a264697066735822122004e6dfd0af16d20438723322e17e2e6ea8a223fcdffceb4a1079a049c8289e8964736f6c63430008030033608060405234801561001057600080fd5b50612771806100206000396000f3fe608060405234801561001057600080fd5b50600436106101b95760003560e01c806378e97925116100f9578063be76048811610097578063f0bd87cc11610071578063f0bd87cc146103d4578063fc0c546a146103fb578063fc1ed4371461041b578063fe64d6ff14610424576101b9565b8063be7604881461039b578063ca15c873146103ae578063d547741f146103c1576101b9565b806391d14854116100d357806391d14854146103275780639a78ea4a1461036d578063a217fddf14610380578063b78b52df14610388576101b9565b806378e97925146102dd5780637e1c0c09146102e65780639010d07c146102ef576101b9565b80632f2ff15d116101665780634e71d92d116101405780634e71d92d146102a65780635066c893146102ae5780636ab28bc8146102c15780636d8500db146102ca576101b9565b80632f2ff15d1461026b57806336568abe14610280578063427a61ba14610293576101b9565b8063188ec35611610197578063188ec35614610206578063248a9ca31461020c57806327e235e31461022f576101b9565b806301ffc9a7146101be5780630f1a6444146101e65780630fb5a6b4146101fd575b600080fd5b6101d16101cc36600461245b565b610437565b60405190151581526020015b60405180910390f35b6101ef60cc5481565b6040519081526020016101dd565b6101ef60cd5481565b426101ef565b6101ef61021a3660046123f3565b60009081526065602052604090206001015490565b61025661023d36600461238c565b60c9602052600090815260409020805460019091015482565b604080519283526020830191909152016101dd565b61027e61027936600461240b565b610495565b005b61027e61028e36600461240b565b6104bc565b61027e6102a136600461249b565b6104de565b61027e6107c8565b6101ef6102bc3660046123a8565b610a2c565b6101ef60cf5481565b6101ef6102d83660046123f3565b610b8a565b6101ef60cb5481565b6101ef60ca5481565b6103026102fd36600461243a565b610c12565b60405173ffffffffffffffffffffffffffffffffffffffff90911681526020016101dd565b6101d161033536600461240b565b600091825260656020908152604080842073ffffffffffffffffffffffffffffffffffffffff93909316845291905290205460ff1690565b6101ef61037b36600461238c565b610c2a565b6101ef600081565b61027e6103963660046123a8565b610c36565b61027e6103a93660046123a8565b610fbc565b6101ef6103bc3660046123f3565b611229565b61027e6103cf36600461240b565b611240565b6101ef7ffbd454f36a7e1a388bd6fc3ab10d434aa4578f811acbbcf33afb1c697486313c81565b60d0546103029073ffffffffffffffffffffffffffffffffffffffff1681565b6101ef60ce5481565b61027e61043236600461238c565b61124a565b60007fffffffff0000000000000000000000000000000000000000000000000000000082167f5a05180f00000000000000000000000000000000000000000000000000000000148061048d575061048d826115ea565b90505b919050565b61049f8282611681565b60008281526097602052604090206104b790826116a8565b505050565b6104c682826116ca565b60008281526097602052604090206104b7908261177d565b600054610100900460ff16806104f7575060005460ff16155b610588576040517f08c379a000000000000000000000000000000000000000000000000000000000815260206004820152602e60248201527f496e697469616c697a61626c653a20636f6e747261637420697320616c72656160448201527f647920696e697469616c697a656400000000000000000000000000000000000060648201526084015b60405180910390fd5b600054610100900460ff161580156105c757600080547fffffffffffffffffffffffffffffffffffffffffffffffffffffffffffff0000166101011790555b84841015610657576040517f08c379a000000000000000000000000000000000000000000000000000000000815260206004820152603260248201527f546f6b656e44697374726f3a3a636f6e7374727563746f723a2044555241544960448201527f4f4e5f4c4553535f5448414e5f434c4946460000000000000000000000000000606482015260840161057f565b6127108311156106e9576040517f08c379a000000000000000000000000000000000000000000000000000000000815260206004820152603c60248201527f546f6b656e44697374726f3a3a636f6e7374727563746f723a20494e4954494160448201527f4c50455243454e544147455f475245415445525f5448414e5f31303000000000606482015260840161057f565b6106f460003361179f565b6000612710610703858a61262e565b61070d91906125f5565b60d080547fffffffffffffffffffffffff00000000000000000000000000000000000000001673ffffffffffffffffffffffffffffffffffffffff861617905560cd86905560cb88905560ca89905560ce819055905061076d86886125dd565b60cc5561077a818961266b565b60cf555030600090815260c96020526040902087905580156107bf57600080547fffffffffffffffffffffffffffffffffffffffffffffffffffffffffffff00ff1690555b50505050505050565b6107d26000611229565b1561085f576040517f08c379a000000000000000000000000000000000000000000000000000000000815260206004820152603560248201527f546f6b656e44697374726f3a3a6973496e697469616c697a65643a204445464160448201527f554c545f41444d494e5f524f4c455f4558495354530000000000000000000000606482015260840161057f565b30600090815260c96020526040902054156108fc576040517f08c379a000000000000000000000000000000000000000000000000000000000815260206004820152603560248201527f546f6b656e44697374726f3a3a6973496e697469616c697a65643a20544f4b4560448201527f4e535f50454e44494e475f414c4c4f434154494f4e0000000000000000000000606482015260840161057f565b600061090833426102bc565b90506000811161099a576040517f08c379a000000000000000000000000000000000000000000000000000000000815260206004820152602f60248201527f546f6b656e44697374726f3a3a636c61696d3a204e4f545f454e4f554754485f60448201527f544f4b454e535f544f5f434c41494d0000000000000000000000000000000000606482015260840161057f565b33600090815260c960205260409020600101546109b89082906125dd565b33600081815260c9602052604090206001019190915560d0546109f49173ffffffffffffffffffffffffffffffffffffffff90911690836117a9565b60405181815233907f47cee97cb7acd717b3c0aa1435d004cd5b3c8c57d70dbceb4e4458bbd60e39d49060200160405180910390a250565b73ffffffffffffffffffffffffffffffffffffffff821660009081527fc30845577a48a4875916abdf69c952cec0f19aac3292d053136a35224608de0b602052604081205460ff1615610b01576040517f08c379a000000000000000000000000000000000000000000000000000000000815260206004820152603760248201527f546f6b656e44697374726f3a3a636c61696d61626c6541743a2044495354524960448201527f4255544f525f524f4c455f43414e4e4f545f434c41494d000000000000000000606482015260840161057f565b60ca5473ffffffffffffffffffffffffffffffffffffffff8416600090815260c96020526040812054909190610b3685610b8a565b610b40919061262e565b610b4a91906125f5565b73ffffffffffffffffffffffffffffffffffffffff8516600090815260c96020526040902060010154909150610b80908261266b565b9150505b92915050565b600060cb54821015610b9e57506000610490565b60cc54821015610bb1575060ce54610490565b60cd5460cb54610bc191906125dd565b821115610bd1575060ca54610490565b600060cb5483610be1919061266b565b905060cd5460cf5482610bf4919061262e565b610bfe91906125f5565b60ce54610c0b91906125dd565b9392505050565b6000828152609760205260408120610c0b9083611836565b600061048d82426102bc565b610c406000611229565b15610ccd576040517f08c379a000000000000000000000000000000000000000000000000000000000815260206004820152603560248201527f546f6b656e44697374726f3a3a6973496e697469616c697a65643a204445464160448201527f554c545f41444d494e5f524f4c455f4558495354530000000000000000000000606482015260840161057f565b30600090815260c9602052604090205415610d6a576040517f08c379a000000000000000000000000000000000000000000000000000000000815260206004820152603560248201527f546f6b656e44697374726f3a3a6973496e697469616c697a65643a20544f4b4560448201527f4e535f50454e44494e475f414c4c4f434154494f4e0000000000000000000000606482015260840161057f565b3360009081527fc30845577a48a4875916abdf69c952cec0f19aac3292d053136a35224608de0b602052604090205460ff16610e28576040517f08c379a000000000000000000000000000000000000000000000000000000000815260206004820152602c60248201527f546f6b656e44697374726f3a3a616c6c6f636174653a204f4e4c595f4449535460448201527f52494255544f525f524f4c450000000000000000000000000000000000000000606482015260840161057f565b73ffffffffffffffffffffffffffffffffffffffff821660009081527fc30845577a48a4875916abdf69c952cec0f19aac3292d053136a35224608de0b602052604090205460ff1615610efd576040517f08c379a000000000000000000000000000000000000000000000000000000000815260206004820152603660248201527f546f6b656e44697374726f3a3a616c6c6f636174653a2044495354524942555460448201527f4f525f4e4f545f56414c49445f524543495049454e5400000000000000000000606482015260840161057f565b33600090815260c96020526040902054610f1890829061266b565b33600090815260c960205260408082209290925573ffffffffffffffffffffffffffffffffffffffff841681522054610f529082906125dd565b73ffffffffffffffffffffffffffffffffffffffff8316600081815260c960205260409081902092909255905133907f5168bfb88d6125d4580e2b91ecb103a730312c3e8b0be9c4031a0fc794e2cd5f90610fb09085815260200190565b60405180910390a35050565b3360009081527fffdfc1249c027f9191656349feb0761381bb32c9f557e01f419fd08754bf5a1b602052604090205460ff16611079576040517f08c379a0000000000000000000000000000000000000000000000000000000008152602060048201526024808201527f546f6b656e44697374726f3a3a61737369676e3a204f4e4c595f41444d494e5f60448201527f524f4c4500000000000000000000000000000000000000000000000000000000606482015260840161057f565b73ffffffffffffffffffffffffffffffffffffffff821660009081527fc30845577a48a4875916abdf69c952cec0f19aac3292d053136a35224608de0b602052604090205460ff1661114d576040517f08c379a000000000000000000000000000000000000000000000000000000000815260206004820152602d60248201527f546f6b656e44697374726f3a3a61737369676e3a204f4e4c595f544f5f44495360448201527f5452494255544f525f524f4c4500000000000000000000000000000000000000606482015260840161057f565b30600090815260c9602052604090205461116890829061266b565b30600090815260c960205260408082209290925573ffffffffffffffffffffffffffffffffffffffff8416815220546111a29082906125dd565b73ffffffffffffffffffffffffffffffffffffffff8316600090815260c960205260408082209290925530815220546111e0576111e06000336104bc565b60405181815273ffffffffffffffffffffffffffffffffffffffff83169033907e7ae6a979e5d8177867f7c1ca4be1527487a2e43a444b55c3dfaee02c42354490602001610fb0565b600081815260976020526040812061048d90611842565b6104c6828261184c565b6112546000611229565b156112e1576040517f08c379a000000000000000000000000000000000000000000000000000000000815260206004820152603560248201527f546f6b656e44697374726f3a3a6973496e697469616c697a65643a204445464160448201527f554c545f41444d494e5f524f4c455f4558495354530000000000000000000000606482015260840161057f565b30600090815260c960205260409020541561137e576040517f08c379a000000000000000000000000000000000000000000000000000000000815260206004820152603560248201527f546f6b656e44697374726f3a3a6973496e697469616c697a65643a20544f4b4560448201527f4e535f50454e44494e475f414c4c4f434154494f4e0000000000000000000000606482015260840161057f565b73ffffffffffffffffffffffffffffffffffffffff8116600090815260c960205260409020541580156113d7575073ffffffffffffffffffffffffffffffffffffffff8116600090815260c96020526040902060010154155b611463576040517f08c379a000000000000000000000000000000000000000000000000000000000815260206004820152603260248201527f546f6b656e44697374726f3a3a6368616e6765416464726573733a204144445260448201527f4553535f414c52454144595f494e5f5553450000000000000000000000000000606482015260840161057f565b3360009081527fc30845577a48a4875916abdf69c952cec0f19aac3292d053136a35224608de0b602052604090205460ff161580156114e7575073ffffffffffffffffffffffffffffffffffffffff811660009081527fc30845577a48a4875916abdf69c952cec0f19aac3292d053136a35224608de0b602052604090205460ff16155b61157557604080517f08c379a00000000000000000000000000000000000000000000000000000000081526020600482015260248101919091527f546f6b656e44697374726f3a3a6368616e6765416464726573733a204449535460448201527f52494255544f525f524f4c455f4e4f545f415f56414c49445f41444452455353606482015260840161057f565b33600081815260c96020526040808220805473ffffffffffffffffffffffffffffffffffffffff861680855283852091825584835560019283018054939092019290925584845283905590519092917f8839b4e99cbac9b99de60313e9f1679f46d6837a692b8c052bf0bd6cacb19c7991a350565b60007fffffffff0000000000000000000000000000000000000000000000000000000082167f7965db0b00000000000000000000000000000000000000000000000000000000148061048d57507f01ffc9a7000000000000000000000000000000000000000000000000000000007fffffffff0000000000000000000000000000000000000000000000000000000083161461048d565b60008281526065602052604090206001015461169e81335b611872565b6104b78383611944565b6000610c0b8373ffffffffffffffffffffffffffffffffffffffff8416611a38565b73ffffffffffffffffffffffffffffffffffffffff8116331461176f576040517f08c379a000000000000000000000000000000000000000000000000000000000815260206004820152602f60248201527f416363657373436f6e74726f6c3a2063616e206f6e6c792072656e6f756e636560448201527f20726f6c657320666f722073656c660000000000000000000000000000000000606482015260840161057f565b6117798282611a87565b5050565b6000610c0b8373ffffffffffffffffffffffffffffffffffffffff8416611b42565b61049f8282611ca4565b6040805173ffffffffffffffffffffffffffffffffffffffff8416602482015260448082018490528251808303909101815260649091019091526020810180517bffffffffffffffffffffffffffffffffffffffffffffffffffffffff167fa9059cbb000000000000000000000000000000000000000000000000000000001790526104b7908490611cae565b6000610c0b8383611dba565b600061048d825490565b6000828152606560205260409020600101546118688133611699565b6104b78383611a87565b600082815260656020908152604080832073ffffffffffffffffffffffffffffffffffffffff8516845290915290205460ff16611779576118ca8173ffffffffffffffffffffffffffffffffffffffff166014611e9c565b6118d5836020611e9c565b6040516020016118e692919061250b565b604080517fffffffffffffffffffffffffffffffffffffffffffffffffffffffffffffffe0818403018152908290527f08c379a000000000000000000000000000000000000000000000000000000000825261057f9160040161258c565b600082815260656020908152604080832073ffffffffffffffffffffffffffffffffffffffff8516845290915290205460ff1661177957600082815260656020908152604080832073ffffffffffffffffffffffffffffffffffffffff85168452909152902080547fffffffffffffffffffffffffffffffffffffffffffffffffffffffffffffff001660011790556119da3390565b73ffffffffffffffffffffffffffffffffffffffff168173ffffffffffffffffffffffffffffffffffffffff16837f2f8788117e7eff1d82e926ec794901d17c78024a50270940304540a733656f0d60405160405180910390a45050565b6000818152600183016020526040812054611a7f57508154600181810184556000848152602080822090930184905584548482528286019093526040902091909155610b84565b506000610b84565b600082815260656020908152604080832073ffffffffffffffffffffffffffffffffffffffff8516845290915290205460ff161561177957600082815260656020908152604080832073ffffffffffffffffffffffffffffffffffffffff8516808552925280832080547fffffffffffffffffffffffffffffffffffffffffffffffffffffffffffffff0016905551339285917ff6391f5c32d9c69d2a47ea670b442974b53935d1edc7fd64eb21e047a839171b9190a45050565b60008181526001830160205260408120548015611c9a576000611b6660018361266b565b8554909150600090611b7a9060019061266b565b90506000866000018281548110611bba577f4e487b7100000000000000000000000000000000000000000000000000000000600052603260045260246000fd5b9060005260206000200154905080876000018481548110611c04577f4e487b7100000000000000000000000000000000000000000000000000000000600052603260045260246000fd5b600091825260208083209091019290925582815260018901909152604090208490558654879080611c5e577f4e487b7100000000000000000000000000000000000000000000000000000000600052603160045260246000fd5b60019003818190600052602060002001600090559055866001016000878152602001908152602001600020600090556001945050505050610b84565b6000915050610b84565b6117798282611944565b6000611d10826040518060400160405280602081526020017f5361666545524332303a206c6f772d6c6576656c2063616c6c206661696c65648152508573ffffffffffffffffffffffffffffffffffffffff166121a29092919063ffffffff16565b8051909150156104b75780806020019051810190611d2e91906123d3565b6104b7576040517f08c379a000000000000000000000000000000000000000000000000000000000815260206004820152602a60248201527f5361666545524332303a204552433230206f7065726174696f6e20646964206e60448201527f6f74207375636365656400000000000000000000000000000000000000000000606482015260840161057f565b81546000908210611e4d576040517f08c379a000000000000000000000000000000000000000000000000000000000815260206004820152602260248201527f456e756d657261626c655365743a20696e646578206f7574206f6620626f756e60448201527f6473000000000000000000000000000000000000000000000000000000000000606482015260840161057f565b826000018281548110611e89577f4e487b7100000000000000000000000000000000000000000000000000000000600052603260045260246000fd5b9060005260206000200154905092915050565b60606000611eab83600261262e565b611eb69060026125dd565b67ffffffffffffffff811115611ef5577f4e487b7100000000000000000000000000000000000000000000000000000000600052604160045260246000fd5b6040519080825280601f01601f191660200182016040528015611f1f576020820181803683370190505b5090507f300000000000000000000000000000000000000000000000000000000000000081600081518110611f7d577f4e487b7100000000000000000000000000000000000000000000000000000000600052603260045260246000fd5b60200101907effffffffffffffffffffffffffffffffffffffffffffffffffffffffffffff1916908160001a9053507f780000000000000000000000000000000000000000000000000000000000000081600181518110612007577f4e487b7100000000000000000000000000000000000000000000000000000000600052603260045260246000fd5b60200101907effffffffffffffffffffffffffffffffffffffffffffffffffffffffffffff1916908160001a905350600061204384600261262e565b61204e9060016125dd565b90505b6001811115612139577f303132333435363738396162636465660000000000000000000000000000000085600f16601081106120b6577f4e487b7100000000000000000000000000000000000000000000000000000000600052603260045260246000fd5b1a60f81b8282815181106120f3577f4e487b7100000000000000000000000000000000000000000000000000000000600052603260045260246000fd5b60200101907effffffffffffffffffffffffffffffffffffffffffffffffffffffffffffff1916908160001a90535060049490941c93612132816126b2565b9050612051565b508315610c0b576040517f08c379a000000000000000000000000000000000000000000000000000000000815260206004820181905260248201527f537472696e67733a20686578206c656e67746820696e73756666696369656e74604482015260640161057f565b60606121b184846000856121b9565b949350505050565b60608247101561224b576040517f08c379a000000000000000000000000000000000000000000000000000000000815260206004820152602660248201527f416464726573733a20696e73756666696369656e742062616c616e636520666f60448201527f722063616c6c0000000000000000000000000000000000000000000000000000606482015260840161057f565b843b6122b3576040517f08c379a000000000000000000000000000000000000000000000000000000000815260206004820152601d60248201527f416464726573733a2063616c6c20746f206e6f6e2d636f6e7472616374000000604482015260640161057f565b6000808673ffffffffffffffffffffffffffffffffffffffff1685876040516122dc91906124ef565b60006040518083038185875af1925050503d8060008114612319576040519150601f19603f3d011682016040523d82523d6000602084013e61231e565b606091505b509150915061232e828286612339565b979650505050505050565b60608315612348575081610c0b565b8251156123585782518084602001fd5b816040517f08c379a000000000000000000000000000000000000000000000000000000000815260040161057f919061258c565b60006020828403121561239d578081fd5b8135610c0b81612716565b600080604083850312156123ba578081fd5b82356123c581612716565b946020939093013593505050565b6000602082840312156123e4578081fd5b81518015158114610c0b578182fd5b600060208284031215612404578081fd5b5035919050565b6000806040838503121561241d578182fd5b82359150602083013561242f81612716565b809150509250929050565b6000806040838503121561244c578182fd5b50508035926020909101359150565b60006020828403121561246c578081fd5b81357fffffffff0000000000000000000000000000000000000000000000000000000081168114610c0b578182fd5b60008060008060008060c087890312156124b3578182fd5b863595506020870135945060408701359350606087013592506080870135915060a08701356124e181612716565b809150509295509295509295565b60008251612501818460208701612682565b9190910192915050565b60007f416363657373436f6e74726f6c3a206163636f756e742000000000000000000082528351612543816017850160208801612682565b7f206973206d697373696e6720726f6c65200000000000000000000000000000006017918401918201528351612580816028840160208801612682565b01602801949350505050565b60006020825282518060208401526125ab816040850160208701612682565b601f017fffffffffffffffffffffffffffffffffffffffffffffffffffffffffffffffe0169190910160400192915050565b600082198211156125f0576125f06126e7565b500190565b600082612629577f4e487b710000000000000000000000000000000000000000000000000000000081526012600452602481fd5b500490565b6000817fffffffffffffffffffffffffffffffffffffffffffffffffffffffffffffffff0483118215151615612666576126666126e7565b500290565b60008282101561267d5761267d6126e7565b500390565b60005b8381101561269d578181015183820152602001612685565b838111156126ac576000848401525b50505050565b6000816126c1576126c16126e7565b507fffffffffffffffffffffffffffffffffffffffffffffffffffffffffffffffff0190565b7f4e487b7100000000000000000000000000000000000000000000000000000000600052601160045260246000fd5b73ffffffffffffffffffffffffffffffffffffffff8116811461273857600080fd5b5056fea264697066735822122051563d83da72602089583aa4ebb768658fc4c2b9a33fbc1f0176f0e5646e8d4464736f6c63430008030033",
  "linkReferences": {},
  "deployedLinkReferences": {}
}