{
  "_format": "hh-sol-artifact-1",
  "contractName": "TokenDistro",
  "sourceName": "contracts/TokenDistro/TokenDistro.sol",
  "abi": [
    {
      "anonymous": false,
      "inputs": [
        {
          "indexed": true,
          "internalType": "address",
          "name": "distributor",
          "type": "address"
        },
        {
          "indexed": true,
          "internalType": "address",
          "name": "grantee",
          "type": "address"
        },
        {
          "indexed": false,
          "internalType": "uint256",
          "name": "amount",
          "type": "uint256"
        }
      ],
      "name": "Allocate",
      "type": "event"
    },
    {
      "anonymous": false,
      "inputs": [
        {
          "indexed": true,
          "internalType": "address",
          "name": "admin",
          "type": "address"
        },
        {
          "indexed": true,
          "internalType": "address",
          "name": "distributor",
          "type": "address"
        },
        {
          "indexed": false,
          "internalType": "uint256",
          "name": "amount",
          "type": "uint256"
        }
      ],
      "name": "Assign",
      "type": "event"
    },
    {
      "anonymous": false,
      "inputs": [
        {
          "indexed": true,
          "internalType": "address",
          "name": "oldAddress",
          "type": "address"
        },
        {
          "indexed": true,
          "internalType": "address",
          "name": "newAddress",
          "type": "address"
        }
      ],
      "name": "ChangeAddress",
      "type": "event"
    },
    {
      "anonymous": false,
      "inputs": [
        {
          "indexed": true,
          "internalType": "address",
          "name": "grantee",
          "type": "address"
        },
        {
          "indexed": false,
          "internalType": "uint256",
          "name": "amount",
          "type": "uint256"
        }
      ],
      "name": "Claim",
      "type": "event"
    },
    {
      "anonymous": false,
      "inputs": [
        {
          "indexed": true,
          "internalType": "bytes32",
          "name": "role",
          "type": "bytes32"
        },
        {
          "indexed": true,
          "internalType": "bytes32",
          "name": "previousAdminRole",
          "type": "bytes32"
        },
        {
          "indexed": true,
          "internalType": "bytes32",
          "name": "newAdminRole",
          "type": "bytes32"
        }
      ],
      "name": "RoleAdminChanged",
      "type": "event"
    },
    {
      "anonymous": false,
      "inputs": [
        {
          "indexed": true,
          "internalType": "bytes32",
          "name": "role",
          "type": "bytes32"
        },
        {
          "indexed": true,
          "internalType": "address",
          "name": "account",
          "type": "address"
        },
        {
          "indexed": true,
          "internalType": "address",
          "name": "sender",
          "type": "address"
        }
      ],
      "name": "RoleGranted",
      "type": "event"
    },
    {
      "anonymous": false,
      "inputs": [
        {
          "indexed": true,
          "internalType": "bytes32",
          "name": "role",
          "type": "bytes32"
        },
        {
          "indexed": true,
          "internalType": "address",
          "name": "account",
          "type": "address"
        },
        {
          "indexed": true,
          "internalType": "address",
          "name": "sender",
          "type": "address"
        }
      ],
      "name": "RoleRevoked",
      "type": "event"
    },
    {
      "anonymous": false,
      "inputs": [
        {
          "indexed": false,
          "internalType": "uint256",
          "name": "newStartTime",
          "type": "uint256"
        },
        {
          "indexed": false,
          "internalType": "uint256",
          "name": "newCliffTime",
          "type": "uint256"
        }
      ],
      "name": "StartTimeChanged",
      "type": "event"
    },
    {
      "inputs": [],
      "name": "DEFAULT_ADMIN_ROLE",
      "outputs": [
        {
          "internalType": "bytes32",
          "name": "",
          "type": "bytes32"
        }
      ],
      "stateMutability": "view",
      "type": "function"
    },
    {
      "inputs": [],
      "name": "DISTRIBUTOR_ROLE",
      "outputs": [
        {
          "internalType": "bytes32",
          "name": "",
          "type": "bytes32"
        }
      ],
      "stateMutability": "view",
      "type": "function"
    },
    {
      "inputs": [
        {
          "internalType": "address",
          "name": "recipient",
          "type": "address"
        },
        {
          "internalType": "uint256",
          "name": "amount",
          "type": "uint256"
        }
      ],
      "name": "allocate",
      "outputs": [],
      "stateMutability": "nonpayable",
      "type": "function"
    },
    {
      "inputs": [
        {
          "internalType": "address",
          "name": "distributor",
          "type": "address"
        },
        {
          "internalType": "uint256",
          "name": "amount",
          "type": "uint256"
        }
      ],
      "name": "assign",
      "outputs": [],
      "stateMutability": "nonpayable",
      "type": "function"
    },
    {
      "inputs": [
        {
          "internalType": "address",
          "name": "",
          "type": "address"
        }
      ],
      "name": "balances",
      "outputs": [
        {
          "internalType": "uint256",
          "name": "allocatedTokens",
          "type": "uint256"
        },
        {
          "internalType": "uint256",
          "name": "claimed",
          "type": "uint256"
        }
      ],
      "stateMutability": "view",
      "type": "function"
    },
    {
      "inputs": [
        {
          "internalType": "address",
          "name": "prevRecipient",
          "type": "address"
        },
        {
          "internalType": "address",
          "name": "newRecipient",
          "type": "address"
        }
      ],
      "name": "cancelAllocation",
      "outputs": [],
      "stateMutability": "nonpayable",
      "type": "function"
    },
    {
      "inputs": [],
      "name": "cancelable",
      "outputs": [
        {
          "internalType": "bool",
          "name": "",
          "type": "bool"
        }
      ],
      "stateMutability": "view",
      "type": "function"
    },
    {
      "inputs": [
        {
          "internalType": "address",
          "name": "newAddress",
          "type": "address"
        }
      ],
      "name": "changeAddress",
      "outputs": [],
      "stateMutability": "nonpayable",
      "type": "function"
    },
    {
      "inputs": [],
      "name": "claim",
      "outputs": [],
      "stateMutability": "nonpayable",
      "type": "function"
    },
    {
      "inputs": [
        {
          "internalType": "address",
          "name": "recipient",
          "type": "address"
        },
        {
          "internalType": "uint256",
          "name": "timestamp",
          "type": "uint256"
        }
      ],
      "name": "claimableAt",
      "outputs": [
        {
          "internalType": "uint256",
          "name": "",
          "type": "uint256"
        }
      ],
      "stateMutability": "view",
      "type": "function"
    },
    {
      "inputs": [
        {
          "internalType": "address",
          "name": "recipient",
          "type": "address"
        }
      ],
      "name": "claimableNow",
      "outputs": [
        {
          "internalType": "uint256",
          "name": "",
          "type": "uint256"
        }
      ],
      "stateMutability": "view",
      "type": "function"
    },
    {
      "inputs": [],
      "name": "cliffTime",
      "outputs": [
        {
          "internalType": "uint256",
          "name": "",
          "type": "uint256"
        }
      ],
      "stateMutability": "view",
      "type": "function"
    },
    {
      "inputs": [],
      "name": "duration",
      "outputs": [
        {
          "internalType": "uint256",
          "name": "",
          "type": "uint256"
        }
      ],
      "stateMutability": "view",
      "type": "function"
    },
    {
      "inputs": [
        {
          "internalType": "bytes32",
          "name": "role",
          "type": "bytes32"
        }
      ],
      "name": "getRoleAdmin",
      "outputs": [
        {
          "internalType": "bytes32",
          "name": "",
          "type": "bytes32"
        }
      ],
      "stateMutability": "view",
      "type": "function"
    },
    {
      "inputs": [
        {
          "internalType": "bytes32",
          "name": "role",
          "type": "bytes32"
        },
        {
          "internalType": "uint256",
          "name": "index",
          "type": "uint256"
        }
      ],
      "name": "getRoleMember",
      "outputs": [
        {
          "internalType": "address",
          "name": "",
          "type": "address"
        }
      ],
      "stateMutability": "view",
      "type": "function"
    },
    {
      "inputs": [
        {
          "internalType": "bytes32",
          "name": "role",
          "type": "bytes32"
        }
      ],
      "name": "getRoleMemberCount",
      "outputs": [
        {
          "internalType": "uint256",
          "name": "",
          "type": "uint256"
        }
      ],
      "stateMutability": "view",
      "type": "function"
    },
    {
      "inputs": [],
      "name": "getTimestamp",
      "outputs": [
        {
          "internalType": "uint256",
          "name": "",
          "type": "uint256"
        }
      ],
      "stateMutability": "view",
      "type": "function"
    },
    {
      "inputs": [
        {
          "internalType": "uint256",
          "name": "timestamp",
          "type": "uint256"
        }
      ],
      "name": "globallyClaimableAt",
      "outputs": [
        {
          "internalType": "uint256",
          "name": "",
          "type": "uint256"
        }
      ],
      "stateMutability": "view",
      "type": "function"
    },
    {
      "inputs": [
        {
          "internalType": "bytes32",
          "name": "role",
          "type": "bytes32"
        },
        {
          "internalType": "address",
          "name": "account",
          "type": "address"
        }
      ],
      "name": "grantRole",
      "outputs": [],
      "stateMutability": "nonpayable",
      "type": "function"
    },
    {
      "inputs": [
        {
          "internalType": "bytes32",
          "name": "role",
          "type": "bytes32"
        },
        {
          "internalType": "address",
          "name": "account",
          "type": "address"
        }
      ],
      "name": "hasRole",
      "outputs": [
        {
          "internalType": "bool",
          "name": "",
          "type": "bool"
        }
      ],
      "stateMutability": "view",
      "type": "function"
    },
    {
      "inputs": [],
      "name": "initialAmount",
      "outputs": [
        {
          "internalType": "uint256",
          "name": "",
          "type": "uint256"
        }
      ],
      "stateMutability": "view",
      "type": "function"
    },
    {
      "inputs": [
        {
          "internalType": "uint256",
          "name": "_totalTokens",
          "type": "uint256"
        },
        {
          "internalType": "uint256",
          "name": "_startTime",
          "type": "uint256"
        },
        {
          "internalType": "uint256",
          "name": "_cliffPeriod",
          "type": "uint256"
        },
        {
          "internalType": "uint256",
          "name": "_duration",
          "type": "uint256"
        },
        {
          "internalType": "uint256",
          "name": "_initialPercentage",
          "type": "uint256"
        },
        {
          "internalType": "contract IERC20Upgradeable",
          "name": "_token",
          "type": "address"
        },
        {
          "internalType": "bool",
          "name": "_cancelable",
          "type": "bool"
        }
      ],
      "name": "initialize",
      "outputs": [],
      "stateMutability": "nonpayable",
      "type": "function"
    },
    {
      "inputs": [],
      "name": "lockedAmount",
      "outputs": [
        {
          "internalType": "uint256",
          "name": "",
          "type": "uint256"
        }
      ],
      "stateMutability": "view",
      "type": "function"
    },
    {
      "inputs": [
        {
          "internalType": "bytes32",
          "name": "role",
          "type": "bytes32"
        },
        {
          "internalType": "address",
          "name": "account",
          "type": "address"
        }
      ],
      "name": "renounceRole",
      "outputs": [],
      "stateMutability": "nonpayable",
      "type": "function"
    },
    {
      "inputs": [
        {
          "internalType": "bytes32",
          "name": "role",
          "type": "bytes32"
        },
        {
          "internalType": "address",
          "name": "account",
          "type": "address"
        }
      ],
      "name": "revokeRole",
      "outputs": [],
      "stateMutability": "nonpayable",
      "type": "function"
    },
    {
      "inputs": [
        {
          "internalType": "uint256",
          "name": "newStartTime",
          "type": "uint256"
        }
      ],
      "name": "setStartTime",
      "outputs": [],
      "stateMutability": "nonpayable",
      "type": "function"
    },
    {
      "inputs": [],
      "name": "startTime",
      "outputs": [
        {
          "internalType": "uint256",
          "name": "",
          "type": "uint256"
        }
      ],
      "stateMutability": "view",
      "type": "function"
    },
    {
      "inputs": [
        {
          "internalType": "bytes4",
          "name": "interfaceId",
          "type": "bytes4"
        }
      ],
      "name": "supportsInterface",
      "outputs": [
        {
          "internalType": "bool",
          "name": "",
          "type": "bool"
        }
      ],
      "stateMutability": "view",
      "type": "function"
    },
    {
      "inputs": [],
      "name": "token",
      "outputs": [
        {
          "internalType": "contract IERC20Upgradeable",
          "name": "",
          "type": "address"
        }
      ],
      "stateMutability": "view",
      "type": "function"
    },
    {
      "inputs": [],
      "name": "totalTokens",
      "outputs": [
        {
          "internalType": "uint256",
          "name": "",
          "type": "uint256"
        }
      ],
      "stateMutability": "view",
      "type": "function"
    }
  ],
  "bytecode": "0x608060405234801561001057600080fd5b50612c84806100206000396000f3fe608060405234801561001057600080fd5b50600436106101da5760003560e01c80637e1c0c0911610104578063c7aaa8d4116100a2578063f0bd87cc11610071578063f0bd87cc14610440578063fc0c546a14610467578063fc1ed43714610487578063fe64d6ff1461049057600080fd5b8063c7aaa8d4146103e2578063ca15c873146103f5578063d547741f14610408578063eee565641461041b57600080fd5b80639a78ea4a116100de5780639a78ea4a146103a1578063a217fddf146103b4578063b78b52df146103bc578063be760488146103cf57600080fd5b80637e1c0c091461031a5780639010d07c1461032357806391d148541461035b57600080fd5b80632f2ff15d1161017c5780635066c8931161014b5780635066c893146102e25780636ab28bc8146102f55780636d8500db146102fe57806378e979251461031157600080fd5b80632f2ff15d146102a157806336568abe146102b45780633e0a322d146102c75780634e71d92d146102da57600080fd5b80630fb5a6b4116101b85780630fb5a6b414610233578063188ec3561461023c578063248a9ca31461024257806327e235e31461026557600080fd5b806301ffc9a7146101df5780630661c040146102075780630f1a64441461021c575b600080fd5b6101f26101ed3660046128bd565b6104a3565b60405190151581526020015b60405180910390f35b61021a6102153660046127db565b6104ff565b005b61022560cc5481565b6040519081526020016101fe565b61022560cd5481565b42610225565b61022561025036600461285d565b60009081526065602052604090206001015490565b61028c6102733660046127be565b60c9602052600090815260409020805460019091015482565b604080519283526020830191909152016101fe565b61021a6102af366004612876565b61092e565b61021a6102c2366004612876565b610955565b61021a6102d536600461285d565b610977565b61021a610b3d565b6102256102f0366004612814565b610b48565b61022560cf5481565b61022561030c36600461285d565b610d34565b61022560cb5481565b61022560ca5481565b61033661033136600461289b565b610dba565b60405173ffffffffffffffffffffffffffffffffffffffff90911681526020016101fe565b6101f2610369366004612876565b600091825260656020908152604080842073ffffffffffffffffffffffffffffffffffffffff93909316845291905290205460ff1690565b6102256103af3660046127be565b610dd2565b610225600081565b61021a6103ca366004612814565b610dde565b61021a6103dd366004612814565b6110f9565b61021a6103f03660046128ff565b61133c565b61022561040336600461285d565b61166d565b61021a610416366004612876565b611684565b60d0546101f29074010000000000000000000000000000000000000000900460ff1681565b6102257ffbd454f36a7e1a388bd6fc3ab10d434aa4578f811acbbcf33afb1c697486313c81565b60d0546103369073ffffffffffffffffffffffffffffffffffffffff1681565b61022560ce5481565b61021a61049e3660046127be565b61168e565b60007fffffffff0000000000000000000000000000000000000000000000000000000082167f5a05180f0000000000000000000000000000000000000000000000000000000014806104f957506104f9826118fa565b92915050565b60d05474010000000000000000000000000000000000000000900460ff166105ae576040517f08c379a000000000000000000000000000000000000000000000000000000000815260206004820152602d60248201527f546f6b656e44697374726f3a3a63616e63656c416c6c6f636174696f6e3a204e60448201527f4f545f43414e43454c41424c450000000000000000000000000000000000000060648201526084015b60405180910390fd5b3360009081527fffdfc1249c027f9191656349feb0761381bb32c9f557e01f419fd08754bf5a1b602052604090205460ff1661066c576040517f08c379a000000000000000000000000000000000000000000000000000000000815260206004820152602e60248201527f546f6b656e44697374726f3a3a63616e63656c416c6c6f636174696f6e3a204f60448201527f4e4c595f41444d494e5f524f4c4500000000000000000000000000000000000060648201526084016105a5565b73ffffffffffffffffffffffffffffffffffffffff8116600090815260c960205260409020541580156106c5575073ffffffffffffffffffffffffffffffffffffffff8116600090815260c96020526040902060010154155b610751576040517f08c379a000000000000000000000000000000000000000000000000000000000815260206004820152603560248201527f546f6b656e44697374726f3a3a63616e63656c416c6c6f636174696f6e3a204160448201527f4444524553535f414c52454144595f494e5f555345000000000000000000000060648201526084016105a5565b73ffffffffffffffffffffffffffffffffffffffff821660009081527fc30845577a48a4875916abdf69c952cec0f19aac3292d053136a35224608de0b602052604090205460ff161580156107eb575073ffffffffffffffffffffffffffffffffffffffff811660009081527fc30845577a48a4875916abdf69c952cec0f19aac3292d053136a35224608de0b602052604090205460ff16155b61089d576040517f08c379a000000000000000000000000000000000000000000000000000000000815260206004820152604360248201527f546f6b656e44697374726f3a3a63616e63656c416c6c6f636174696f6e3a204460448201527f49535452494255544f525f524f4c455f4e4f545f415f56414c49445f4144445260648201527f4553530000000000000000000000000000000000000000000000000000000000608482015260a4016105a5565b60006108a883610dd2565b11156108b7576108b782611991565b73ffffffffffffffffffffffffffffffffffffffff808316600081815260c96020526040808220805494861680845282842095865583825560019182018054929096019190915583835293829055517f8839b4e99cbac9b99de60313e9f1679f46d6837a692b8c052bf0bd6cacb19c799190a35050565b6109388282611af2565b60008281526097602052604090206109509082611b18565b505050565b61095f8282611b3a565b60008281526097602052604090206109509082611bed565b3360009081527fffdfc1249c027f9191656349feb0761381bb32c9f557e01f419fd08754bf5a1b602052604090205460ff16610a34576040517f08c379a0000000000000000000000000000000000000000000000000000000008152602060048201526024808201527f546f6b656e44697374726f3a3a61737369676e3a204f4e4c595f41444d494e5f60448201527f524f4c450000000000000000000000000000000000000000000000000000000060648201526084016105a5565b4260cb54118015610a4457504281115b610ad0576040517f08c379a000000000000000000000000000000000000000000000000000000000815260206004820152602b60248201527f546f6b656e44697374726f3a3a61737369676e3a2049465f4841535f4e4f545f60448201527f535441525445445f59455400000000000000000000000000000000000000000060648201526084016105a5565b600060cb5460cc54610ae29190612ae6565b60cb8390559050610af38183612a56565b60cc81905560cb546040517fbefe8e3983c0dc663c4ba451fc82d4ff7eb2e4ccc4b944874abea1ecc841feae92610b31928252602082015260400190565b60405180910390a15050565b610b4633611991565b565b73ffffffffffffffffffffffffffffffffffffffff821660009081527fc30845577a48a4875916abdf69c952cec0f19aac3292d053136a35224608de0b602052604081205460ff1615610c1d576040517f08c379a000000000000000000000000000000000000000000000000000000000815260206004820152603760248201527f546f6b656e44697374726f3a3a636c61696d61626c6541743a2044495354524960448201527f4255544f525f524f4c455f43414e4e4f545f434c41494d00000000000000000060648201526084016105a5565b42821015610cad576040517f08c379a000000000000000000000000000000000000000000000000000000000815260206004820152603260248201527f546f6b656e44697374726f3a3a636c61696d61626c6541743a204e4f545f564160448201527f4c49445f504153545f54494d455354414d50000000000000000000000000000060648201526084016105a5565b60ca5473ffffffffffffffffffffffffffffffffffffffff8416600090815260c96020526040812054909190610ce285610d34565b610cec9190612aa9565b610cf69190612a6e565b73ffffffffffffffffffffffffffffffffffffffff8516600090815260c96020526040902060010154909150610d2c9082612ae6565b949350505050565b600060cb54821015610d4857506000919050565b60cc54821015610d5a57505060ce5490565b60cd5460cb54610d6a9190612a56565b821115610d7957505060ca5490565b600060cb5483610d899190612ae6565b905060cd5460cf5482610d9c9190612aa9565b610da69190612a6e565b60ce54610db39190612a56565b9392505050565b6000828152609760205260408120610db39083611c0f565b60006104f98242610b48565b3360009081527fc30845577a48a4875916abdf69c952cec0f19aac3292d053136a35224608de0b602052604090205460ff16610e9c576040517f08c379a000000000000000000000000000000000000000000000000000000000815260206004820152602c60248201527f546f6b656e44697374726f3a3a616c6c6f636174653a204f4e4c595f4449535460448201527f52494255544f525f524f4c45000000000000000000000000000000000000000060648201526084016105a5565b73ffffffffffffffffffffffffffffffffffffffff821660009081527fc30845577a48a4875916abdf69c952cec0f19aac3292d053136a35224608de0b602052604090205460ff1615610f71576040517f08c379a000000000000000000000000000000000000000000000000000000000815260206004820152603660248201527f546f6b656e44697374726f3a3a616c6c6f636174653a2044495354524942555460448201527f4f525f4e4f545f56414c49445f524543495049454e540000000000000000000060648201526084016105a5565b33600090815260c9602052604090206001015415611011576040517f08c379a000000000000000000000000000000000000000000000000000000000815260206004820152602f60248201527f546f6b656e44697374726f3a3a616c6c6f636174653a2044495354524942555460448201527f4f525f43414e4e4f545f434c41494d000000000000000000000000000000000060648201526084016105a5565b33600090815260c9602052604090205461102c908290612ae6565b33600090815260c960205260408082209290925573ffffffffffffffffffffffffffffffffffffffff841681522054611066908290612a56565b73ffffffffffffffffffffffffffffffffffffffff8316600090815260c9602052604081209190915561109883610dd2565b11156110a7576110a782611991565b60405181815273ffffffffffffffffffffffffffffffffffffffff83169033907f5168bfb88d6125d4580e2b91ecb103a730312c3e8b0be9c4031a0fc794e2cd5f906020015b60405180910390a35050565b3360009081527fffdfc1249c027f9191656349feb0761381bb32c9f557e01f419fd08754bf5a1b602052604090205460ff166111b6576040517f08c379a0000000000000000000000000000000000000000000000000000000008152602060048201526024808201527f546f6b656e44697374726f3a3a61737369676e3a204f4e4c595f41444d494e5f60448201527f524f4c450000000000000000000000000000000000000000000000000000000060648201526084016105a5565b73ffffffffffffffffffffffffffffffffffffffff821660009081527fc30845577a48a4875916abdf69c952cec0f19aac3292d053136a35224608de0b602052604090205460ff1661128a576040517f08c379a000000000000000000000000000000000000000000000000000000000815260206004820152602d60248201527f546f6b656e44697374726f3a3a61737369676e3a204f4e4c595f544f5f44495360448201527f5452494255544f525f524f4c450000000000000000000000000000000000000060648201526084016105a5565b30600090815260c960205260409020546112a5908290612ae6565b30600090815260c960205260408082209290925573ffffffffffffffffffffffffffffffffffffffff8416815220546112df908290612a56565b73ffffffffffffffffffffffffffffffffffffffff8316600081815260c960205260409081902092909255905133907e7ae6a979e5d8177867f7c1ca4be1527487a2e43a444b55c3dfaee02c423544906110ed9085815260200190565b600054610100900460ff1680611355575060005460ff16155b6113e1576040517f08c379a000000000000000000000000000000000000000000000000000000000815260206004820152602e60248201527f496e697469616c697a61626c653a20636f6e747261637420697320616c72656160448201527f647920696e697469616c697a656400000000000000000000000000000000000060648201526084016105a5565b600054610100900460ff1615801561142057600080547fffffffffffffffffffffffffffffffffffffffffffffffffffffffffffff0000166101011790555b858510156114b0576040517f08c379a000000000000000000000000000000000000000000000000000000000815260206004820152603260248201527f546f6b656e44697374726f3a3a636f6e7374727563746f723a2044555241544960448201527f4f4e5f4c4553535f5448414e5f434c494646000000000000000000000000000060648201526084016105a5565b612710841115611542576040517f08c379a000000000000000000000000000000000000000000000000000000000815260206004820152603c60248201527f546f6b656e44697374726f3a3a636f6e7374727563746f723a20494e4954494160448201527f4c50455243454e544147455f475245415445525f5448414e5f3130300000000060648201526084016105a5565b61154a611c1b565b611555600033611d51565b6000612710611564868b612aa9565b61156e9190612a6e565b60d080547fffffffffffffffffffffffff00000000000000000000000000000000000000001673ffffffffffffffffffffffffffffffffffffffff871617905560cd87905560cb89905560ca8a905560ce81905590506115ce8789612a56565b60cc556115db818a612ae6565b60cf555030600090815260c96020526040902088905560d080547fffffffffffffffffffffff00ffffffffffffffffffffffffffffffffffffffff167401000000000000000000000000000000000000000084151502179055801561166357600080547fffffffffffffffffffffffffffffffffffffffffffffffffffffffffffff00ff1690555b5050505050505050565b60008181526097602052604081206104f990611d5b565b61095f8282611d65565b73ffffffffffffffffffffffffffffffffffffffff8116600090815260c960205260409020541580156116e7575073ffffffffffffffffffffffffffffffffffffffff8116600090815260c96020526040902060010154155b611773576040517f08c379a000000000000000000000000000000000000000000000000000000000815260206004820152603260248201527f546f6b656e44697374726f3a3a6368616e6765416464726573733a204144445260448201527f4553535f414c52454144595f494e5f555345000000000000000000000000000060648201526084016105a5565b3360009081527fc30845577a48a4875916abdf69c952cec0f19aac3292d053136a35224608de0b602052604090205460ff161580156117f7575073ffffffffffffffffffffffffffffffffffffffff811660009081527fc30845577a48a4875916abdf69c952cec0f19aac3292d053136a35224608de0b602052604090205460ff16155b61188557604080517f08c379a00000000000000000000000000000000000000000000000000000000081526020600482015260248101919091527f546f6b656e44697374726f3a3a6368616e6765416464726573733a204449535460448201527f52494255544f525f524f4c455f4e4f545f415f56414c49445f4144445245535360648201526084016105a5565b33600081815260c96020526040808220805473ffffffffffffffffffffffffffffffffffffffff861680855283852091825584835560019283018054939092019290925584845283905590519092917f8839b4e99cbac9b99de60313e9f1679f46d6837a692b8c052bf0bd6cacb19c7991a350565b60007fffffffff0000000000000000000000000000000000000000000000000000000082167f7965db0b0000000000000000000000000000000000000000000000000000000014806104f957507f01ffc9a7000000000000000000000000000000000000000000000000000000007fffffffff000000000000000000000000000000000000000000000000000000008316146104f9565b600061199c82610dd2565b905060008111611a2e576040517f08c379a000000000000000000000000000000000000000000000000000000000815260206004820152602f60248201527f546f6b656e44697374726f3a3a636c61696d3a204e4f545f454e4f554754485f60448201527f544f4b454e535f544f5f434c41494d000000000000000000000000000000000060648201526084016105a5565b73ffffffffffffffffffffffffffffffffffffffff8216600090815260c96020526040902060010154611a62908290612a56565b73ffffffffffffffffffffffffffffffffffffffff808416600090815260c9602052604090206001019190915560d054611a9e91168383611d8b565b8173ffffffffffffffffffffffffffffffffffffffff167f47cee97cb7acd717b3c0aa1435d004cd5b3c8c57d70dbceb4e4458bbd60e39d482604051611ae691815260200190565b60405180910390a25050565b600082815260656020526040902060010154611b0e8133611e18565b6109508383611eea565b6000610db38373ffffffffffffffffffffffffffffffffffffffff8416611fde565b73ffffffffffffffffffffffffffffffffffffffff81163314611bdf576040517f08c379a000000000000000000000000000000000000000000000000000000000815260206004820152602f60248201527f416363657373436f6e74726f6c3a2063616e206f6e6c792072656e6f756e636560448201527f20726f6c657320666f722073656c66000000000000000000000000000000000060648201526084016105a5565b611be9828261202d565b5050565b6000610db38373ffffffffffffffffffffffffffffffffffffffff84166120e8565b6000610db383836121db565b600054610100900460ff1680611c34575060005460ff16155b611cc0576040517f08c379a000000000000000000000000000000000000000000000000000000000815260206004820152602e60248201527f496e697469616c697a61626c653a20636f6e747261637420697320616c72656160448201527f647920696e697469616c697a656400000000000000000000000000000000000060648201526084016105a5565b600054610100900460ff16158015611cff57600080547fffffffffffffffffffffffffffffffffffffffffffffffffffffffffffff0000166101011790555b611d07612205565b611d0f612205565b611d17612205565b611d1f612205565b8015611d4e57600080547fffffffffffffffffffffffffffffffffffffffffffffffffffffffffffff00ff1690555b50565b6109388282612319565b60006104f9825490565b600082815260656020526040902060010154611d818133611e18565b610950838361202d565b6040805173ffffffffffffffffffffffffffffffffffffffff8416602482015260448082018490528251808303909101815260649091019091526020810180517bffffffffffffffffffffffffffffffffffffffffffffffffffffffff167fa9059cbb00000000000000000000000000000000000000000000000000000000179052610950908490612323565b600082815260656020908152604080832073ffffffffffffffffffffffffffffffffffffffff8516845290915290205460ff16611be957611e708173ffffffffffffffffffffffffffffffffffffffff16601461242f565b611e7b83602061242f565b604051602001611e8c929190612984565b604080517fffffffffffffffffffffffffffffffffffffffffffffffffffffffffffffffe0818403018152908290527f08c379a00000000000000000000000000000000000000000000000000000000082526105a591600401612a05565b600082815260656020908152604080832073ffffffffffffffffffffffffffffffffffffffff8516845290915290205460ff16611be957600082815260656020908152604080832073ffffffffffffffffffffffffffffffffffffffff85168452909152902080547fffffffffffffffffffffffffffffffffffffffffffffffffffffffffffffff00166001179055611f803390565b73ffffffffffffffffffffffffffffffffffffffff168173ffffffffffffffffffffffffffffffffffffffff16837f2f8788117e7eff1d82e926ec794901d17c78024a50270940304540a733656f0d60405160405180910390a45050565b6000818152600183016020526040812054612025575081546001818101845560008481526020808220909301849055845484825282860190935260409020919091556104f9565b5060006104f9565b600082815260656020908152604080832073ffffffffffffffffffffffffffffffffffffffff8516845290915290205460ff1615611be957600082815260656020908152604080832073ffffffffffffffffffffffffffffffffffffffff8516808552925280832080547fffffffffffffffffffffffffffffffffffffffffffffffffffffffffffffff0016905551339285917ff6391f5c32d9c69d2a47ea670b442974b53935d1edc7fd64eb21e047a839171b9190a45050565b600081815260018301602052604081205480156121d157600061210c600183612ae6565b855490915060009061212090600190612ae6565b905081811461218557600086600001828154811061214057612140612bc0565b906000526020600020015490508087600001848154811061216357612163612bc0565b6000918252602080832090910192909255918252600188019052604090208390555b855486908061219657612196612b91565b6001900381819060005260206000200160009055905585600101600086815260200190815260200160002060009055600193505050506104f9565b60009150506104f9565b60008260000182815481106121f2576121f2612bc0565b9060005260206000200154905092915050565b600054610100900460ff168061221e575060005460ff16155b6122aa576040517f08c379a000000000000000000000000000000000000000000000000000000000815260206004820152602e60248201527f496e697469616c697a61626c653a20636f6e747261637420697320616c72656160448201527f647920696e697469616c697a656400000000000000000000000000000000000060648201526084016105a5565b600054610100900460ff16158015611d1f57600080547fffffffffffffffffffffffffffffffffffffffffffffffffffffffffffff0000166101011790558015611d4e57600080547fffffffffffffffffffffffffffffffffffffffffffffffffffffffffffff00ff16905550565b611be98282611eea565b6000612385826040518060400160405280602081526020017f5361666545524332303a206c6f772d6c6576656c2063616c6c206661696c65648152508573ffffffffffffffffffffffffffffffffffffffff166126729092919063ffffffff16565b80519091501561095057808060200190518101906123a39190612840565b610950576040517f08c379a000000000000000000000000000000000000000000000000000000000815260206004820152602a60248201527f5361666545524332303a204552433230206f7065726174696f6e20646964206e60448201527f6f7420737563636565640000000000000000000000000000000000000000000060648201526084016105a5565b6060600061243e836002612aa9565b612449906002612a56565b67ffffffffffffffff81111561246157612461612bef565b6040519080825280601f01601f19166020018201604052801561248b576020820181803683370190505b5090507f3000000000000000000000000000000000000000000000000000000000000000816000815181106124c2576124c2612bc0565b60200101907effffffffffffffffffffffffffffffffffffffffffffffffffffffffffffff1916908160001a9053507f78000000000000000000000000000000000000000000000000000000000000008160018151811061252557612525612bc0565b60200101907effffffffffffffffffffffffffffffffffffffffffffffffffffffffffffff1916908160001a9053506000612561846002612aa9565b61256c906001612a56565b90505b6001811115612609577f303132333435363738396162636465660000000000000000000000000000000085600f16601081106125ad576125ad612bc0565b1a60f81b8282815181106125c3576125c3612bc0565b60200101907effffffffffffffffffffffffffffffffffffffffffffffffffffffffffffff1916908160001a90535060049490941c9361260281612b2d565b905061256f565b508315610db3576040517f08c379a000000000000000000000000000000000000000000000000000000000815260206004820181905260248201527f537472696e67733a20686578206c656e67746820696e73756666696369656e7460448201526064016105a5565b6060610d2c848460008585843b6126e5576040517f08c379a000000000000000000000000000000000000000000000000000000000815260206004820152601d60248201527f416464726573733a2063616c6c20746f206e6f6e2d636f6e747261637400000060448201526064016105a5565b6000808673ffffffffffffffffffffffffffffffffffffffff16858760405161270e9190612968565b60006040518083038185875af1925050503d806000811461274b576040519150601f19603f3d011682016040523d82523d6000602084013e612750565b606091505b509150915061276082828661276b565b979650505050505050565b6060831561277a575081610db3565b82511561278a5782518084602001fd5b816040517f08c379a00000000000000000000000000000000000000000000000000000000081526004016105a59190612a05565b6000602082840312156127d057600080fd5b8135610db381612c1e565b600080604083850312156127ee57600080fd5b82356127f981612c1e565b9150602083013561280981612c1e565b809150509250929050565b6000806040838503121561282757600080fd5b823561283281612c1e565b946020939093013593505050565b60006020828403121561285257600080fd5b8151610db381612c40565b60006020828403121561286f57600080fd5b5035919050565b6000806040838503121561288957600080fd5b82359150602083013561280981612c1e565b600080604083850312156128ae57600080fd5b50508035926020909101359150565b6000602082840312156128cf57600080fd5b81357fffffffff0000000000000000000000000000000000000000000000000000000081168114610db357600080fd5b600080600080600080600060e0888a03121561291a57600080fd5b873596506020880135955060408801359450606088013593506080880135925060a088013561294881612c1e565b915060c088013561295881612c40565b8091505092959891949750929550565b6000825161297a818460208701612afd565b9190910192915050565b7f416363657373436f6e74726f6c3a206163636f756e74200000000000000000008152600083516129bc816017850160208801612afd565b7f206973206d697373696e6720726f6c652000000000000000000000000000000060179184019182015283516129f9816028840160208801612afd565b01602801949350505050565b6020815260008251806020840152612a24816040850160208701612afd565b601f017fffffffffffffffffffffffffffffffffffffffffffffffffffffffffffffffe0169190910160400192915050565b60008219821115612a6957612a69612b62565b500190565b600082612aa4577f4e487b7100000000000000000000000000000000000000000000000000000000600052601260045260246000fd5b500490565b6000817fffffffffffffffffffffffffffffffffffffffffffffffffffffffffffffffff0483118215151615612ae157612ae1612b62565b500290565b600082821015612af857612af8612b62565b500390565b60005b83811015612b18578181015183820152602001612b00565b83811115612b27576000848401525b50505050565b600081612b3c57612b3c612b62565b507fffffffffffffffffffffffffffffffffffffffffffffffffffffffffffffffff0190565b7f4e487b7100000000000000000000000000000000000000000000000000000000600052601160045260246000fd5b7f4e487b7100000000000000000000000000000000000000000000000000000000600052603160045260246000fd5b7f4e487b7100000000000000000000000000000000000000000000000000000000600052603260045260246000fd5b7f4e487b7100000000000000000000000000000000000000000000000000000000600052604160045260246000fd5b73ffffffffffffffffffffffffffffffffffffffff81168114611d4e57600080fd5b8015158114611d4e57600080fdfea26469706673582212202e009db00533715bcfb11d3ebb3fec9cf22d5e56c3b892ffe7e3a5cbd445b19764736f6c63430008060033",
  "linkReferences": {},
  "deployedLinkReferences": {}
}