{
  "_format": "hh-sol-artifact-1",
  "contractName": "ERC677BridgeToken",
  "sourceName": "contracts/Tokens/BridgeToken.sol",
  "abi": [
    {
      "constant": true,
      "inputs": [],
      "name": "mintingFinished",
      "outputs": [
        {
          "name": "",
          "type": "bool"
        }
      ],
      "payable": false,
      "stateMutability": "view",
      "type": "function"
    },
    {
      "constant": true,
      "inputs": [],
      "name": "name",
      "outputs": [
        {
          "name": "",
          "type": "string"
        }
      ],
      "payable": false,
      "stateMutability": "view",
      "type": "function"
    },
    {
      "constant": false,
      "inputs": [
        {
          "name": "_spender",
          "type": "address"
        },
        {
          "name": "_value",
          "type": "uint256"
        }
      ],
      "name": "approve",
      "outputs": [
        {
          "name": "",
          "type": "bool"
        }
      ],
      "payable": false,
      "stateMutability": "nonpayable",
      "type": "function"
    },
    {
      "constant": false,
      "inputs": [
        {
          "name": "_bridgeContract",
          "type": "address"
        }
      ],
      "name": "setBridgeContract",
      "outputs": [],
      "payable": false,
      "stateMutability": "nonpayable",
      "type": "function"
    },
    {
      "constant": true,
      "inputs": [],
      "name": "totalSupply",
      "outputs": [
        {
          "name": "",
          "type": "uint256"
        }
      ],
      "payable": false,
      "stateMutability": "view",
      "type": "function"
    },
    {
      "constant": false,
      "inputs": [
        {
          "name": "_from",
          "type": "address"
        },
        {
          "name": "_to",
          "type": "address"
        },
        {
          "name": "_value",
          "type": "uint256"
        }
      ],
      "name": "transferFrom",
      "outputs": [
        {
          "name": "",
          "type": "bool"
        }
      ],
      "payable": false,
      "stateMutability": "nonpayable",
      "type": "function"
    },
    {
      "constant": true,
      "inputs": [],
      "name": "decimals",
      "outputs": [
        {
          "name": "",
          "type": "uint8"
        }
      ],
      "payable": false,
      "stateMutability": "view",
      "type": "function"
    },
    {
      "constant": false,
      "inputs": [
        {
          "name": "spender",
          "type": "address"
        },
        {
          "name": "addedValue",
          "type": "uint256"
        }
      ],
      "name": "increaseAllowance",
      "outputs": [
        {
          "name": "",
          "type": "bool"
        }
      ],
      "payable": false,
      "stateMutability": "nonpayable",
      "type": "function"
    },
    {
      "constant": false,
      "inputs": [
        {
          "name": "_to",
          "type": "address"
        },
        {
          "name": "_value",
          "type": "uint256"
        },
        {
          "name": "_data",
          "type": "bytes"
        }
      ],
      "name": "transferAndCall",
      "outputs": [
        {
          "name": "",
          "type": "bool"
        }
      ],
      "payable": false,
      "stateMutability": "nonpayable",
      "type": "function"
    },
    {
      "constant": false,
      "inputs": [
        {
          "name": "_to",
          "type": "address"
        },
        {
          "name": "_amount",
          "type": "uint256"
        }
      ],
      "name": "mint",
      "outputs": [
        {
          "name": "",
          "type": "bool"
        }
      ],
      "payable": false,
      "stateMutability": "nonpayable",
      "type": "function"
    },
    {
      "constant": false,
      "inputs": [
        {
          "name": "_value",
          "type": "uint256"
        }
      ],
      "name": "burn",
      "outputs": [],
      "payable": false,
      "stateMutability": "nonpayable",
      "type": "function"
    },
    {
      "constant": false,
      "inputs": [
        {
          "name": "_spender",
          "type": "address"
        },
        {
          "name": "_subtractedValue",
          "type": "uint256"
        }
      ],
      "name": "decreaseApproval",
      "outputs": [
        {
          "name": "",
          "type": "bool"
        }
      ],
      "payable": false,
      "stateMutability": "nonpayable",
      "type": "function"
    },
    {
      "constant": false,
      "inputs": [
        {
          "name": "_token",
          "type": "address"
        },
        {
          "name": "_to",
          "type": "address"
        }
      ],
      "name": "claimTokens",
      "outputs": [],
      "payable": false,
      "stateMutability": "nonpayable",
      "type": "function"
    },
    {
      "constant": true,
      "inputs": [
        {
          "name": "_owner",
          "type": "address"
        }
      ],
      "name": "balanceOf",
      "outputs": [
        {
          "name": "",
          "type": "uint256"
        }
      ],
      "payable": false,
      "stateMutability": "view",
      "type": "function"
    },
    {
      "constant": false,
      "inputs": [],
      "name": "renounceOwnership",
      "outputs": [],
      "payable": false,
      "stateMutability": "nonpayable",
      "type": "function"
    },
    {
      "constant": true,
      "inputs": [
        {
          "name": "_address",
          "type": "address"
        }
      ],
      "name": "isBridge",
      "outputs": [
        {
          "name": "",
          "type": "bool"
        }
      ],
      "payable": false,
      "stateMutability": "view",
      "type": "function"
    },
    {
      "constant": false,
      "inputs": [],
      "name": "finishMinting",
      "outputs": [
        {
          "name": "",
          "type": "bool"
        }
      ],
      "payable": false,
      "stateMutability": "nonpayable",
      "type": "function"
    },
    {
      "constant": true,
      "inputs": [],
      "name": "getTokenInterfacesVersion",
      "outputs": [
        {
          "name": "major",
          "type": "uint64"
        },
        {
          "name": "minor",
          "type": "uint64"
        },
        {
          "name": "patch",
          "type": "uint64"
        }
      ],
      "payable": false,
      "stateMutability": "pure",
      "type": "function"
    },
    {
      "constant": true,
      "inputs": [],
      "name": "owner",
      "outputs": [
        {
          "name": "",
          "type": "address"
        }
      ],
      "payable": false,
      "stateMutability": "view",
      "type": "function"
    },
    {
      "constant": true,
      "inputs": [],
      "name": "symbol",
      "outputs": [
        {
          "name": "",
          "type": "string"
        }
      ],
      "payable": false,
      "stateMutability": "view",
      "type": "function"
    },
    {
      "constant": false,
      "inputs": [
        {
          "name": "spender",
          "type": "address"
        },
        {
          "name": "subtractedValue",
          "type": "uint256"
        }
      ],
      "name": "decreaseAllowance",
      "outputs": [
        {
          "name": "",
          "type": "bool"
        }
      ],
      "payable": false,
      "stateMutability": "nonpayable",
      "type": "function"
    },
    {
      "constant": false,
      "inputs": [
        {
          "name": "_to",
          "type": "address"
        },
        {
          "name": "_value",
          "type": "uint256"
        }
      ],
      "name": "transfer",
      "outputs": [
        {
          "name": "",
          "type": "bool"
        }
      ],
      "payable": false,
      "stateMutability": "nonpayable",
      "type": "function"
    },
    {
      "constant": true,
      "inputs": [],
      "name": "bridgeContract",
      "outputs": [
        {
          "name": "",
          "type": "address"
        }
      ],
      "payable": false,
      "stateMutability": "view",
      "type": "function"
    },
    {
      "constant": false,
      "inputs": [
        {
          "name": "_spender",
          "type": "address"
        },
        {
          "name": "_addedValue",
          "type": "uint256"
        }
      ],
      "name": "increaseApproval",
      "outputs": [
        {
          "name": "",
          "type": "bool"
        }
      ],
      "payable": false,
      "stateMutability": "nonpayable",
      "type": "function"
    },
    {
      "constant": true,
      "inputs": [
        {
          "name": "_owner",
          "type": "address"
        },
        {
          "name": "_spender",
          "type": "address"
        }
      ],
      "name": "allowance",
      "outputs": [
        {
          "name": "",
          "type": "uint256"
        }
      ],
      "payable": false,
      "stateMutability": "view",
      "type": "function"
    },
    {
      "constant": false,
      "inputs": [
        {
          "name": "_newOwner",
          "type": "address"
        }
      ],
      "name": "transferOwnership",
      "outputs": [],
      "payable": false,
      "stateMutability": "nonpayable",
      "type": "function"
    },
    {
      "inputs": [
        {
          "name": "_name",
          "type": "string"
        },
        {
          "name": "_symbol",
          "type": "string"
        },
        {
          "name": "_decimals",
          "type": "uint8"
        }
      ],
      "payable": false,
      "stateMutability": "nonpayable",
      "type": "constructor"
    },
    {
      "anonymous": false,
      "inputs": [
        {
          "indexed": false,
          "name": "from",
          "type": "address"
        },
        {
          "indexed": false,
          "name": "to",
          "type": "address"
        },
        {
          "indexed": false,
          "name": "value",
          "type": "uint256"
        }
      ],
      "name": "ContractFallbackCallFailed",
      "type": "event"
    },
    {
      "anonymous": false,
      "inputs": [
        {
          "indexed": true,
          "name": "to",
          "type": "address"
        },
        {
          "indexed": false,
          "name": "amount",
          "type": "uint256"
        }
      ],
      "name": "Mint",
      "type": "event"
    },
    {
      "anonymous": false,
      "inputs": [],
      "name": "MintFinished",
      "type": "event"
    },
    {
      "anonymous": false,
      "inputs": [
        {
          "indexed": true,
          "name": "previousOwner",
          "type": "address"
        }
      ],
      "name": "OwnershipRenounced",
      "type": "event"
    },
    {
      "anonymous": false,
      "inputs": [
        {
          "indexed": true,
          "name": "previousOwner",
          "type": "address"
        },
        {
          "indexed": true,
          "name": "newOwner",
          "type": "address"
        }
      ],
      "name": "OwnershipTransferred",
      "type": "event"
    },
    {
      "anonymous": false,
      "inputs": [
        {
          "indexed": true,
          "name": "burner",
          "type": "address"
        },
        {
          "indexed": false,
          "name": "value",
          "type": "uint256"
        }
      ],
      "name": "Burn",
      "type": "event"
    },
    {
      "anonymous": false,
      "inputs": [
        {
          "indexed": true,
          "name": "from",
          "type": "address"
        },
        {
          "indexed": true,
          "name": "to",
          "type": "address"
        },
        {
          "indexed": false,
          "name": "value",
          "type": "uint256"
        },
        {
          "indexed": false,
          "name": "data",
          "type": "bytes"
        }
      ],
      "name": "Transfer",
      "type": "event"
    },
    {
      "anonymous": false,
      "inputs": [
        {
          "indexed": true,
          "name": "owner",
          "type": "address"
        },
        {
          "indexed": true,
          "name": "spender",
          "type": "address"
        },
        {
          "indexed": false,
          "name": "value",
          "type": "uint256"
        }
      ],
      "name": "Approval",
      "type": "event"
    },
    {
      "anonymous": false,
      "inputs": [
        {
          "indexed": true,
          "name": "from",
          "type": "address"
        },
        {
          "indexed": true,
          "name": "to",
          "type": "address"
        },
        {
          "indexed": false,
          "name": "value",
          "type": "uint256"
        }
      ],
      "name": "Transfer",
      "type": "event"
    }
  ],
  "bytecode": "0x60806040526006805460a060020a60ff02191690553480156200002157600080fd5b5060405162001a6038038062001a608339810160409081528151602080840151928401519184018051909493909301928491849184916200006891600091860190620000b2565b5081516200007e906001906020850190620000b2565b506002805460ff90921660ff19909216919091179055505060068054600160a060020a031916331790555062000157915050565b828054600181600116156101000203166002900490600052602060002090601f016020900481019282601f10620000f557805160ff191683800117855562000125565b8280016001018555821562000125579182015b828111156200012557825182559160200191906001019062000108565b506200013392915062000137565b5090565b6200015491905b808211156200013357600081556001016200013e565b90565b6118f980620001676000396000f3006080604052600436106101535763ffffffff7c010000000000000000000000000000000000000000000000000000000060003504166305d2035b811461015857806306fdde0314610181578063095ea7b31461020b5780630b26cf661461023c57806318160ddd1461026c57806323b872dd14610293578063313ce567146102ca57806339509351146102f55780634000aea01461032657806340c10f191461036457806342966c681461039557806366188463146103ad57806369ffa08a146103de57806370a0823114610412578063715018a614610440578063726600ce146104555780637d64bcb414610483578063859ba28c146104985780638da5cb5b146104d957806395d89b4114610517578063a457c2d71461052c578063a9059cbb1461055d578063cd5965831461058e578063d73dd623146105a3578063dd62ed3e146105d4578063f2fde38b14610608575b600080fd5b34801561016457600080fd5b5061016d610636565b604080519115158252519081900360200190f35b34801561018d57600080fd5b50610196610657565b6040805160208082528351818301528351919283929083019185019080838360005b838110156101d05781810151838201526020016101b8565b50505050905090810190601f1680156101fd5780820380516001836020036101000a031916815260200191505b509250505060405180910390f35b34801561021757600080fd5b5061016d73ffffffffffffffffffffffffffffffffffffffff60043516602435610703565b34801561024857600080fd5b5061026a73ffffffffffffffffffffffffffffffffffffffff60043516610776565b005b34801561027857600080fd5b506102816107f5565b60408051918252519081900360200190f35b34801561029f57600080fd5b5061016d73ffffffffffffffffffffffffffffffffffffffff600435811690602435166044356107fb565b3480156102d657600080fd5b506102df610828565b6040805160ff9092168252519081900360200190f35b34801561030157600080fd5b5061016d73ffffffffffffffffffffffffffffffffffffffff60043516602435610831565b34801561033257600080fd5b5061016d6004803573ffffffffffffffffffffffffffffffffffffffff16906024803591604435918201910135610844565b34801561037057600080fd5b5061016d73ffffffffffffffffffffffffffffffffffffffff60043516602435610989565b3480156103a157600080fd5b5061026a600435610ada565b3480156103b957600080fd5b5061016d73ffffffffffffffffffffffffffffffffffffffff60043516602435610ae7565b3480156103ea57600080fd5b5061026a73ffffffffffffffffffffffffffffffffffffffff60043581169060243516610c0a565b34801561041e57600080fd5b5061028173ffffffffffffffffffffffffffffffffffffffff60043516610c60565b34801561044c57600080fd5b5061026a610c88565b34801561046157600080fd5b5061016d73ffffffffffffffffffffffffffffffffffffffff60043516610cac565b34801561048f57600080fd5b5061016d610ccd565b3480156104a457600080fd5b506104ad610cd4565b6040805167ffffffffffffffff9485168152928416602084015292168183015290519081900360600190f35b3480156104e557600080fd5b506104ee610cde565b6040805173ffffffffffffffffffffffffffffffffffffffff9092168252519081900360200190f35b34801561052357600080fd5b50610196610cfa565b34801561053857600080fd5b5061016d73ffffffffffffffffffffffffffffffffffffffff60043516602435610d72565b34801561056957600080fd5b5061016d73ffffffffffffffffffffffffffffffffffffffff60043516602435610d7e565b34801561059a57600080fd5b506104ee610da9565b3480156105af57600080fd5b5061016d73ffffffffffffffffffffffffffffffffffffffff60043516602435610dc5565b3480156105e057600080fd5b5061028173ffffffffffffffffffffffffffffffffffffffff60043581169060243516610e78565b34801561061457600080fd5b5061026a73ffffffffffffffffffffffffffffffffffffffff60043516610eb0565b60065474010000000000000000000000000000000000000000900460ff1681565b6000805460408051602060026001851615610100027fffffffffffffffffffffffffffffffffffffffffffffffffffffffffffffffff0190941693909304601f810184900484028201840190925281815292918301828280156106fb5780601f106106d0576101008083540402835291602001916106fb565b820191906000526020600020905b8154815290600101906020018083116106de57829003601f168201915b505050505081565b33600081815260056020908152604080832073ffffffffffffffffffffffffffffffffffffffff8716808552908352818420869055815186815291519394909390927f8c5be1e5ebec7d5bd14f71427d1e84f3dd0314c0f7b2291e5b200ac8c7c3b925928290030190a350600192915050565b60065473ffffffffffffffffffffffffffffffffffffffff16331461079a57600080fd5b6107a381610edd565b15156107ae57600080fd5b600780547fffffffffffffffffffffffff00000000000000000000000000000000000000001673ffffffffffffffffffffffffffffffffffffffff92909216919091179055565b60045490565b6000610808848484610ee5565b151561081357600080fd5b61081e8484846110b7565b5060019392505050565b60025460ff1681565b600061083d8383610dc5565b9392505050565b60008473ffffffffffffffffffffffffffffffffffffffff811615801590610882575073ffffffffffffffffffffffffffffffffffffffff81163014155b151561088d57600080fd5b610897868661115b565b15156108a257600080fd5b8573ffffffffffffffffffffffffffffffffffffffff163373ffffffffffffffffffffffffffffffffffffffff167fe19260aff97b920c7df27010903aeb9c8d2be5d310a2c67824cf3f15396e4c16878787604051808481526020018060200182810382528484828181526020019250808284376040519201829003965090945050505050a361093186610edd565b1561097d5761097233878787878080601f01602080910402602001604051908101604052809392919081815260200183838082843750611167945050505050565b151561097d57600080fd5b50600195945050505050565b60065460009073ffffffffffffffffffffffffffffffffffffffff1633146109b057600080fd5b60065474010000000000000000000000000000000000000000900460ff16156109d857600080fd5b6004546109eb908363ffffffff61134216565b60045573ffffffffffffffffffffffffffffffffffffffff8316600090815260036020526040902054610a24908363ffffffff61134216565b73ffffffffffffffffffffffffffffffffffffffff8416600081815260036020908152604091829020939093558051858152905191927f0f6798a560793a54c3bcfe86a93cde1e73087d944c0ea20544137d412139688592918290030190a260408051838152905173ffffffffffffffffffffffffffffffffffffffff8516916000917fddf252ad1be2c89b69c2b068fc378daa952ba7f163c4a11628f55a4df523b3ef9181900360200190a350600192915050565b610ae43382611355565b50565b33600090815260056020908152604080832073ffffffffffffffffffffffffffffffffffffffff86168452909152812054808310610b555733600090815260056020908152604080832073ffffffffffffffffffffffffffffffffffffffff88168452909152812055610b97565b610b65818463ffffffff61149716565b33600090815260056020908152604080832073ffffffffffffffffffffffffffffffffffffffff891684529091529020555b33600081815260056020908152604080832073ffffffffffffffffffffffffffffffffffffffff89168085529083529281902054815190815290519293927f8c5be1e5ebec7d5bd14f71427d1e84f3dd0314c0f7b2291e5b200ac8c7c3b925929181900390910190a35060019392505050565b60065473ffffffffffffffffffffffffffffffffffffffff163314610c2e57600080fd5b8073ffffffffffffffffffffffffffffffffffffffff81161515610c5157600080fd5b610c5b83836114a9565b505050565b73ffffffffffffffffffffffffffffffffffffffff1660009081526003602052604090205490565b60065473ffffffffffffffffffffffffffffffffffffffff16331461015357600080fd5b60075473ffffffffffffffffffffffffffffffffffffffff90811691161490565b6000806000fd5b6002806000909192565b60065473ffffffffffffffffffffffffffffffffffffffff1681565b60018054604080516020600284861615610100027fffffffffffffffffffffffffffffffffffffffffffffffffffffffffffffffff0190941693909304601f810184900484028201840190925281815292918301828280156106fb5780601f106106d0576101008083540402835291602001916106fb565b600061083d8383610ae7565b6000610d8a838361115b565b1515610d9557600080fd5b610da03384846110b7565b50600192915050565b60075473ffffffffffffffffffffffffffffffffffffffff1690565b33600090815260056020908152604080832073ffffffffffffffffffffffffffffffffffffffff86168452909152812054610e06908363ffffffff61134216565b33600081815260056020908152604080832073ffffffffffffffffffffffffffffffffffffffff89168085529083529281902085905580519485525191937f8c5be1e5ebec7d5bd14f71427d1e84f3dd0314c0f7b2291e5b200ac8c7c3b925929081900390910190a350600192915050565b73ffffffffffffffffffffffffffffffffffffffff918216600090815260056020908152604080832093909416825291909152205490565b60065473ffffffffffffffffffffffffffffffffffffffff163314610ed457600080fd5b610ae4816114e2565b6000903b1190565b73ffffffffffffffffffffffffffffffffffffffff8316600090815260036020526040812054821115610f1757600080fd5b73ffffffffffffffffffffffffffffffffffffffff84166000908152600560209081526040808320338452909152902054821115610f5457600080fd5b73ffffffffffffffffffffffffffffffffffffffff83161515610f7657600080fd5b73ffffffffffffffffffffffffffffffffffffffff8416600090815260036020526040902054610fac908363ffffffff61149716565b73ffffffffffffffffffffffffffffffffffffffff8086166000908152600360205260408082209390935590851681522054610fee908363ffffffff61134216565b73ffffffffffffffffffffffffffffffffffffffff808516600090815260036020908152604080832094909455918716815260058252828120338252909152205461103f908363ffffffff61149716565b73ffffffffffffffffffffffffffffffffffffffff808616600081815260056020908152604080832033845282529182902094909455805186815290519287169391927fddf252ad1be2c89b69c2b068fc378daa952ba7f163c4a11628f55a4df523b3ef929181900390910190a35060019392505050565b6110c082610edd565b80156110e757506040805160008152602081019091526110e590849084908490611167565b155b15610c5b576110f582610cac565b156110ff57600080fd5b6040805173ffffffffffffffffffffffffffffffffffffffff80861682528416602082015280820183905290517f11249f0fc79fc134a15a10d1da8291b79515bf987e036ced05b9ec119614070b9181900360600190a1505050565b600061083d8383611592565b60008373ffffffffffffffffffffffffffffffffffffffff1663a4c0ed367c010000000000000000000000000000000000000000000000000000000002868585604051602401808473ffffffffffffffffffffffffffffffffffffffff1673ffffffffffffffffffffffffffffffffffffffff16815260200183815260200180602001828103825283818151815260200191508051906020019080838360005b8381101561121f578181015183820152602001611207565b50505050905090810190601f16801561124c5780820380516001836020036101000a031916815260200191505b50604080517fffffffffffffffffffffffffffffffffffffffffffffffffffffffffffffffe08184030181529181526020820180517bffffffffffffffffffffffffffffffffffffffffffffffffffffffff167fffffffff00000000000000000000000000000000000000000000000000000000909916989098178852518151919790965086955093509150819050838360005b838110156112f85781810151838201526020016112e0565b50505050905090810190601f1680156113255780820380516001836020036101000a031916815260200191505b509150506000604051808303816000865af1979650505050505050565b8181018281101561134f57fe5b92915050565b73ffffffffffffffffffffffffffffffffffffffff821660009081526003602052604090205481111561138757600080fd5b73ffffffffffffffffffffffffffffffffffffffff82166000908152600360205260409020546113bd908263ffffffff61149716565b73ffffffffffffffffffffffffffffffffffffffff83166000908152600360205260409020556004546113f6908263ffffffff61149716565b60045560408051828152905173ffffffffffffffffffffffffffffffffffffffff8416917fcc16f5dbb4873280815c1ee09dbd06736cffcc184412cf7a71a0fdb75d397ca5919081900360200190a260408051828152905160009173ffffffffffffffffffffffffffffffffffffffff8516917fddf252ad1be2c89b69c2b068fc378daa952ba7f163c4a11628f55a4df523b3ef9181900360200190a35050565b6000828211156114a357fe5b50900390565b73ffffffffffffffffffffffffffffffffffffffff821615156114d4576114cf8161169a565b6114de565b6114de82826116a6565b5050565b73ffffffffffffffffffffffffffffffffffffffff8116151561150457600080fd5b60065460405173ffffffffffffffffffffffffffffffffffffffff8084169216907f8be0079c531659141344cd1fd0a4f28419497f9722a3daafe3b4186f6b6457e090600090a3600680547fffffffffffffffffffffffff00000000000000000000000000000000000000001673ffffffffffffffffffffffffffffffffffffffff92909216919091179055565b336000908152600360205260408120548211156115ae57600080fd5b73ffffffffffffffffffffffffffffffffffffffff831615156115d057600080fd5b336000908152600360205260409020546115f0908363ffffffff61149716565b336000908152600360205260408082209290925573ffffffffffffffffffffffffffffffffffffffff85168152205461162f908363ffffffff61134216565b73ffffffffffffffffffffffffffffffffffffffff84166000818152600360209081526040918290209390935580518581529051919233927fddf252ad1be2c89b69c2b068fc378daa952ba7f163c4a11628f55a4df523b3ef9281900390910190a350600192915050565b30316114de8282611757565b604080517f70a082310000000000000000000000000000000000000000000000000000000081523060048201529051839160009173ffffffffffffffffffffffffffffffffffffffff8416916370a0823191602480830192602092919082900301818787803b15801561171857600080fd5b505af115801561172c573d6000803e3d6000fd5b505050506040513d602081101561174257600080fd5b505190506117518484836117d9565b50505050565b60405173ffffffffffffffffffffffffffffffffffffffff83169082156108fc029083906000818181858888f1935050505015156114de57808261179961189d565b73ffffffffffffffffffffffffffffffffffffffff9091168152604051908190036020019082f0801580156117d2573d6000803e3d6000fd5b5050505050565b6040805173ffffffffffffffffffffffffffffffffffffffff841660248201526044808201849052825180830390910181526064909101909152602081810180517bffffffffffffffffffffffffffffffffffffffffffffffffffffffff167fa9059cbb000000000000000000000000000000000000000000000000000000001781528251606093600093909290918491828a5af160005193508392508080156101535750506000835111156118955781151561189557600080fd5b505050505050565b6040516021806118ad833901905600608060405260405160208060218339810160405251600160a060020a038116ff00a165627a7a723058206b65aa13640951ab9288421ad80b82734efc5b7f0735f17347b5d86fdc2adc4f0029",
  "linkReferences": {},
  "deployedLinkReferences": {}
}