{
  "_format": "hh-sol-artifact-1",
  "contractName": "PermittableToken",
  "sourceName": "contracts/Tokens/BridgeToken.sol",
  "abi": [
    {
      "constant": true,
      "inputs": [],
      "name": "mintingFinished",
      "outputs": [
        {
          "name": "",
          "type": "bool"
        }
      ],
      "payable": false,
      "stateMutability": "view",
      "type": "function"
    },
    {
      "constant": true,
      "inputs": [],
      "name": "name",
      "outputs": [
        {
          "name": "",
          "type": "string"
        }
      ],
      "payable": false,
      "stateMutability": "view",
      "type": "function"
    },
    {
      "constant": false,
      "inputs": [
        {
          "name": "_spender",
          "type": "address"
        },
        {
          "name": "_value",
          "type": "uint256"
        }
      ],
      "name": "approve",
      "outputs": [
        {
          "name": "",
          "type": "bool"
        }
      ],
      "payable": false,
      "stateMutability": "nonpayable",
      "type": "function"
    },
    {
      "constant": false,
      "inputs": [
        {
          "name": "_bridgeContract",
          "type": "address"
        }
      ],
      "name": "setBridgeContract",
      "outputs": [],
      "payable": false,
      "stateMutability": "nonpayable",
      "type": "function"
    },
    {
      "constant": true,
      "inputs": [],
      "name": "totalSupply",
      "outputs": [
        {
          "name": "",
          "type": "uint256"
        }
      ],
      "payable": false,
      "stateMutability": "view",
      "type": "function"
    },
    {
      "constant": false,
      "inputs": [
        {
          "name": "_sender",
          "type": "address"
        },
        {
          "name": "_recipient",
          "type": "address"
        },
        {
          "name": "_amount",
          "type": "uint256"
        }
      ],
      "name": "transferFrom",
      "outputs": [
        {
          "name": "",
          "type": "bool"
        }
      ],
      "payable": false,
      "stateMutability": "nonpayable",
      "type": "function"
    },
    {
      "constant": true,
      "inputs": [],
      "name": "PERMIT_TYPEHASH",
      "outputs": [
        {
          "name": "",
          "type": "bytes32"
        }
      ],
      "payable": false,
      "stateMutability": "view",
      "type": "function"
    },
    {
      "constant": true,
      "inputs": [],
      "name": "decimals",
      "outputs": [
        {
          "name": "",
          "type": "uint8"
        }
      ],
      "payable": false,
      "stateMutability": "view",
      "type": "function"
    },
    {
      "constant": true,
      "inputs": [],
      "name": "DOMAIN_SEPARATOR",
      "outputs": [
        {
          "name": "",
          "type": "bytes32"
        }
      ],
      "payable": false,
      "stateMutability": "view",
      "type": "function"
    },
    {
      "constant": false,
      "inputs": [
        {
          "name": "spender",
          "type": "address"
        },
        {
          "name": "addedValue",
          "type": "uint256"
        }
      ],
      "name": "increaseAllowance",
      "outputs": [
        {
          "name": "",
          "type": "bool"
        }
      ],
      "payable": false,
      "stateMutability": "nonpayable",
      "type": "function"
    },
    {
      "constant": false,
      "inputs": [
        {
          "name": "_to",
          "type": "address"
        },
        {
          "name": "_value",
          "type": "uint256"
        },
        {
          "name": "_data",
          "type": "bytes"
        }
      ],
      "name": "transferAndCall",
      "outputs": [
        {
          "name": "",
          "type": "bool"
        }
      ],
      "payable": false,
      "stateMutability": "nonpayable",
      "type": "function"
    },
    {
      "constant": false,
      "inputs": [
        {
          "name": "_to",
          "type": "address"
        },
        {
          "name": "_amount",
          "type": "uint256"
        }
      ],
      "name": "mint",
      "outputs": [
        {
          "name": "",
          "type": "bool"
        }
      ],
      "payable": false,
      "stateMutability": "nonpayable",
      "type": "function"
    },
    {
      "constant": false,
      "inputs": [
        {
          "name": "_value",
          "type": "uint256"
        }
      ],
      "name": "burn",
      "outputs": [],
      "payable": false,
      "stateMutability": "nonpayable",
      "type": "function"
    },
    {
      "constant": true,
      "inputs": [],
      "name": "version",
      "outputs": [
        {
          "name": "",
          "type": "string"
        }
      ],
      "payable": false,
      "stateMutability": "view",
      "type": "function"
    },
    {
      "constant": false,
      "inputs": [
        {
          "name": "_spender",
          "type": "address"
        },
        {
          "name": "_subtractedValue",
          "type": "uint256"
        }
      ],
      "name": "decreaseApproval",
      "outputs": [
        {
          "name": "",
          "type": "bool"
        }
      ],
      "payable": false,
      "stateMutability": "nonpayable",
      "type": "function"
    },
    {
      "constant": false,
      "inputs": [
        {
          "name": "_token",
          "type": "address"
        },
        {
          "name": "_to",
          "type": "address"
        }
      ],
      "name": "claimTokens",
      "outputs": [],
      "payable": false,
      "stateMutability": "nonpayable",
      "type": "function"
    },
    {
      "constant": true,
      "inputs": [
        {
          "name": "_owner",
          "type": "address"
        }
      ],
      "name": "balanceOf",
      "outputs": [
        {
          "name": "",
          "type": "uint256"
        }
      ],
      "payable": false,
      "stateMutability": "view",
      "type": "function"
    },
    {
      "constant": false,
      "inputs": [],
      "name": "renounceOwnership",
      "outputs": [],
      "payable": false,
      "stateMutability": "nonpayable",
      "type": "function"
    },
    {
      "constant": true,
      "inputs": [
        {
          "name": "_address",
          "type": "address"
        }
      ],
      "name": "isBridge",
      "outputs": [
        {
          "name": "",
          "type": "bool"
        }
      ],
      "payable": false,
      "stateMutability": "view",
      "type": "function"
    },
    {
      "constant": false,
      "inputs": [],
      "name": "finishMinting",
      "outputs": [
        {
          "name": "",
          "type": "bool"
        }
      ],
      "payable": false,
      "stateMutability": "nonpayable",
      "type": "function"
    },
    {
      "constant": true,
      "inputs": [
        {
          "name": "",
          "type": "address"
        }
      ],
      "name": "nonces",
      "outputs": [
        {
          "name": "",
          "type": "uint256"
        }
      ],
      "payable": false,
      "stateMutability": "view",
      "type": "function"
    },
    {
      "constant": true,
      "inputs": [],
      "name": "getTokenInterfacesVersion",
      "outputs": [
        {
          "name": "major",
          "type": "uint64"
        },
        {
          "name": "minor",
          "type": "uint64"
        },
        {
          "name": "patch",
          "type": "uint64"
        }
      ],
      "payable": false,
      "stateMutability": "pure",
      "type": "function"
    },
    {
      "constant": true,
      "inputs": [],
      "name": "owner",
      "outputs": [
        {
          "name": "",
          "type": "address"
        }
      ],
      "payable": false,
      "stateMutability": "view",
      "type": "function"
    },
    {
      "constant": false,
      "inputs": [
        {
          "name": "_holder",
          "type": "address"
        },
        {
          "name": "_spender",
          "type": "address"
        },
        {
          "name": "_nonce",
          "type": "uint256"
        },
        {
          "name": "_expiry",
          "type": "uint256"
        },
        {
          "name": "_allowed",
          "type": "bool"
        },
        {
          "name": "_v",
          "type": "uint8"
        },
        {
          "name": "_r",
          "type": "bytes32"
        },
        {
          "name": "_s",
          "type": "bytes32"
        }
      ],
      "name": "permit",
      "outputs": [],
      "payable": false,
      "stateMutability": "nonpayable",
      "type": "function"
    },
    {
      "constant": true,
      "inputs": [],
      "name": "symbol",
      "outputs": [
        {
          "name": "",
          "type": "string"
        }
      ],
      "payable": false,
      "stateMutability": "view",
      "type": "function"
    },
    {
      "constant": false,
      "inputs": [
        {
          "name": "spender",
          "type": "address"
        },
        {
          "name": "subtractedValue",
          "type": "uint256"
        }
      ],
      "name": "decreaseAllowance",
      "outputs": [
        {
          "name": "",
          "type": "bool"
        }
      ],
      "payable": false,
      "stateMutability": "nonpayable",
      "type": "function"
    },
    {
      "constant": false,
      "inputs": [
        {
          "name": "_to",
          "type": "address"
        },
        {
          "name": "_value",
          "type": "uint256"
        }
      ],
      "name": "transfer",
      "outputs": [
        {
          "name": "",
          "type": "bool"
        }
      ],
      "payable": false,
      "stateMutability": "nonpayable",
      "type": "function"
    },
    {
      "constant": false,
      "inputs": [
        {
          "name": "_to",
          "type": "address"
        },
        {
          "name": "_amount",
          "type": "uint256"
        }
      ],
      "name": "push",
      "outputs": [],
      "payable": false,
      "stateMutability": "nonpayable",
      "type": "function"
    },
    {
      "constant": false,
      "inputs": [
        {
          "name": "_from",
          "type": "address"
        },
        {
          "name": "_to",
          "type": "address"
        },
        {
          "name": "_amount",
          "type": "uint256"
        }
      ],
      "name": "move",
      "outputs": [],
      "payable": false,
      "stateMutability": "nonpayable",
      "type": "function"
    },
    {
      "constant": true,
      "inputs": [],
      "name": "bridgeContract",
      "outputs": [
        {
          "name": "",
          "type": "address"
        }
      ],
      "payable": false,
      "stateMutability": "view",
      "type": "function"
    },
    {
      "constant": false,
      "inputs": [
        {
          "name": "_spender",
          "type": "address"
        },
        {
          "name": "_addedValue",
          "type": "uint256"
        }
      ],
      "name": "increaseApproval",
      "outputs": [
        {
          "name": "",
          "type": "bool"
        }
      ],
      "payable": false,
      "stateMutability": "nonpayable",
      "type": "function"
    },
    {
      "constant": true,
      "inputs": [
        {
          "name": "_owner",
          "type": "address"
        },
        {
          "name": "_spender",
          "type": "address"
        }
      ],
      "name": "allowance",
      "outputs": [
        {
          "name": "",
          "type": "uint256"
        }
      ],
      "payable": false,
      "stateMutability": "view",
      "type": "function"
    },
    {
      "constant": false,
      "inputs": [
        {
          "name": "_from",
          "type": "address"
        },
        {
          "name": "_amount",
          "type": "uint256"
        }
      ],
      "name": "pull",
      "outputs": [],
      "payable": false,
      "stateMutability": "nonpayable",
      "type": "function"
    },
    {
      "constant": false,
      "inputs": [
        {
          "name": "_newOwner",
          "type": "address"
        }
      ],
      "name": "transferOwnership",
      "outputs": [],
      "payable": false,
      "stateMutability": "nonpayable",
      "type": "function"
    },
    {
      "constant": true,
      "inputs": [
        {
          "name": "",
          "type": "address"
        },
        {
          "name": "",
          "type": "address"
        }
      ],
      "name": "expirations",
      "outputs": [
        {
          "name": "",
          "type": "uint256"
        }
      ],
      "payable": false,
      "stateMutability": "view",
      "type": "function"
    },
    {
      "inputs": [
        {
          "name": "_name",
          "type": "string"
        },
        {
          "name": "_symbol",
          "type": "string"
        },
        {
          "name": "_decimals",
          "type": "uint8"
        },
        {
          "name": "_chainId",
          "type": "uint256"
        }
      ],
      "payable": false,
      "stateMutability": "nonpayable",
      "type": "constructor"
    },
    {
      "anonymous": false,
      "inputs": [
        {
          "indexed": false,
          "name": "from",
          "type": "address"
        },
        {
          "indexed": false,
          "name": "to",
          "type": "address"
        },
        {
          "indexed": false,
          "name": "value",
          "type": "uint256"
        }
      ],
      "name": "ContractFallbackCallFailed",
      "type": "event"
    },
    {
      "anonymous": false,
      "inputs": [
        {
          "indexed": true,
          "name": "to",
          "type": "address"
        },
        {
          "indexed": false,
          "name": "amount",
          "type": "uint256"
        }
      ],
      "name": "Mint",
      "type": "event"
    },
    {
      "anonymous": false,
      "inputs": [],
      "name": "MintFinished",
      "type": "event"
    },
    {
      "anonymous": false,
      "inputs": [
        {
          "indexed": true,
          "name": "previousOwner",
          "type": "address"
        }
      ],
      "name": "OwnershipRenounced",
      "type": "event"
    },
    {
      "anonymous": false,
      "inputs": [
        {
          "indexed": true,
          "name": "previousOwner",
          "type": "address"
        },
        {
          "indexed": true,
          "name": "newOwner",
          "type": "address"
        }
      ],
      "name": "OwnershipTransferred",
      "type": "event"
    },
    {
      "anonymous": false,
      "inputs": [
        {
          "indexed": true,
          "name": "burner",
          "type": "address"
        },
        {
          "indexed": false,
          "name": "value",
          "type": "uint256"
        }
      ],
      "name": "Burn",
      "type": "event"
    },
    {
      "anonymous": false,
      "inputs": [
        {
          "indexed": true,
          "name": "from",
          "type": "address"
        },
        {
          "indexed": true,
          "name": "to",
          "type": "address"
        },
        {
          "indexed": false,
          "name": "value",
          "type": "uint256"
        },
        {
          "indexed": false,
          "name": "data",
          "type": "bytes"
        }
      ],
      "name": "Transfer",
      "type": "event"
    },
    {
      "anonymous": false,
      "inputs": [
        {
          "indexed": true,
          "name": "owner",
          "type": "address"
        },
        {
          "indexed": true,
          "name": "spender",
          "type": "address"
        },
        {
          "indexed": false,
          "name": "value",
          "type": "uint256"
        }
      ],
      "name": "Approval",
      "type": "event"
    },
    {
      "anonymous": false,
      "inputs": [
        {
          "indexed": true,
          "name": "from",
          "type": "address"
        },
        {
          "indexed": true,
          "name": "to",
          "type": "address"
        },
        {
          "indexed": false,
          "name": "value",
          "type": "uint256"
        }
      ],
      "name": "Transfer",
      "type": "event"
    }
  ],
  "bytecode": "0x60806040526006805460a060020a60ff02191690553480156200002157600080fd5b506040516200249c3803806200249c83398101604090815281516020808401519284015160608501519285018051909594909401939092918591859185918491849184916200007691600091860190620002d0565b5081516200008c906001906020850190620002d0565b506002805460ff90921660ff19909216919091179055505060068054600160a060020a03191633179055505050801515620000c657600080fd5b60405180807f454950373132446f6d61696e28737472696e67206e616d652c737472696e672081526020017f76657273696f6e2c75696e7432353620636861696e49642c616464726573732081526020017f766572696679696e67436f6e747261637429000000000000000000000000000081525060520190506040518091039020846040518082805190602001908083835b602083106200017a5780518252601f19909201916020918201910162000159565b51815160209384036101000a600019018019909216911617905260408051929094018290038220828501855260018084527f3100000000000000000000000000000000000000000000000000000000000000928401928352945190965091945090928392508083835b60208310620002045780518252601f199092019160209182019101620001e3565b51815160209384036101000a6000190180199092169116179052604080519290940182900382208282019890985281840196909652606081019690965250608085018690523060a0808701919091528151808703909101815260c09095019081905284519093849350850191508083835b60208310620002965780518252601f19909201916020918201910162000275565b5181516020939093036101000a60001901801990911692169190911790526040519201829003909120600855506200037595505050505050565b828054600181600116156101000203166002900490600052602060002090601f016020900481019282601f106200031357805160ff191683800117855562000343565b8280016001018555821562000343579182015b828111156200034357825182559160200191906001019062000326565b506200035192915062000355565b5090565b6200037291905b808211156200035157600081556001016200035c565b90565b61211780620003856000396000f3006080604052600436106101b65763ffffffff7c010000000000000000000000000000000000000000000000000000000060003504166305d2035b81146101bb57806306fdde03146101e4578063095ea7b31461026e5780630b26cf661461029f57806318160ddd146102cf57806323b872dd146102f657806330adf81f1461032d578063313ce567146103425780633644e5151461036d57806339509351146103825780634000aea0146103b357806340c10f19146103f157806342966c681461042257806354fd4d501461043a578063661884631461044f57806369ffa08a1461048057806370a08231146104b4578063715018a6146104e2578063726600ce146104f75780637d64bcb4146105255780637ecebe001461053a578063859ba28c146105685780638da5cb5b146105a95780638fcbaf0c146105e757806395d89b4114610632578063a457c2d714610647578063a9059cbb14610678578063b753a98c146106a9578063bb35783b146106da578063cd59658314610711578063d73dd62314610726578063dd62ed3e14610757578063f2d5d56b1461078b578063f2fde38b146107bc578063ff9e884d146107ea575b600080fd5b3480156101c757600080fd5b506101d061081e565b604080519115158252519081900360200190f35b3480156101f057600080fd5b506101f961083f565b6040805160208082528351818301528351919283929083019185019080838360005b8381101561023357818101518382015260200161021b565b50505050905090810190601f1680156102605780820380516001836020036101000a031916815260200191505b509250505060405180910390f35b34801561027a57600080fd5b506101d073ffffffffffffffffffffffffffffffffffffffff600435166024356108eb565b3480156102ab57600080fd5b506102cd73ffffffffffffffffffffffffffffffffffffffff6004351661095e565b005b3480156102db57600080fd5b506102e46109dd565b60408051918252519081900360200190f35b34801561030257600080fd5b506101d073ffffffffffffffffffffffffffffffffffffffff600435811690602435166044356109e3565b34801561033957600080fd5b506102e4610c69565b34801561034e57600080fd5b50610357610c8d565b6040805160ff9092168252519081900360200190f35b34801561037957600080fd5b506102e4610c96565b34801561038e57600080fd5b506101d073ffffffffffffffffffffffffffffffffffffffff60043516602435610c9c565b3480156103bf57600080fd5b506101d06004803573ffffffffffffffffffffffffffffffffffffffff16906024803591604435918201910135610caf565b3480156103fd57600080fd5b506101d073ffffffffffffffffffffffffffffffffffffffff60043516602435610df4565b34801561042e57600080fd5b506102cd600435610f45565b34801561044657600080fd5b506101f9610f52565b34801561045b57600080fd5b506101d073ffffffffffffffffffffffffffffffffffffffff60043516602435610f89565b34801561048c57600080fd5b506102cd73ffffffffffffffffffffffffffffffffffffffff600435811690602435166110ac565b3480156104c057600080fd5b506102e473ffffffffffffffffffffffffffffffffffffffff60043516611102565b3480156104ee57600080fd5b506102cd61112a565b34801561050357600080fd5b506101d073ffffffffffffffffffffffffffffffffffffffff6004351661114e565b34801561053157600080fd5b506101d061116f565b34801561054657600080fd5b506102e473ffffffffffffffffffffffffffffffffffffffff60043516611176565b34801561057457600080fd5b5061057d611188565b6040805167ffffffffffffffff9485168152928416602084015292168183015290519081900360600190f35b3480156105b557600080fd5b506105be611193565b6040805173ffffffffffffffffffffffffffffffffffffffff9092168252519081900360200190f35b3480156105f357600080fd5b506102cd73ffffffffffffffffffffffffffffffffffffffff60043581169060243516604435606435608435151560ff60a4351660c43560e4356111af565b34801561063e57600080fd5b506101f96116a8565b34801561065357600080fd5b506101d073ffffffffffffffffffffffffffffffffffffffff60043516602435611720565b34801561068457600080fd5b506101d073ffffffffffffffffffffffffffffffffffffffff6004351660243561172c565b3480156106b557600080fd5b506102cd73ffffffffffffffffffffffffffffffffffffffff60043516602435611757565b3480156106e657600080fd5b506102cd73ffffffffffffffffffffffffffffffffffffffff60043581169060243516604435611762565b34801561071d57600080fd5b506105be611773565b34801561073257600080fd5b506101d073ffffffffffffffffffffffffffffffffffffffff6004351660243561178f565b34801561076357600080fd5b506102e473ffffffffffffffffffffffffffffffffffffffff60043581169060243516611842565b34801561079757600080fd5b506102cd73ffffffffffffffffffffffffffffffffffffffff6004351660243561187a565b3480156107c857600080fd5b506102cd73ffffffffffffffffffffffffffffffffffffffff60043516611885565b3480156107f657600080fd5b506102e473ffffffffffffffffffffffffffffffffffffffff600435811690602435166118b2565b60065474010000000000000000000000000000000000000000900460ff1681565b6000805460408051602060026001851615610100027fffffffffffffffffffffffffffffffffffffffffffffffffffffffffffffffff0190941693909304601f810184900484028201840190925281815292918301828280156108e35780601f106108b8576101008083540402835291602001916108e3565b820191906000526020600020905b8154815290600101906020018083116108c657829003601f168201915b505050505081565b33600081815260056020908152604080832073ffffffffffffffffffffffffffffffffffffffff8716808552908352818420869055815186815291519394909390927f8c5be1e5ebec7d5bd14f71427d1e84f3dd0314c0f7b2291e5b200ac8c7c3b925928290030190a350600192915050565b60065473ffffffffffffffffffffffffffffffffffffffff16331461098257600080fd5b61098b816118cf565b151561099657600080fd5b600780547fffffffffffffffffffffffff00000000000000000000000000000000000000001673ffffffffffffffffffffffffffffffffffffffff92909216919091179055565b60045490565b60008073ffffffffffffffffffffffffffffffffffffffff85161515610a0857600080fd5b73ffffffffffffffffffffffffffffffffffffffff84161515610a2a57600080fd5b73ffffffffffffffffffffffffffffffffffffffff8516600090815260036020526040902054610a60908463ffffffff6118d716565b73ffffffffffffffffffffffffffffffffffffffff8087166000908152600360205260408082209390935590861681522054610aa2908463ffffffff6118e916565b73ffffffffffffffffffffffffffffffffffffffff80861660008181526003602090815260409182902094909455805187815290519193928916927fddf252ad1be2c89b69c2b068fc378daa952ba7f163c4a11628f55a4df523b3ef92918290030190a373ffffffffffffffffffffffffffffffffffffffff85163314610c5357610b2d8533611842565b90507fffffffffffffffffffffffffffffffffffffffffffffffffffffffffffffffff8114610bd457610b66818463ffffffff6118d716565b73ffffffffffffffffffffffffffffffffffffffff86166000818152600560209081526040808320338085529083529281902085905580519485525191937f8c5be1e5ebec7d5bd14f71427d1e84f3dd0314c0f7b2291e5b200ac8c7c3b925929081900390910190a3610c53565b73ffffffffffffffffffffffffffffffffffffffff85166000908152600a602090815260408083203384529091529020541580610c485750610c146118fc565b73ffffffffffffffffffffffffffffffffffffffff86166000908152600a6020908152604080832033845290915290205410155b1515610c5357600080fd5b610c5e858585611900565b506001949350505050565b7fea2aa0a1be11a07ed86d755c93467f4f82362b452371d1ba94d1715123511acb81565b60025460ff1681565b60085481565b6000610ca8838361178f565b9392505050565b60008473ffffffffffffffffffffffffffffffffffffffff811615801590610ced575073ffffffffffffffffffffffffffffffffffffffff81163014155b1515610cf857600080fd5b610d0286866119a4565b1515610d0d57600080fd5b8573ffffffffffffffffffffffffffffffffffffffff163373ffffffffffffffffffffffffffffffffffffffff167fe19260aff97b920c7df27010903aeb9c8d2be5d310a2c67824cf3f15396e4c16878787604051808481526020018060200182810382528484828181526020019250808284376040519201829003965090945050505050a3610d9c866118cf565b15610de857610ddd33878787878080601f016020809104026020016040519081016040528093929190818152602001838380828437506119b0945050505050565b1515610de857600080fd5b50600195945050505050565b60065460009073ffffffffffffffffffffffffffffffffffffffff163314610e1b57600080fd5b60065474010000000000000000000000000000000000000000900460ff1615610e4357600080fd5b600454610e56908363ffffffff6118e916565b60045573ffffffffffffffffffffffffffffffffffffffff8316600090815260036020526040902054610e8f908363ffffffff6118e916565b73ffffffffffffffffffffffffffffffffffffffff8416600081815260036020908152604091829020939093558051858152905191927f0f6798a560793a54c3bcfe86a93cde1e73087d944c0ea20544137d412139688592918290030190a260408051838152905173ffffffffffffffffffffffffffffffffffffffff8516916000917fddf252ad1be2c89b69c2b068fc378daa952ba7f163c4a11628f55a4df523b3ef9181900360200190a350600192915050565b610f4f3382611b8b565b50565b60408051808201909152600181527f3100000000000000000000000000000000000000000000000000000000000000602082015281565b33600090815260056020908152604080832073ffffffffffffffffffffffffffffffffffffffff86168452909152812054808310610ff75733600090815260056020908152604080832073ffffffffffffffffffffffffffffffffffffffff88168452909152812055611039565b611007818463ffffffff6118d716565b33600090815260056020908152604080832073ffffffffffffffffffffffffffffffffffffffff891684529091529020555b33600081815260056020908152604080832073ffffffffffffffffffffffffffffffffffffffff89168085529083529281902054815190815290519293927f8c5be1e5ebec7d5bd14f71427d1e84f3dd0314c0f7b2291e5b200ac8c7c3b925929181900390910190a35060019392505050565b60065473ffffffffffffffffffffffffffffffffffffffff1633146110d057600080fd5b8073ffffffffffffffffffffffffffffffffffffffff811615156110f357600080fd5b6110fd8383611ccd565b505050565b73ffffffffffffffffffffffffffffffffffffffff1660009081526003602052604090205490565b60065473ffffffffffffffffffffffffffffffffffffffff1633146101b657600080fd5b60075473ffffffffffffffffffffffffffffffffffffffff90811691161490565b6000806000fd5b60096020526000908152604090205481565b600260036000909192565b60065473ffffffffffffffffffffffffffffffffffffffff1681565b60008073ffffffffffffffffffffffffffffffffffffffff8a1615156111d457600080fd5b73ffffffffffffffffffffffffffffffffffffffff891615156111f657600080fd5b86158061120a5750866112076118fc565b11155b151561121557600080fd5b600854604080517fea2aa0a1be11a07ed86d755c93467f4f82362b452371d1ba94d1715123511acb60208083019190915273ffffffffffffffffffffffffffffffffffffffff808f16838501528d166060830152608082018c905260a082018b905289151560c0808401919091528351808403909101815260e090920192839052815191929182918401908083835b602083106112e157805182527fffffffffffffffffffffffffffffffffffffffffffffffffffffffffffffffe090920191602091820191016112a4565b51815160209384036101000a7fffffffffffffffffffffffffffffffffffffffffffffffffffffffffffffffff0180199092169116179052604080519290940182900382207f190100000000000000000000000000000000000000000000000000000000000083830152602283019790975260428083019790975283518083039097018752606290910192839052855192945084935085019190508083835b602083106113bd57805182527fffffffffffffffffffffffffffffffffffffffffffffffffffffffffffffffe09092019160209182019101611380565b51815160209384036101000a7fffffffffffffffffffffffffffffffffffffffffffffffffffffffffffffffff018019909216911617905260408051929094018290038220600080845283830180875282905260ff8d1684870152606084018c9052608084018b905294519098506001965060a0808401965091947fffffffffffffffffffffffffffffffffffffffffffffffffffffffffffffffe0820194509281900390910191865af1158015611479573d6000803e3d6000fd5b5050506020604051035173ffffffffffffffffffffffffffffffffffffffff168a73ffffffffffffffffffffffffffffffffffffffff1614151561151e57604080517f08c379a000000000000000000000000000000000000000000000000000000000815260206004820152600e60248201527f5369676174757265204572726f72000000000000000000000000000000000000604482015290519081900360640190fd5b73ffffffffffffffffffffffffffffffffffffffff8a16600090815260096020526040902080546001810190915588146115b957604080517f08c379a000000000000000000000000000000000000000000000000000000000815260206004820152600b60248201527f4e6f6e6365204572726f72000000000000000000000000000000000000000000604482015290519081900360640190fd5b856115c55760006115e7565b7fffffffffffffffffffffffffffffffffffffffffffffffffffffffffffffffff5b73ffffffffffffffffffffffffffffffffffffffff808c166000908152600560209081526040808320938e1683529290522081905590508561162a57600061162c565b865b73ffffffffffffffffffffffffffffffffffffffff808c166000818152600a60209081526040808320948f16808452948252918290209490945580518581529051929391927f8c5be1e5ebec7d5bd14f71427d1e84f3dd0314c0f7b2291e5b200ac8c7c3b925929181900390910190a350505050505050505050565b60018054604080516020600284861615610100027fffffffffffffffffffffffffffffffffffffffffffffffffffffffffffffffff0190941693909304601f810184900484028201840190925281815292918301828280156108e35780601f106108b8576101008083540402835291602001916108e3565b6000610ca88383610f89565b600061173883836119a4565b151561174357600080fd5b61174e338484611900565b50600192915050565b6110fd3383836109e3565b61176d8383836109e3565b50505050565b60075473ffffffffffffffffffffffffffffffffffffffff1690565b33600090815260056020908152604080832073ffffffffffffffffffffffffffffffffffffffff861684529091528120546117d0908363ffffffff6118e916565b33600081815260056020908152604080832073ffffffffffffffffffffffffffffffffffffffff89168085529083529281902085905580519485525191937f8c5be1e5ebec7d5bd14f71427d1e84f3dd0314c0f7b2291e5b200ac8c7c3b925929081900390910190a350600192915050565b73ffffffffffffffffffffffffffffffffffffffff918216600090815260056020908152604080832093909416825291909152205490565b6110fd8233836109e3565b60065473ffffffffffffffffffffffffffffffffffffffff1633146118a957600080fd5b610f4f81611d06565b600a60209081526000928352604080842090915290825290205481565b6000903b1190565b6000828211156118e357fe5b50900390565b818101828110156118f657fe5b92915050565b4290565b611909826118cf565b8015611930575060408051600081526020810190915261192e908490849084906119b0565b155b156110fd5761193e8261114e565b1561194857600080fd5b6040805173ffffffffffffffffffffffffffffffffffffffff80861682528416602082015280820183905290517f11249f0fc79fc134a15a10d1da8291b79515bf987e036ced05b9ec119614070b9181900360600190a1505050565b6000610ca88383611db6565b60008373ffffffffffffffffffffffffffffffffffffffff1663a4c0ed367c010000000000000000000000000000000000000000000000000000000002868585604051602401808473ffffffffffffffffffffffffffffffffffffffff1673ffffffffffffffffffffffffffffffffffffffff16815260200183815260200180602001828103825283818151815260200191508051906020019080838360005b83811015611a68578181015183820152602001611a50565b50505050905090810190601f168015611a955780820380516001836020036101000a031916815260200191505b50604080517fffffffffffffffffffffffffffffffffffffffffffffffffffffffffffffffe08184030181529181526020820180517bffffffffffffffffffffffffffffffffffffffffffffffffffffffff167fffffffff00000000000000000000000000000000000000000000000000000000909916989098178852518151919790965086955093509150819050838360005b83811015611b41578181015183820152602001611b29565b50505050905090810190601f168015611b6e5780820380516001836020036101000a031916815260200191505b509150506000604051808303816000865af1979650505050505050565b73ffffffffffffffffffffffffffffffffffffffff8216600090815260036020526040902054811115611bbd57600080fd5b73ffffffffffffffffffffffffffffffffffffffff8216600090815260036020526040902054611bf3908263ffffffff6118d716565b73ffffffffffffffffffffffffffffffffffffffff8316600090815260036020526040902055600454611c2c908263ffffffff6118d716565b60045560408051828152905173ffffffffffffffffffffffffffffffffffffffff8416917fcc16f5dbb4873280815c1ee09dbd06736cffcc184412cf7a71a0fdb75d397ca5919081900360200190a260408051828152905160009173ffffffffffffffffffffffffffffffffffffffff8516917fddf252ad1be2c89b69c2b068fc378daa952ba7f163c4a11628f55a4df523b3ef9181900360200190a35050565b73ffffffffffffffffffffffffffffffffffffffff82161515611cf857611cf381611ebe565b611d02565b611d028282611eca565b5050565b73ffffffffffffffffffffffffffffffffffffffff81161515611d2857600080fd5b60065460405173ffffffffffffffffffffffffffffffffffffffff8084169216907f8be0079c531659141344cd1fd0a4f28419497f9722a3daafe3b4186f6b6457e090600090a3600680547fffffffffffffffffffffffff00000000000000000000000000000000000000001673ffffffffffffffffffffffffffffffffffffffff92909216919091179055565b33600090815260036020526040812054821115611dd257600080fd5b73ffffffffffffffffffffffffffffffffffffffff83161515611df457600080fd5b33600090815260036020526040902054611e14908363ffffffff6118d716565b336000908152600360205260408082209290925573ffffffffffffffffffffffffffffffffffffffff851681522054611e53908363ffffffff6118e916565b73ffffffffffffffffffffffffffffffffffffffff84166000818152600360209081526040918290209390935580518581529051919233927fddf252ad1be2c89b69c2b068fc378daa952ba7f163c4a11628f55a4df523b3ef9281900390910190a350600192915050565b3031611d028282611f75565b604080517f70a082310000000000000000000000000000000000000000000000000000000081523060048201529051839160009173ffffffffffffffffffffffffffffffffffffffff8416916370a0823191602480830192602092919082900301818787803b158015611f3c57600080fd5b505af1158015611f50573d6000803e3d6000fd5b505050506040513d6020811015611f6657600080fd5b5051905061176d848483611ff7565b60405173ffffffffffffffffffffffffffffffffffffffff83169082156108fc029083906000818181858888f193505050501515611d02578082611fb76120bb565b73ffffffffffffffffffffffffffffffffffffffff9091168152604051908190036020019082f080158015611ff0573d6000803e3d6000fd5b5050505050565b6040805173ffffffffffffffffffffffffffffffffffffffff841660248201526044808201849052825180830390910181526064909101909152602081810180517bffffffffffffffffffffffffffffffffffffffffffffffffffffffff167fa9059cbb000000000000000000000000000000000000000000000000000000001781528251606093600093909290918491828a5af160005193508392508080156101b65750506000835111156120b3578115156120b357600080fd5b505050505050565b6040516021806120cb833901905600608060405260405160208060218339810160405251600160a060020a038116ff00a165627a7a72305820bf9b1845bac56a93caaeccb773312a2fd10a440d963f461d51b916332c3ad4040029",
  "linkReferences": {},
  "deployedLinkReferences": {}
}