{
  "_format": "hh-sol-artifact-1",
  "contractName": "MerkleDistro",
  "sourceName": "contracts/Distributors/MerkleDistro.sol",
  "abi": [
    {
      "anonymous": false,
      "inputs": [
        {
          "indexed": false,
          "internalType": "uint256",
          "name": "index",
          "type": "uint256"
        },
        {
          "indexed": false,
          "internalType": "address",
          "name": "account",
          "type": "address"
        },
        {
          "indexed": false,
          "internalType": "address",
          "name": "recipient",
          "type": "address"
        },
        {
          "indexed": false,
          "internalType": "uint256",
          "name": "amount",
          "type": "uint256"
        }
      ],
      "name": "Claimed",
      "type": "event"
    },
    {
      "anonymous": false,
      "inputs": [
        {
          "indexed": true,
          "internalType": "address",
          "name": "previousOwner",
          "type": "address"
        },
        {
          "indexed": true,
          "internalType": "address",
          "name": "newOwner",
          "type": "address"
        }
      ],
      "name": "OwnershipTransferred",
      "type": "event"
    },
    {
      "inputs": [
        {
          "internalType": "uint256",
          "name": "index",
          "type": "uint256"
        },
        {
          "internalType": "address",
          "name": "account",
          "type": "address"
        },
        {
          "internalType": "uint256",
          "name": "amount",
          "type": "uint256"
        },
        {
          "internalType": "bytes32[]",
          "name": "merkleProof",
          "type": "bytes32[]"
        }
      ],
      "name": "claim",
      "outputs": [],
      "stateMutability": "nonpayable",
      "type": "function"
    },
    {
      "inputs": [
        {
          "internalType": "uint256",
          "name": "index",
          "type": "uint256"
        },
        {
          "internalType": "address",
          "name": "account",
          "type": "address"
        },
        {
          "internalType": "address",
          "name": "recipient",
          "type": "address"
        },
        {
          "internalType": "uint256",
          "name": "amount",
          "type": "uint256"
        },
        {
          "internalType": "bytes32[]",
          "name": "merkleProof",
          "type": "bytes32[]"
        }
      ],
      "name": "claimTo",
      "outputs": [],
      "stateMutability": "nonpayable",
      "type": "function"
    },
    {
      "inputs": [
        {
          "internalType": "contract IDistro",
          "name": "_tokenDistro",
          "type": "address"
        },
        {
          "internalType": "bytes32",
          "name": "_merkleRoot",
          "type": "bytes32"
        }
      ],
      "name": "initialize",
      "outputs": [],
      "stateMutability": "nonpayable",
      "type": "function"
    },
    {
      "inputs": [
        {
          "internalType": "uint256",
          "name": "index",
          "type": "uint256"
        }
      ],
      "name": "isClaimed",
      "outputs": [
        {
          "internalType": "bool",
          "name": "",
          "type": "bool"
        }
      ],
      "stateMutability": "view",
      "type": "function"
    },
    {
      "inputs": [],
      "name": "merkleRoot",
      "outputs": [
        {
          "internalType": "bytes32",
          "name": "",
          "type": "bytes32"
        }
      ],
      "stateMutability": "view",
      "type": "function"
    },
    {
      "inputs": [],
      "name": "owner",
      "outputs": [
        {
          "internalType": "address",
          "name": "",
          "type": "address"
        }
      ],
      "stateMutability": "view",
      "type": "function"
    },
    {
      "inputs": [],
      "name": "renounceOwnership",
      "outputs": [],
      "stateMutability": "nonpayable",
      "type": "function"
    },
    {
      "inputs": [],
      "name": "tokenDistro",
      "outputs": [
        {
          "internalType": "contract IDistro",
          "name": "",
          "type": "address"
        }
      ],
      "stateMutability": "view",
      "type": "function"
    },
    {
      "inputs": [
        {
          "internalType": "address",
          "name": "newOwner",
          "type": "address"
        }
      ],
      "name": "transferOwnership",
      "outputs": [],
      "stateMutability": "nonpayable",
      "type": "function"
    }
  ],
  "bytecode": "0x608060405234801561001057600080fd5b50611260806100206000396000f3fe608060405234801561001057600080fd5b50600436106100a35760003560e01c80638da5cb5b11610076578063be13f47c1161005b578063be13f47c14610156578063ca8af4d414610169578063f2fde38b1461018957600080fd5b80638da5cb5b146100f45780639e34070f1461013357600080fd5b8063054d5e2a146100a85780632e7ba6ef146100bd5780632eb4a7ab146100d0578063715018a6146100ec575b600080fd5b6100bb6100b636600461103c565b61019c565b005b6100bb6100cb3660046110b8565b6104df565b6100d960665481565b6040519081526020015b60405180910390f35b6100bb61079a565b60335473ffffffffffffffffffffffffffffffffffffffff165b60405173ffffffffffffffffffffffffffffffffffffffff90911681526020016100e3565b610146610141366004611023565b610827565b60405190151581526020016100e3565b6100bb610164366004610ff7565b610868565b60655461010e9073ffffffffffffffffffffffffffffffffffffffff1681565b6100bb610197366004610fd3565b6109cd565b60335473ffffffffffffffffffffffffffffffffffffffff163314610222576040517f08c379a000000000000000000000000000000000000000000000000000000000815260206004820181905260248201527f4f776e61626c653a2063616c6c6572206973206e6f7420746865206f776e657260448201526064015b60405180910390fd5b61022b86610827565b156102b8576040517f08c379a000000000000000000000000000000000000000000000000000000000815260206004820152602960248201527f4d65726b6c6544697374726f3a3a636c61696d2044726f7020616c726561647960448201527f20636c61696d65642e00000000000000000000000000000000000000000000006064820152608401610219565b60408051602081018890527fffffffffffffffffffffffffffffffffffffffff000000000000000000000000606088901b169181019190915260548101849052600090607401604051602081830303815290604052805190602001209050610357838380806020026020016040519081016040528093929190818152602001838360200280828437600092019190915250506066549150849050610afd565b6103e3576040517f08c379a000000000000000000000000000000000000000000000000000000000815260206004820152602260248201527f4d65726b6c6544697374726f3a3a636c61696d20496e76616c69642070726f6f60448201527f662e0000000000000000000000000000000000000000000000000000000000006064820152608401610219565b6103ec87610bac565b6065546040517fb78b52df00000000000000000000000000000000000000000000000000000000815273ffffffffffffffffffffffffffffffffffffffff8781166004830152602482018790529091169063b78b52df90604401600060405180830381600087803b15801561046057600080fd5b505af1158015610474573d6000803e3d6000fd5b5050604080518a815273ffffffffffffffffffffffffffffffffffffffff8a811660208301528916818301526060810188905290517fce3bcb6e219596cf26007ffdfaae8953bc3f76e3f36c0a79b23e28020da3222e9350908190036080019150a150505050505050565b6104e885610827565b15610575576040517f08c379a000000000000000000000000000000000000000000000000000000000815260206004820152602960248201527f4d65726b6c6544697374726f3a3a636c61696d2044726f7020616c726561647960448201527f20636c61696d65642e00000000000000000000000000000000000000000000006064820152608401610219565b60408051602081018790527fffffffffffffffffffffffffffffffffffffffff000000000000000000000000606087901b169181019190915260548101849052600090607401604051602081830303815290604052805190602001209050610614838380806020026020016040519081016040528093929190818152602001838360200280828437600092019190915250506066549150849050610afd565b6106a0576040517f08c379a000000000000000000000000000000000000000000000000000000000815260206004820152602260248201527f4d65726b6c6544697374726f3a3a636c61696d20496e76616c69642070726f6f60448201527f662e0000000000000000000000000000000000000000000000000000000000006064820152608401610219565b6106a986610bac565b6065546040517fb78b52df00000000000000000000000000000000000000000000000000000000815273ffffffffffffffffffffffffffffffffffffffff8781166004830152602482018790529091169063b78b52df90604401600060405180830381600087803b15801561071d57600080fd5b505af1158015610731573d6000803e3d6000fd5b50506040805189815273ffffffffffffffffffffffffffffffffffffffff891660208201819052818301526060810188905290517fce3bcb6e219596cf26007ffdfaae8953bc3f76e3f36c0a79b23e28020da3222e9350908190036080019150a1505050505050565b60335473ffffffffffffffffffffffffffffffffffffffff16331461081b576040517f08c379a000000000000000000000000000000000000000000000000000000000815260206004820181905260248201527f4f776e61626c653a2063616c6c6572206973206e6f7420746865206f776e65726044820152606401610219565b6108256000610bea565b565b60008061083661010084611122565b9050600061084661010085611196565b60009283526067602052604090922054600190921b9182169091149392505050565b600054610100900460ff1680610881575060005460ff16155b61090d576040517f08c379a000000000000000000000000000000000000000000000000000000000815260206004820152602e60248201527f496e697469616c697a61626c653a20636f6e747261637420697320616c72656160448201527f647920696e697469616c697a65640000000000000000000000000000000000006064820152608401610219565b600054610100900460ff1615801561094c57600080547fffffffffffffffffffffffffffffffffffffffffffffffffffffffffffff0000166101011790555b610954610c61565b606580547fffffffffffffffffffffffff00000000000000000000000000000000000000001673ffffffffffffffffffffffffffffffffffffffff8516179055606682905580156109c857600080547fffffffffffffffffffffffffffffffffffffffffffffffffffffffffffff00ff1690555b505050565b60335473ffffffffffffffffffffffffffffffffffffffff163314610a4e576040517f08c379a000000000000000000000000000000000000000000000000000000000815260206004820181905260248201527f4f776e61626c653a2063616c6c6572206973206e6f7420746865206f776e65726044820152606401610219565b73ffffffffffffffffffffffffffffffffffffffff8116610af1576040517f08c379a000000000000000000000000000000000000000000000000000000000815260206004820152602660248201527f4f776e61626c653a206e6577206f776e657220697320746865207a65726f206160448201527f64647265737300000000000000000000000000000000000000000000000000006064820152608401610219565b610afa81610bea565b50565b600081815b8551811015610ba1576000868281518110610b1f57610b1f6111d9565b60200260200101519050808311610b61576040805160208101859052908101829052606001604051602081830303815290604052805190602001209250610b8e565b60408051602081018390529081018490526060016040516020818303038152906040528051906020012092505b5080610b9981611136565b915050610b02565b509092149392505050565b6000610bba61010083611122565b90506000610bca61010084611196565b6000928352606760205260409092208054600190931b9092179091555050565b6033805473ffffffffffffffffffffffffffffffffffffffff8381167fffffffffffffffffffffffff0000000000000000000000000000000000000000831681179093556040519116919082907f8be0079c531659141344cd1fd0a4f28419497f9722a3daafe3b4186f6b6457e090600090a35050565b600054610100900460ff1680610c7a575060005460ff16155b610d06576040517f08c379a000000000000000000000000000000000000000000000000000000000815260206004820152602e60248201527f496e697469616c697a61626c653a20636f6e747261637420697320616c72656160448201527f647920696e697469616c697a65640000000000000000000000000000000000006064820152608401610219565b600054610100900460ff16158015610d4557600080547fffffffffffffffffffffffffffffffffffffffffffffffffffffffffffff0000166101011790555b610d4d610d86565b610d55610e9a565b8015610afa57600080547fffffffffffffffffffffffffffffffffffffffffffffffffffffffffffff00ff16905550565b600054610100900460ff1680610d9f575060005460ff16155b610e2b576040517f08c379a000000000000000000000000000000000000000000000000000000000815260206004820152602e60248201527f496e697469616c697a61626c653a20636f6e747261637420697320616c72656160448201527f647920696e697469616c697a65640000000000000000000000000000000000006064820152608401610219565b600054610100900460ff16158015610d5557600080547fffffffffffffffffffffffffffffffffffffffffffffffffffffffffffff0000166101011790558015610afa57600080547fffffffffffffffffffffffffffffffffffffffffffffffffffffffffffff00ff16905550565b600054610100900460ff1680610eb3575060005460ff16155b610f3f576040517f08c379a000000000000000000000000000000000000000000000000000000000815260206004820152602e60248201527f496e697469616c697a61626c653a20636f6e747261637420697320616c72656160448201527f647920696e697469616c697a65640000000000000000000000000000000000006064820152608401610219565b600054610100900460ff16158015610f7e57600080547fffffffffffffffffffffffffffffffffffffffffffffffffffffffffffff0000166101011790555b610d5533610bea565b60008083601f840112610f9957600080fd5b50813567ffffffffffffffff811115610fb157600080fd5b6020830191508360208260051b8501011115610fcc57600080fd5b9250929050565b600060208284031215610fe557600080fd5b8135610ff081611208565b9392505050565b6000806040838503121561100a57600080fd5b823561101581611208565b946020939093013593505050565b60006020828403121561103557600080fd5b5035919050565b60008060008060008060a0878903121561105557600080fd5b86359550602087013561106781611208565b9450604087013561107781611208565b935060608701359250608087013567ffffffffffffffff81111561109a57600080fd5b6110a689828a01610f87565b979a9699509497509295939492505050565b6000806000806000608086880312156110d057600080fd5b8535945060208601356110e281611208565b935060408601359250606086013567ffffffffffffffff81111561110557600080fd5b61111188828901610f87565b969995985093965092949392505050565b600082611131576111316111aa565b500490565b60007fffffffffffffffffffffffffffffffffffffffffffffffffffffffffffffffff82141561118f577f4e487b7100000000000000000000000000000000000000000000000000000000600052601160045260246000fd5b5060010190565b6000826111a5576111a56111aa565b500690565b7f4e487b7100000000000000000000000000000000000000000000000000000000600052601260045260246000fd5b7f4e487b7100000000000000000000000000000000000000000000000000000000600052603260045260246000fd5b73ffffffffffffffffffffffffffffffffffffffff81168114610afa57600080fdfea2646970667358221220c622fe34a871078f2d2a9d196a23f577b813bd3578c26902b35323af9c8662e864736f6c63430008060033",
  "linkReferences": {},
  "deployedLinkReferences": {}
}