{
  "_format": "hh-sol-artifact-1",
  "contractName": "TokenDistroMock",
  "sourceName": "contracts/Mocks/TokenDistroMock.sol",
  "abi": [
    {
      "inputs": [
        {
          "internalType": "uint256",
          "name": "_totalVestedTokens",
          "type": "uint256"
        },
        {
          "internalType": "uint256",
          "name": "_startTime",
          "type": "uint256"
        },
        {
          "internalType": "uint256",
          "name": "_cliffPeriod",
          "type": "uint256"
        },
        {
          "internalType": "uint256",
          "name": "_duration",
          "type": "uint256"
        },
        {
          "internalType": "uint256",
          "name": "_initialPercentage",
          "type": "uint256"
        },
        {
          "internalType": "contract IERC20Upgradeable",
          "name": "_token",
          "type": "address"
        }
      ],
      "stateMutability": "nonpayable",
      "type": "constructor"
    },
    {
      "anonymous": false,
      "inputs": [
        {
          "indexed": true,
          "internalType": "address",
          "name": "distributor",
          "type": "address"
        },
        {
          "indexed": true,
          "internalType": "address",
          "name": "grantee",
          "type": "address"
        },
        {
          "indexed": false,
          "internalType": "uint256",
          "name": "amount",
          "type": "uint256"
        }
      ],
      "name": "Allocate",
      "type": "event"
    },
    {
      "anonymous": false,
      "inputs": [
        {
          "indexed": true,
          "internalType": "address",
          "name": "admin",
          "type": "address"
        },
        {
          "indexed": true,
          "internalType": "address",
          "name": "distributor",
          "type": "address"
        },
        {
          "indexed": false,
          "internalType": "uint256",
          "name": "amount",
          "type": "uint256"
        }
      ],
      "name": "Assign",
      "type": "event"
    },
    {
      "anonymous": false,
      "inputs": [
        {
          "indexed": true,
          "internalType": "address",
          "name": "oldAddress",
          "type": "address"
        },
        {
          "indexed": true,
          "internalType": "address",
          "name": "newAddress",
          "type": "address"
        }
      ],
      "name": "ChangeAddress",
      "type": "event"
    },
    {
      "anonymous": false,
      "inputs": [
        {
          "indexed": true,
          "internalType": "address",
          "name": "grantee",
          "type": "address"
        },
        {
          "indexed": false,
          "internalType": "uint256",
          "name": "amount",
          "type": "uint256"
        }
      ],
      "name": "Claim",
      "type": "event"
    },
    {
      "anonymous": false,
      "inputs": [
        {
          "indexed": true,
          "internalType": "bytes32",
          "name": "role",
          "type": "bytes32"
        },
        {
          "indexed": true,
          "internalType": "bytes32",
          "name": "previousAdminRole",
          "type": "bytes32"
        },
        {
          "indexed": true,
          "internalType": "bytes32",
          "name": "newAdminRole",
          "type": "bytes32"
        }
      ],
      "name": "RoleAdminChanged",
      "type": "event"
    },
    {
      "anonymous": false,
      "inputs": [
        {
          "indexed": true,
          "internalType": "bytes32",
          "name": "role",
          "type": "bytes32"
        },
        {
          "indexed": true,
          "internalType": "address",
          "name": "account",
          "type": "address"
        },
        {
          "indexed": true,
          "internalType": "address",
          "name": "sender",
          "type": "address"
        }
      ],
      "name": "RoleGranted",
      "type": "event"
    },
    {
      "anonymous": false,
      "inputs": [
        {
          "indexed": true,
          "internalType": "bytes32",
          "name": "role",
          "type": "bytes32"
        },
        {
          "indexed": true,
          "internalType": "address",
          "name": "account",
          "type": "address"
        },
        {
          "indexed": true,
          "internalType": "address",
          "name": "sender",
          "type": "address"
        }
      ],
      "name": "RoleRevoked",
      "type": "event"
    },
    {
      "inputs": [],
      "name": "DEFAULT_ADMIN_ROLE",
      "outputs": [
        {
          "internalType": "bytes32",
          "name": "",
          "type": "bytes32"
        }
      ],
      "stateMutability": "view",
      "type": "function"
    },
    {
      "inputs": [],
      "name": "DISTRIBUTOR_ROLE",
      "outputs": [
        {
          "internalType": "bytes32",
          "name": "",
          "type": "bytes32"
        }
      ],
      "stateMutability": "view",
      "type": "function"
    },
    {
      "inputs": [
        {
          "internalType": "address",
          "name": "recipient",
          "type": "address"
        },
        {
          "internalType": "uint256",
          "name": "amount",
          "type": "uint256"
        }
      ],
      "name": "allocate",
      "outputs": [],
      "stateMutability": "nonpayable",
      "type": "function"
    },
    {
      "inputs": [
        {
          "internalType": "address",
          "name": "distributor",
          "type": "address"
        },
        {
          "internalType": "uint256",
          "name": "amount",
          "type": "uint256"
        }
      ],
      "name": "assign",
      "outputs": [],
      "stateMutability": "nonpayable",
      "type": "function"
    },
    {
      "inputs": [
        {
          "internalType": "address",
          "name": "",
          "type": "address"
        }
      ],
      "name": "balances",
      "outputs": [
        {
          "internalType": "uint256",
          "name": "allocatedTokens",
          "type": "uint256"
        },
        {
          "internalType": "uint256",
          "name": "claimed",
          "type": "uint256"
        }
      ],
      "stateMutability": "view",
      "type": "function"
    },
    {
      "inputs": [
        {
          "internalType": "address",
          "name": "newAddress",
          "type": "address"
        }
      ],
      "name": "changeAddress",
      "outputs": [],
      "stateMutability": "nonpayable",
      "type": "function"
    },
    {
      "inputs": [],
      "name": "claim",
      "outputs": [],
      "stateMutability": "nonpayable",
      "type": "function"
    },
    {
      "inputs": [
        {
          "internalType": "address",
          "name": "recipient",
          "type": "address"
        },
        {
          "internalType": "uint256",
          "name": "timestamp",
          "type": "uint256"
        }
      ],
      "name": "claimableAt",
      "outputs": [
        {
          "internalType": "uint256",
          "name": "",
          "type": "uint256"
        }
      ],
      "stateMutability": "view",
      "type": "function"
    },
    {
      "inputs": [
        {
          "internalType": "address",
          "name": "recipient",
          "type": "address"
        }
      ],
      "name": "claimableNow",
      "outputs": [
        {
          "internalType": "uint256",
          "name": "",
          "type": "uint256"
        }
      ],
      "stateMutability": "view",
      "type": "function"
    },
    {
      "inputs": [],
      "name": "cliffTime",
      "outputs": [
        {
          "internalType": "uint256",
          "name": "",
          "type": "uint256"
        }
      ],
      "stateMutability": "view",
      "type": "function"
    },
    {
      "inputs": [],
      "name": "currentTimestamp",
      "outputs": [
        {
          "internalType": "uint256",
          "name": "",
          "type": "uint256"
        }
      ],
      "stateMutability": "view",
      "type": "function"
    },
    {
      "inputs": [],
      "name": "duration",
      "outputs": [
        {
          "internalType": "uint256",
          "name": "",
          "type": "uint256"
        }
      ],
      "stateMutability": "view",
      "type": "function"
    },
    {
      "inputs": [
        {
          "internalType": "bytes32",
          "name": "role",
          "type": "bytes32"
        }
      ],
      "name": "getRoleAdmin",
      "outputs": [
        {
          "internalType": "bytes32",
          "name": "",
          "type": "bytes32"
        }
      ],
      "stateMutability": "view",
      "type": "function"
    },
    {
      "inputs": [
        {
          "internalType": "bytes32",
          "name": "role",
          "type": "bytes32"
        },
        {
          "internalType": "uint256",
          "name": "index",
          "type": "uint256"
        }
      ],
      "name": "getRoleMember",
      "outputs": [
        {
          "internalType": "address",
          "name": "",
          "type": "address"
        }
      ],
      "stateMutability": "view",
      "type": "function"
    },
    {
      "inputs": [
        {
          "internalType": "bytes32",
          "name": "role",
          "type": "bytes32"
        }
      ],
      "name": "getRoleMemberCount",
      "outputs": [
        {
          "internalType": "uint256",
          "name": "",
          "type": "uint256"
        }
      ],
      "stateMutability": "view",
      "type": "function"
    },
    {
      "inputs": [],
      "name": "getTimestamp",
      "outputs": [
        {
          "internalType": "uint256",
          "name": "",
          "type": "uint256"
        }
      ],
      "stateMutability": "view",
      "type": "function"
    },
    {
      "inputs": [
        {
          "internalType": "uint256",
          "name": "timestamp",
          "type": "uint256"
        }
      ],
      "name": "globallyClaimableAt",
      "outputs": [
        {
          "internalType": "uint256",
          "name": "",
          "type": "uint256"
        }
      ],
      "stateMutability": "view",
      "type": "function"
    },
    {
      "inputs": [
        {
          "internalType": "bytes32",
          "name": "role",
          "type": "bytes32"
        },
        {
          "internalType": "address",
          "name": "account",
          "type": "address"
        }
      ],
      "name": "grantRole",
      "outputs": [],
      "stateMutability": "nonpayable",
      "type": "function"
    },
    {
      "inputs": [
        {
          "internalType": "bytes32",
          "name": "role",
          "type": "bytes32"
        },
        {
          "internalType": "address",
          "name": "account",
          "type": "address"
        }
      ],
      "name": "hasRole",
      "outputs": [
        {
          "internalType": "bool",
          "name": "",
          "type": "bool"
        }
      ],
      "stateMutability": "view",
      "type": "function"
    },
    {
      "inputs": [],
      "name": "initialAmount",
      "outputs": [
        {
          "internalType": "uint256",
          "name": "",
          "type": "uint256"
        }
      ],
      "stateMutability": "view",
      "type": "function"
    },
    {
      "inputs": [
        {
          "internalType": "uint256",
          "name": "_totalTokens",
          "type": "uint256"
        },
        {
          "internalType": "uint256",
          "name": "_startTime",
          "type": "uint256"
        },
        {
          "internalType": "uint256",
          "name": "_cliffPeriod",
          "type": "uint256"
        },
        {
          "internalType": "uint256",
          "name": "_duration",
          "type": "uint256"
        },
        {
          "internalType": "uint256",
          "name": "_initialPercentage",
          "type": "uint256"
        },
        {
          "internalType": "contract IERC20Upgradeable",
          "name": "_token",
          "type": "address"
        }
      ],
      "name": "initialize",
      "outputs": [],
      "stateMutability": "nonpayable",
      "type": "function"
    },
    {
      "inputs": [],
      "name": "lockedAmount",
      "outputs": [
        {
          "internalType": "uint256",
          "name": "",
          "type": "uint256"
        }
      ],
      "stateMutability": "view",
      "type": "function"
    },
    {
      "inputs": [
        {
          "internalType": "bytes32",
          "name": "role",
          "type": "bytes32"
        },
        {
          "internalType": "address",
          "name": "account",
          "type": "address"
        }
      ],
      "name": "renounceRole",
      "outputs": [],
      "stateMutability": "nonpayable",
      "type": "function"
    },
    {
      "inputs": [
        {
          "internalType": "bytes32",
          "name": "role",
          "type": "bytes32"
        },
        {
          "internalType": "address",
          "name": "account",
          "type": "address"
        }
      ],
      "name": "revokeRole",
      "outputs": [],
      "stateMutability": "nonpayable",
      "type": "function"
    },
    {
      "inputs": [
        {
          "internalType": "uint256",
          "name": "timestamp",
          "type": "uint256"
        }
      ],
      "name": "setTimestamp",
      "outputs": [],
      "stateMutability": "nonpayable",
      "type": "function"
    },
    {
      "inputs": [],
      "name": "startTime",
      "outputs": [
        {
          "internalType": "uint256",
          "name": "",
          "type": "uint256"
        }
      ],
      "stateMutability": "view",
      "type": "function"
    },
    {
      "inputs": [
        {
          "internalType": "bytes4",
          "name": "interfaceId",
          "type": "bytes4"
        }
      ],
      "name": "supportsInterface",
      "outputs": [
        {
          "internalType": "bool",
          "name": "",
          "type": "bool"
        }
      ],
      "stateMutability": "view",
      "type": "function"
    },
    {
      "inputs": [],
      "name": "token",
      "outputs": [
        {
          "internalType": "contract IERC20Upgradeable",
          "name": "",
          "type": "address"
        }
      ],
      "stateMutability": "view",
      "type": "function"
    },
    {
      "inputs": [],
      "name": "totalTokens",
      "outputs": [
        {
          "internalType": "uint256",
          "name": "",
          "type": "uint256"
        }
      ],
      "stateMutability": "view",
      "type": "function"
    }
  ],
  "bytecode": "0x60806040523480156200001157600080fd5b5060405162002cb438038062002cb48339810160408190526200003491620003ee565b6200004486868686868662000050565b505050505050620004e0565b600054610100900460ff16806200006a575060005460ff16155b620000d35760405162461bcd60e51b815260206004820152602e60248201527f496e697469616c697a61626c653a20636f6e747261637420697320616c72656160448201526d191e481a5b9a5d1a585b1a5e995960921b60648201526084015b60405180910390fd5b600054610100900460ff16158015620000f6576000805461ffff19166101011790555b84841015620001635760405162461bcd60e51b815260206004820152603260248201527f546f6b656e44697374726f3a3a636f6e7374727563746f723a2044555241544960448201527127a72fa622a9a9afaa2420a72fa1a624a32360711b6064820152608401620000ca565b612710831115620001dd5760405162461bcd60e51b815260206004820152603c60248201527f546f6b656e44697374726f3a3a636f6e7374727563746f723a20494e4954494160448201527f4c50455243454e544147455f475245415445525f5448414e5f313030000000006064820152608401620000ca565b620001ea60003362000285565b6000612710620001fb858a6200048e565b6200020791906200046d565b60d080546001600160a01b0319166001600160a01b03861617905560cd86905560cb88905560ca89905560ce819055905062000244868862000452565b60cc55620002538189620004b0565b60cf555030600090815260c96020526040902087905580156200027c576000805461ff00191690555b50505050505050565b6200029c8282620002c860201b6200163d1760201c565b6000828152609760209081526040909120620002c39183906200164b620002d8821b17901c565b505050565b620002d48282620002f8565b5050565b6000620002ef836001600160a01b0384166200039c565b90505b92915050565b60008281526065602090815260408083206001600160a01b038516845290915290205460ff16620002d45760008281526065602090815260408083206001600160a01b03851684529091529020805460ff19166001179055620003583390565b6001600160a01b0316816001600160a01b0316837f2f8788117e7eff1d82e926ec794901d17c78024a50270940304540a733656f0d60405160405180910390a45050565b6000818152600183016020526040812054620003e557508154600181810184556000848152602080822090930184905584548482528286019093526040902091909155620002f2565b506000620002f2565b60008060008060008060c0878903121562000407578182fd5b86516020880151604089015160608a015160808b015160a08c0151949a50929850909650945092506001600160a01b038116811462000444578182fd5b809150509295509295509295565b60008219821115620004685762000468620004ca565b500190565b6000826200048957634e487b7160e01b81526012600452602481fd5b500490565b6000816000190483118215151615620004ab57620004ab620004ca565b500290565b600082821015620004c557620004c5620004ca565b500390565b634e487b7160e01b600052601160045260246000fd5b6127c480620004f06000396000f3fe608060405234801561001057600080fd5b50600436106101cf5760003560e01c806378e9792511610104578063b78b52df116100a2578063f0bd87cc11610071578063f0bd87cc14610408578063fc0c546a1461042f578063fc1ed4371461044f578063fe64d6ff14610458576101cf565b8063b78b52df146103bc578063be760488146103cf578063ca15c873146103e2578063d547741f146103f5576101cf565b806391d14854116100de57806391d14854146103485780639a78ea4a1461038e578063a0a2b573146103a1578063a217fddf146103b4576101cf565b806378e97925146102fe5780637e1c0c09146103075780639010d07c14610310576101cf565b80632f2ff15d116101715780634e71d92d1161014b5780634e71d92d146102c75780635066c893146102cf5780636ab28bc8146102e25780636d8500db146102eb576101cf565b80632f2ff15d1461028c57806336568abe146102a1578063427a61ba146102b4576101cf565b8063188ec356116101ad578063188ec3561461021c5780631e2ff94f14610224578063248a9ca31461022d57806327e235e314610250576101cf565b806301ffc9a7146101d45780630f1a6444146101fc5780630fb5a6b414610213575b600080fd5b6101e76101e23660046124ae565b61046b565b60405190151581526020015b60405180910390f35b61020560cc5481565b6040519081526020016101f3565b61020560cd5481565b6102056104c9565b61020560d15481565b61020561023b366004612446565b60009081526065602052604090206001015490565b61027761025e3660046123df565b60c9602052600090815260409020805460019091015482565b604080519283526020830191909152016101f3565b61029f61029a36600461245e565b6104e4565b005b61029f6102af36600461245e565b61050b565b61029f6102c23660046124ee565b61052d565b61029f610817565b6102056102dd3660046123fb565b610a7d565b61020560cf5481565b6102056102f9366004612446565b610bdb565b61020560cb5481565b61020560ca5481565b61032361031e36600461248d565b610c63565b60405173ffffffffffffffffffffffffffffffffffffffff90911681526020016101f3565b6101e761035636600461245e565b600091825260656020908152604080842073ffffffffffffffffffffffffffffffffffffffff93909316845291905290205460ff1690565b61020561039c3660046123df565b610c7b565b61029f6103af366004612446565b60d155565b610205600081565b61029f6103ca3660046123fb565b610c89565b61029f6103dd3660046123fb565b61100f565b6102056103f0366004612446565b61127c565b61029f61040336600461245e565b611293565b6102057ffbd454f36a7e1a388bd6fc3ab10d434aa4578f811acbbcf33afb1c697486313c81565b60d0546103239073ffffffffffffffffffffffffffffffffffffffff1681565b61020560ce5481565b61029f6104663660046123df565b61129d565b60007fffffffff0000000000000000000000000000000000000000000000000000000082167f5a05180f0000000000000000000000000000000000000000000000000000000014806104c157506104c18261166d565b90505b919050565b600060d1546000146104dd5760d1546104df565b425b905090565b6104ee8282611704565b6000828152609760205260409020610506908261164b565b505050565b610515828261172b565b600082815260976020526040902061050690826117da565b600054610100900460ff1680610546575060005460ff16155b6105d7576040517f08c379a000000000000000000000000000000000000000000000000000000000815260206004820152602e60248201527f496e697469616c697a61626c653a20636f6e747261637420697320616c72656160448201527f647920696e697469616c697a656400000000000000000000000000000000000060648201526084015b60405180910390fd5b600054610100900460ff1615801561061657600080547fffffffffffffffffffffffffffffffffffffffffffffffffffffffffffff0000166101011790555b848410156106a6576040517f08c379a000000000000000000000000000000000000000000000000000000000815260206004820152603260248201527f546f6b656e44697374726f3a3a636f6e7374727563746f723a2044555241544960448201527f4f4e5f4c4553535f5448414e5f434c494646000000000000000000000000000060648201526084016105ce565b612710831115610738576040517f08c379a000000000000000000000000000000000000000000000000000000000815260206004820152603c60248201527f546f6b656e44697374726f3a3a636f6e7374727563746f723a20494e4954494160448201527f4c50455243454e544147455f475245415445525f5448414e5f3130300000000060648201526084016105ce565b6107436000336117fc565b6000612710610752858a612681565b61075c9190612648565b60d080547fffffffffffffffffffffffff00000000000000000000000000000000000000001673ffffffffffffffffffffffffffffffffffffffff861617905560cd86905560cb88905560ca89905560ce81905590506107bc8688612630565b60cc556107c981896126be565b60cf555030600090815260c960205260409020879055801561080e57600080547fffffffffffffffffffffffffffffffffffffffffffffffffffffffffffff00ff1690555b50505050505050565b610821600061127c565b156108ae576040517f08c379a000000000000000000000000000000000000000000000000000000000815260206004820152603560248201527f546f6b656e44697374726f3a3a6973496e697469616c697a65643a204445464160448201527f554c545f41444d494e5f524f4c455f455849535453000000000000000000000060648201526084016105ce565b30600090815260c960205260409020541561094b576040517f08c379a000000000000000000000000000000000000000000000000000000000815260206004820152603560248201527f546f6b656e44697374726f3a3a6973496e697469616c697a65643a20544f4b4560448201527f4e535f50454e44494e475f414c4c4f434154494f4e000000000000000000000060648201526084016105ce565b6000610959336102dd6104c9565b9050600081116109eb576040517f08c379a000000000000000000000000000000000000000000000000000000000815260206004820152602f60248201527f546f6b656e44697374726f3a3a636c61696d3a204e4f545f454e4f554754485f60448201527f544f4b454e535f544f5f434c41494d000000000000000000000000000000000060648201526084016105ce565b33600090815260c96020526040902060010154610a09908290612630565b33600081815260c9602052604090206001019190915560d054610a459173ffffffffffffffffffffffffffffffffffffffff9091169083611806565b60405181815233907f47cee97cb7acd717b3c0aa1435d004cd5b3c8c57d70dbceb4e4458bbd60e39d49060200160405180910390a250565b73ffffffffffffffffffffffffffffffffffffffff821660009081527fc30845577a48a4875916abdf69c952cec0f19aac3292d053136a35224608de0b602052604081205460ff1615610b52576040517f08c379a000000000000000000000000000000000000000000000000000000000815260206004820152603760248201527f546f6b656e44697374726f3a3a636c61696d61626c6541743a2044495354524960448201527f4255544f525f524f4c455f43414e4e4f545f434c41494d00000000000000000060648201526084016105ce565b60ca5473ffffffffffffffffffffffffffffffffffffffff8416600090815260c96020526040812054909190610b8785610bdb565b610b919190612681565b610b9b9190612648565b73ffffffffffffffffffffffffffffffffffffffff8516600090815260c96020526040902060010154909150610bd190826126be565b9150505b92915050565b600060cb54821015610bef575060006104c4565b60cc54821015610c02575060ce546104c4565b60cd5460cb54610c129190612630565b821115610c22575060ca546104c4565b600060cb5483610c3291906126be565b905060cd5460cf5482610c459190612681565b610c4f9190612648565b60ce54610c5c9190612630565b9392505050565b6000828152609760205260408120610c5c9083611893565b60006104c1826102dd6104c9565b610c93600061127c565b15610d20576040517f08c379a000000000000000000000000000000000000000000000000000000000815260206004820152603560248201527f546f6b656e44697374726f3a3a6973496e697469616c697a65643a204445464160448201527f554c545f41444d494e5f524f4c455f455849535453000000000000000000000060648201526084016105ce565b30600090815260c9602052604090205415610dbd576040517f08c379a000000000000000000000000000000000000000000000000000000000815260206004820152603560248201527f546f6b656e44697374726f3a3a6973496e697469616c697a65643a20544f4b4560448201527f4e535f50454e44494e475f414c4c4f434154494f4e000000000000000000000060648201526084016105ce565b3360009081527fc30845577a48a4875916abdf69c952cec0f19aac3292d053136a35224608de0b602052604090205460ff16610e7b576040517f08c379a000000000000000000000000000000000000000000000000000000000815260206004820152602c60248201527f546f6b656e44697374726f3a3a616c6c6f636174653a204f4e4c595f4449535460448201527f52494255544f525f524f4c45000000000000000000000000000000000000000060648201526084016105ce565b73ffffffffffffffffffffffffffffffffffffffff821660009081527fc30845577a48a4875916abdf69c952cec0f19aac3292d053136a35224608de0b602052604090205460ff1615610f50576040517f08c379a000000000000000000000000000000000000000000000000000000000815260206004820152603660248201527f546f6b656e44697374726f3a3a616c6c6f636174653a2044495354524942555460448201527f4f525f4e4f545f56414c49445f524543495049454e540000000000000000000060648201526084016105ce565b33600090815260c96020526040902054610f6b9082906126be565b33600090815260c960205260408082209290925573ffffffffffffffffffffffffffffffffffffffff841681522054610fa5908290612630565b73ffffffffffffffffffffffffffffffffffffffff8316600081815260c960205260409081902092909255905133907f5168bfb88d6125d4580e2b91ecb103a730312c3e8b0be9c4031a0fc794e2cd5f906110039085815260200190565b60405180910390a35050565b3360009081527fffdfc1249c027f9191656349feb0761381bb32c9f557e01f419fd08754bf5a1b602052604090205460ff166110cc576040517f08c379a0000000000000000000000000000000000000000000000000000000008152602060048201526024808201527f546f6b656e44697374726f3a3a61737369676e3a204f4e4c595f41444d494e5f60448201527f524f4c450000000000000000000000000000000000000000000000000000000060648201526084016105ce565b73ffffffffffffffffffffffffffffffffffffffff821660009081527fc30845577a48a4875916abdf69c952cec0f19aac3292d053136a35224608de0b602052604090205460ff166111a0576040517f08c379a000000000000000000000000000000000000000000000000000000000815260206004820152602d60248201527f546f6b656e44697374726f3a3a61737369676e3a204f4e4c595f544f5f44495360448201527f5452494255544f525f524f4c450000000000000000000000000000000000000060648201526084016105ce565b30600090815260c960205260409020546111bb9082906126be565b30600090815260c960205260408082209290925573ffffffffffffffffffffffffffffffffffffffff8416815220546111f5908290612630565b73ffffffffffffffffffffffffffffffffffffffff8316600090815260c960205260408082209290925530815220546112335761123360003361050b565b60405181815273ffffffffffffffffffffffffffffffffffffffff83169033907e7ae6a979e5d8177867f7c1ca4be1527487a2e43a444b55c3dfaee02c42354490602001611003565b60008181526097602052604081206104c19061189f565b61051582826118a9565b6112a7600061127c565b15611334576040517f08c379a000000000000000000000000000000000000000000000000000000000815260206004820152603560248201527f546f6b656e44697374726f3a3a6973496e697469616c697a65643a204445464160448201527f554c545f41444d494e5f524f4c455f455849535453000000000000000000000060648201526084016105ce565b30600090815260c96020526040902054156113d1576040517f08c379a000000000000000000000000000000000000000000000000000000000815260206004820152603560248201527f546f6b656e44697374726f3a3a6973496e697469616c697a65643a20544f4b4560448201527f4e535f50454e44494e475f414c4c4f434154494f4e000000000000000000000060648201526084016105ce565b73ffffffffffffffffffffffffffffffffffffffff8116600090815260c9602052604090205415801561142a575073ffffffffffffffffffffffffffffffffffffffff8116600090815260c96020526040902060010154155b6114b6576040517f08c379a000000000000000000000000000000000000000000000000000000000815260206004820152603260248201527f546f6b656e44697374726f3a3a6368616e6765416464726573733a204144445260448201527f4553535f414c52454144595f494e5f555345000000000000000000000000000060648201526084016105ce565b3360009081527fc30845577a48a4875916abdf69c952cec0f19aac3292d053136a35224608de0b602052604090205460ff1615801561153a575073ffffffffffffffffffffffffffffffffffffffff811660009081527fc30845577a48a4875916abdf69c952cec0f19aac3292d053136a35224608de0b602052604090205460ff16155b6115c857604080517f08c379a00000000000000000000000000000000000000000000000000000000081526020600482015260248101919091527f546f6b656e44697374726f3a3a6368616e6765416464726573733a204449535460448201527f52494255544f525f524f4c455f4e4f545f415f56414c49445f4144445245535360648201526084016105ce565b33600081815260c96020526040808220805473ffffffffffffffffffffffffffffffffffffffff861680855283852091825584835560019283018054939092019290925584845283905590519092917f8839b4e99cbac9b99de60313e9f1679f46d6837a692b8c052bf0bd6cacb19c7991a350565b61164782826118cf565b5050565b6000610c5c8373ffffffffffffffffffffffffffffffffffffffff84166119c3565b60007fffffffff0000000000000000000000000000000000000000000000000000000082167f7965db0b0000000000000000000000000000000000000000000000000000000014806104c157507f01ffc9a7000000000000000000000000000000000000000000000000000000007fffffffff000000000000000000000000000000000000000000000000000000008316146104c1565b60008281526065602052604090206001015461172181335b611a12565b61050683836118cf565b73ffffffffffffffffffffffffffffffffffffffff811633146117d0576040517f08c379a000000000000000000000000000000000000000000000000000000000815260206004820152602f60248201527f416363657373436f6e74726f6c3a2063616e206f6e6c792072656e6f756e636560448201527f20726f6c657320666f722073656c66000000000000000000000000000000000060648201526084016105ce565b6116478282611ae4565b6000610c5c8373ffffffffffffffffffffffffffffffffffffffff8416611b9f565b6104ee828261163d565b6040805173ffffffffffffffffffffffffffffffffffffffff8416602482015260448082018490528251808303909101815260649091019091526020810180517bffffffffffffffffffffffffffffffffffffffffffffffffffffffff167fa9059cbb00000000000000000000000000000000000000000000000000000000179052610506908490611d01565b6000610c5c8383611e0d565b60006104c1825490565b6000828152606560205260409020600101546118c5813361171c565b6105068383611ae4565b600082815260656020908152604080832073ffffffffffffffffffffffffffffffffffffffff8516845290915290205460ff1661164757600082815260656020908152604080832073ffffffffffffffffffffffffffffffffffffffff85168452909152902080547fffffffffffffffffffffffffffffffffffffffffffffffffffffffffffffff001660011790556119653390565b73ffffffffffffffffffffffffffffffffffffffff168173ffffffffffffffffffffffffffffffffffffffff16837f2f8788117e7eff1d82e926ec794901d17c78024a50270940304540a733656f0d60405160405180910390a45050565b6000818152600183016020526040812054611a0a57508154600181810184556000848152602080822090930184905584548482528286019093526040902091909155610bd5565b506000610bd5565b600082815260656020908152604080832073ffffffffffffffffffffffffffffffffffffffff8516845290915290205460ff1661164757611a6a8173ffffffffffffffffffffffffffffffffffffffff166014611eef565b611a75836020611eef565b604051602001611a8692919061255e565b604080517fffffffffffffffffffffffffffffffffffffffffffffffffffffffffffffffe0818403018152908290527f08c379a00000000000000000000000000000000000000000000000000000000082526105ce916004016125df565b600082815260656020908152604080832073ffffffffffffffffffffffffffffffffffffffff8516845290915290205460ff161561164757600082815260656020908152604080832073ffffffffffffffffffffffffffffffffffffffff8516808552925280832080547fffffffffffffffffffffffffffffffffffffffffffffffffffffffffffffff0016905551339285917ff6391f5c32d9c69d2a47ea670b442974b53935d1edc7fd64eb21e047a839171b9190a45050565b60008181526001830160205260408120548015611cf7576000611bc36001836126be565b8554909150600090611bd7906001906126be565b90506000866000018281548110611c17577f4e487b7100000000000000000000000000000000000000000000000000000000600052603260045260246000fd5b9060005260206000200154905080876000018481548110611c61577f4e487b7100000000000000000000000000000000000000000000000000000000600052603260045260246000fd5b600091825260208083209091019290925582815260018901909152604090208490558654879080611cbb577f4e487b7100000000000000000000000000000000000000000000000000000000600052603160045260246000fd5b60019003818190600052602060002001600090559055866001016000878152602001908152602001600020600090556001945050505050610bd5565b6000915050610bd5565b6000611d63826040518060400160405280602081526020017f5361666545524332303a206c6f772d6c6576656c2063616c6c206661696c65648152508573ffffffffffffffffffffffffffffffffffffffff166121f59092919063ffffffff16565b8051909150156105065780806020019051810190611d819190612426565b610506576040517f08c379a000000000000000000000000000000000000000000000000000000000815260206004820152602a60248201527f5361666545524332303a204552433230206f7065726174696f6e20646964206e60448201527f6f7420737563636565640000000000000000000000000000000000000000000060648201526084016105ce565b81546000908210611ea0576040517f08c379a000000000000000000000000000000000000000000000000000000000815260206004820152602260248201527f456e756d657261626c655365743a20696e646578206f7574206f6620626f756e60448201527f647300000000000000000000000000000000000000000000000000000000000060648201526084016105ce565b826000018281548110611edc577f4e487b7100000000000000000000000000000000000000000000000000000000600052603260045260246000fd5b9060005260206000200154905092915050565b60606000611efe836002612681565b611f09906002612630565b67ffffffffffffffff811115611f48577f4e487b7100000000000000000000000000000000000000000000000000000000600052604160045260246000fd5b6040519080825280601f01601f191660200182016040528015611f72576020820181803683370190505b5090507f300000000000000000000000000000000000000000000000000000000000000081600081518110611fd0577f4e487b7100000000000000000000000000000000000000000000000000000000600052603260045260246000fd5b60200101907effffffffffffffffffffffffffffffffffffffffffffffffffffffffffffff1916908160001a9053507f78000000000000000000000000000000000000000000000000000000000000008160018151811061205a577f4e487b7100000000000000000000000000000000000000000000000000000000600052603260045260246000fd5b60200101907effffffffffffffffffffffffffffffffffffffffffffffffffffffffffffff1916908160001a9053506000612096846002612681565b6120a1906001612630565b90505b600181111561218c577f303132333435363738396162636465660000000000000000000000000000000085600f1660108110612109577f4e487b7100000000000000000000000000000000000000000000000000000000600052603260045260246000fd5b1a60f81b828281518110612146577f4e487b7100000000000000000000000000000000000000000000000000000000600052603260045260246000fd5b60200101907effffffffffffffffffffffffffffffffffffffffffffffffffffffffffffff1916908160001a90535060049490941c9361218581612705565b90506120a4565b508315610c5c576040517f08c379a000000000000000000000000000000000000000000000000000000000815260206004820181905260248201527f537472696e67733a20686578206c656e67746820696e73756666696369656e7460448201526064016105ce565b6060612204848460008561220c565b949350505050565b60608247101561229e576040517f08c379a000000000000000000000000000000000000000000000000000000000815260206004820152602660248201527f416464726573733a20696e73756666696369656e742062616c616e636520666f60448201527f722063616c6c000000000000000000000000000000000000000000000000000060648201526084016105ce565b843b612306576040517f08c379a000000000000000000000000000000000000000000000000000000000815260206004820152601d60248201527f416464726573733a2063616c6c20746f206e6f6e2d636f6e747261637400000060448201526064016105ce565b6000808673ffffffffffffffffffffffffffffffffffffffff16858760405161232f9190612542565b60006040518083038185875af1925050503d806000811461236c576040519150601f19603f3d011682016040523d82523d6000602084013e612371565b606091505b509150915061238182828661238c565b979650505050505050565b6060831561239b575081610c5c565b8251156123ab5782518084602001fd5b816040517f08c379a00000000000000000000000000000000000000000000000000000000081526004016105ce91906125df565b6000602082840312156123f0578081fd5b8135610c5c81612769565b6000806040838503121561240d578081fd5b823561241881612769565b946020939093013593505050565b600060208284031215612437578081fd5b81518015158114610c5c578182fd5b600060208284031215612457578081fd5b5035919050565b60008060408385031215612470578182fd5b82359150602083013561248281612769565b809150509250929050565b6000806040838503121561249f578182fd5b50508035926020909101359150565b6000602082840312156124bf578081fd5b81357fffffffff0000000000000000000000000000000000000000000000000000000081168114610c5c578182fd5b60008060008060008060c08789031215612506578182fd5b863595506020870135945060408701359350606087013592506080870135915060a087013561253481612769565b809150509295509295509295565b600082516125548184602087016126d5565b9190910192915050565b60007f416363657373436f6e74726f6c3a206163636f756e7420000000000000000000825283516125968160178501602088016126d5565b7f206973206d697373696e6720726f6c652000000000000000000000000000000060179184019182015283516125d38160288401602088016126d5565b01602801949350505050565b60006020825282518060208401526125fe8160408501602087016126d5565b601f017fffffffffffffffffffffffffffffffffffffffffffffffffffffffffffffffe0169190910160400192915050565b600082198211156126435761264361273a565b500190565b60008261267c577f4e487b710000000000000000000000000000000000000000000000000000000081526012600452602481fd5b500490565b6000817fffffffffffffffffffffffffffffffffffffffffffffffffffffffffffffffff04831182151516156126b9576126b961273a565b500290565b6000828210156126d0576126d061273a565b500390565b60005b838110156126f05781810151838201526020016126d8565b838111156126ff576000848401525b50505050565b6000816127145761271461273a565b507fffffffffffffffffffffffffffffffffffffffffffffffffffffffffffffffff0190565b7f4e487b7100000000000000000000000000000000000000000000000000000000600052601160045260246000fd5b73ffffffffffffffffffffffffffffffffffffffff8116811461278b57600080fd5b5056fea2646970667358221220e6e2d7b8846a17b402a4603e0eeb6ce2e7fb4c11dea2a65c6f1e587fc381a5c864736f6c63430008030033",
  "linkReferences": {},
  "deployedLinkReferences": {}
}