{
  "_format": "hh-sol-artifact-1",
  "contractName": "TokenDistroMock",
  "sourceName": "contracts/Mocks/TokenDistroMock.sol",
  "abi": [
    {
      "inputs": [
        {
          "internalType": "uint256",
          "name": "_totalVestedTokens",
          "type": "uint256"
        },
        {
          "internalType": "uint256",
          "name": "_startTime",
          "type": "uint256"
        },
        {
          "internalType": "uint256",
          "name": "_cliffPeriod",
          "type": "uint256"
        },
        {
          "internalType": "uint256",
          "name": "_duration",
          "type": "uint256"
        },
        {
          "internalType": "uint256",
          "name": "_initialPercentage",
          "type": "uint256"
        },
        {
          "internalType": "contract IERC20Upgradeable",
          "name": "_token",
          "type": "address"
        },
        {
          "internalType": "bool",
          "name": "cancelable",
          "type": "bool"
        }
      ],
      "stateMutability": "nonpayable",
      "type": "constructor"
    },
    {
      "anonymous": false,
      "inputs": [
        {
          "indexed": true,
          "internalType": "address",
          "name": "distributor",
          "type": "address"
        },
        {
          "indexed": true,
          "internalType": "address",
          "name": "grantee",
          "type": "address"
        },
        {
          "indexed": false,
          "internalType": "uint256",
          "name": "amount",
          "type": "uint256"
        }
      ],
      "name": "Allocate",
      "type": "event"
    },
    {
      "anonymous": false,
      "inputs": [
        {
          "indexed": true,
          "internalType": "address",
          "name": "admin",
          "type": "address"
        },
        {
          "indexed": true,
          "internalType": "address",
          "name": "distributor",
          "type": "address"
        },
        {
          "indexed": false,
          "internalType": "uint256",
          "name": "amount",
          "type": "uint256"
        }
      ],
      "name": "Assign",
      "type": "event"
    },
    {
      "anonymous": false,
      "inputs": [
        {
          "indexed": true,
          "internalType": "address",
          "name": "oldAddress",
          "type": "address"
        },
        {
          "indexed": true,
          "internalType": "address",
          "name": "newAddress",
          "type": "address"
        }
      ],
      "name": "ChangeAddress",
      "type": "event"
    },
    {
      "anonymous": false,
      "inputs": [
        {
          "indexed": true,
          "internalType": "address",
          "name": "grantee",
          "type": "address"
        },
        {
          "indexed": false,
          "internalType": "uint256",
          "name": "amount",
          "type": "uint256"
        }
      ],
      "name": "Claim",
      "type": "event"
    },
    {
      "anonymous": false,
      "inputs": [
        {
          "indexed": true,
          "internalType": "bytes32",
          "name": "role",
          "type": "bytes32"
        },
        {
          "indexed": true,
          "internalType": "bytes32",
          "name": "previousAdminRole",
          "type": "bytes32"
        },
        {
          "indexed": true,
          "internalType": "bytes32",
          "name": "newAdminRole",
          "type": "bytes32"
        }
      ],
      "name": "RoleAdminChanged",
      "type": "event"
    },
    {
      "anonymous": false,
      "inputs": [
        {
          "indexed": true,
          "internalType": "bytes32",
          "name": "role",
          "type": "bytes32"
        },
        {
          "indexed": true,
          "internalType": "address",
          "name": "account",
          "type": "address"
        },
        {
          "indexed": true,
          "internalType": "address",
          "name": "sender",
          "type": "address"
        }
      ],
      "name": "RoleGranted",
      "type": "event"
    },
    {
      "anonymous": false,
      "inputs": [
        {
          "indexed": true,
          "internalType": "bytes32",
          "name": "role",
          "type": "bytes32"
        },
        {
          "indexed": true,
          "internalType": "address",
          "name": "account",
          "type": "address"
        },
        {
          "indexed": true,
          "internalType": "address",
          "name": "sender",
          "type": "address"
        }
      ],
      "name": "RoleRevoked",
      "type": "event"
    },
    {
      "anonymous": false,
      "inputs": [
        {
          "indexed": false,
          "internalType": "uint256",
          "name": "newStartTime",
          "type": "uint256"
        },
        {
          "indexed": false,
          "internalType": "uint256",
          "name": "newCliffTime",
          "type": "uint256"
        }
      ],
      "name": "StartTimeChanged",
      "type": "event"
    },
    {
      "inputs": [],
      "name": "DEFAULT_ADMIN_ROLE",
      "outputs": [
        {
          "internalType": "bytes32",
          "name": "",
          "type": "bytes32"
        }
      ],
      "stateMutability": "view",
      "type": "function"
    },
    {
      "inputs": [],
      "name": "DISTRIBUTOR_ROLE",
      "outputs": [
        {
          "internalType": "bytes32",
          "name": "",
          "type": "bytes32"
        }
      ],
      "stateMutability": "view",
      "type": "function"
    },
    {
      "inputs": [
        {
          "internalType": "address",
          "name": "recipient",
          "type": "address"
        },
        {
          "internalType": "uint256",
          "name": "amount",
          "type": "uint256"
        }
      ],
      "name": "allocate",
      "outputs": [],
      "stateMutability": "nonpayable",
      "type": "function"
    },
    {
      "inputs": [
        {
          "internalType": "address",
          "name": "distributor",
          "type": "address"
        },
        {
          "internalType": "uint256",
          "name": "amount",
          "type": "uint256"
        }
      ],
      "name": "assign",
      "outputs": [],
      "stateMutability": "nonpayable",
      "type": "function"
    },
    {
      "inputs": [
        {
          "internalType": "address",
          "name": "",
          "type": "address"
        }
      ],
      "name": "balances",
      "outputs": [
        {
          "internalType": "uint256",
          "name": "allocatedTokens",
          "type": "uint256"
        },
        {
          "internalType": "uint256",
          "name": "claimed",
          "type": "uint256"
        }
      ],
      "stateMutability": "view",
      "type": "function"
    },
    {
      "inputs": [
        {
          "internalType": "address",
          "name": "prevRecipient",
          "type": "address"
        },
        {
          "internalType": "address",
          "name": "newRecipient",
          "type": "address"
        }
      ],
      "name": "cancelAllocation",
      "outputs": [],
      "stateMutability": "nonpayable",
      "type": "function"
    },
    {
      "inputs": [],
      "name": "cancelable",
      "outputs": [
        {
          "internalType": "bool",
          "name": "",
          "type": "bool"
        }
      ],
      "stateMutability": "view",
      "type": "function"
    },
    {
      "inputs": [
        {
          "internalType": "address",
          "name": "newAddress",
          "type": "address"
        }
      ],
      "name": "changeAddress",
      "outputs": [],
      "stateMutability": "nonpayable",
      "type": "function"
    },
    {
      "inputs": [],
      "name": "claim",
      "outputs": [],
      "stateMutability": "nonpayable",
      "type": "function"
    },
    {
      "inputs": [
        {
          "internalType": "address",
          "name": "recipient",
          "type": "address"
        },
        {
          "internalType": "uint256",
          "name": "timestamp",
          "type": "uint256"
        }
      ],
      "name": "claimableAt",
      "outputs": [
        {
          "internalType": "uint256",
          "name": "",
          "type": "uint256"
        }
      ],
      "stateMutability": "view",
      "type": "function"
    },
    {
      "inputs": [
        {
          "internalType": "address",
          "name": "recipient",
          "type": "address"
        }
      ],
      "name": "claimableNow",
      "outputs": [
        {
          "internalType": "uint256",
          "name": "",
          "type": "uint256"
        }
      ],
      "stateMutability": "view",
      "type": "function"
    },
    {
      "inputs": [],
      "name": "cliffTime",
      "outputs": [
        {
          "internalType": "uint256",
          "name": "",
          "type": "uint256"
        }
      ],
      "stateMutability": "view",
      "type": "function"
    },
    {
      "inputs": [],
      "name": "currentTimestamp",
      "outputs": [
        {
          "internalType": "uint256",
          "name": "",
          "type": "uint256"
        }
      ],
      "stateMutability": "view",
      "type": "function"
    },
    {
      "inputs": [],
      "name": "duration",
      "outputs": [
        {
          "internalType": "uint256",
          "name": "",
          "type": "uint256"
        }
      ],
      "stateMutability": "view",
      "type": "function"
    },
    {
      "inputs": [
        {
          "internalType": "bytes32",
          "name": "role",
          "type": "bytes32"
        }
      ],
      "name": "getRoleAdmin",
      "outputs": [
        {
          "internalType": "bytes32",
          "name": "",
          "type": "bytes32"
        }
      ],
      "stateMutability": "view",
      "type": "function"
    },
    {
      "inputs": [
        {
          "internalType": "bytes32",
          "name": "role",
          "type": "bytes32"
        },
        {
          "internalType": "uint256",
          "name": "index",
          "type": "uint256"
        }
      ],
      "name": "getRoleMember",
      "outputs": [
        {
          "internalType": "address",
          "name": "",
          "type": "address"
        }
      ],
      "stateMutability": "view",
      "type": "function"
    },
    {
      "inputs": [
        {
          "internalType": "bytes32",
          "name": "role",
          "type": "bytes32"
        }
      ],
      "name": "getRoleMemberCount",
      "outputs": [
        {
          "internalType": "uint256",
          "name": "",
          "type": "uint256"
        }
      ],
      "stateMutability": "view",
      "type": "function"
    },
    {
      "inputs": [],
      "name": "getTimestamp",
      "outputs": [
        {
          "internalType": "uint256",
          "name": "",
          "type": "uint256"
        }
      ],
      "stateMutability": "view",
      "type": "function"
    },
    {
      "inputs": [
        {
          "internalType": "uint256",
          "name": "timestamp",
          "type": "uint256"
        }
      ],
      "name": "globallyClaimableAt",
      "outputs": [
        {
          "internalType": "uint256",
          "name": "",
          "type": "uint256"
        }
      ],
      "stateMutability": "view",
      "type": "function"
    },
    {
      "inputs": [
        {
          "internalType": "bytes32",
          "name": "role",
          "type": "bytes32"
        },
        {
          "internalType": "address",
          "name": "account",
          "type": "address"
        }
      ],
      "name": "grantRole",
      "outputs": [],
      "stateMutability": "nonpayable",
      "type": "function"
    },
    {
      "inputs": [
        {
          "internalType": "bytes32",
          "name": "role",
          "type": "bytes32"
        },
        {
          "internalType": "address",
          "name": "account",
          "type": "address"
        }
      ],
      "name": "hasRole",
      "outputs": [
        {
          "internalType": "bool",
          "name": "",
          "type": "bool"
        }
      ],
      "stateMutability": "view",
      "type": "function"
    },
    {
      "inputs": [],
      "name": "initialAmount",
      "outputs": [
        {
          "internalType": "uint256",
          "name": "",
          "type": "uint256"
        }
      ],
      "stateMutability": "view",
      "type": "function"
    },
    {
      "inputs": [
        {
          "internalType": "uint256",
          "name": "_totalTokens",
          "type": "uint256"
        },
        {
          "internalType": "uint256",
          "name": "_startTime",
          "type": "uint256"
        },
        {
          "internalType": "uint256",
          "name": "_cliffPeriod",
          "type": "uint256"
        },
        {
          "internalType": "uint256",
          "name": "_duration",
          "type": "uint256"
        },
        {
          "internalType": "uint256",
          "name": "_initialPercentage",
          "type": "uint256"
        },
        {
          "internalType": "contract IERC20Upgradeable",
          "name": "_token",
          "type": "address"
        },
        {
          "internalType": "bool",
          "name": "_cancelable",
          "type": "bool"
        }
      ],
      "name": "initialize",
      "outputs": [],
      "stateMutability": "nonpayable",
      "type": "function"
    },
    {
      "inputs": [],
      "name": "lockedAmount",
      "outputs": [
        {
          "internalType": "uint256",
          "name": "",
          "type": "uint256"
        }
      ],
      "stateMutability": "view",
      "type": "function"
    },
    {
      "inputs": [
        {
          "internalType": "bytes32",
          "name": "role",
          "type": "bytes32"
        },
        {
          "internalType": "address",
          "name": "account",
          "type": "address"
        }
      ],
      "name": "renounceRole",
      "outputs": [],
      "stateMutability": "nonpayable",
      "type": "function"
    },
    {
      "inputs": [
        {
          "internalType": "bytes32",
          "name": "role",
          "type": "bytes32"
        },
        {
          "internalType": "address",
          "name": "account",
          "type": "address"
        }
      ],
      "name": "revokeRole",
      "outputs": [],
      "stateMutability": "nonpayable",
      "type": "function"
    },
    {
      "inputs": [
        {
          "internalType": "uint256",
          "name": "newStartTime",
          "type": "uint256"
        }
      ],
      "name": "setStartTime",
      "outputs": [],
      "stateMutability": "nonpayable",
      "type": "function"
    },
    {
      "inputs": [
        {
          "internalType": "uint256",
          "name": "timestamp",
          "type": "uint256"
        }
      ],
      "name": "setTimestamp",
      "outputs": [],
      "stateMutability": "nonpayable",
      "type": "function"
    },
    {
      "inputs": [],
      "name": "startTime",
      "outputs": [
        {
          "internalType": "uint256",
          "name": "",
          "type": "uint256"
        }
      ],
      "stateMutability": "view",
      "type": "function"
    },
    {
      "inputs": [
        {
          "internalType": "bytes4",
          "name": "interfaceId",
          "type": "bytes4"
        }
      ],
      "name": "supportsInterface",
      "outputs": [
        {
          "internalType": "bool",
          "name": "",
          "type": "bool"
        }
      ],
      "stateMutability": "view",
      "type": "function"
    },
    {
      "inputs": [],
      "name": "token",
      "outputs": [
        {
          "internalType": "contract IERC20Upgradeable",
          "name": "",
          "type": "address"
        }
      ],
      "stateMutability": "view",
      "type": "function"
    },
    {
      "inputs": [],
      "name": "totalTokens",
      "outputs": [
        {
          "internalType": "uint256",
          "name": "",
          "type": "uint256"
        }
      ],
      "stateMutability": "view",
      "type": "function"
    }
  ],
  "bytecode": "0x60806040523480156200001157600080fd5b506040516200339d3803806200339d833981016040819052620000349162000575565b620000458787878787878762000052565b5050505050505062000686565b600054610100900460ff16806200006c575060005460ff16155b620000c45760405162461bcd60e51b815260206004820152602e60248201526000805160206200337d83398151915260448201526d191e481a5b9a5d1a585b1a5e995960921b60648201526084015b60405180910390fd5b600054610100900460ff16158015620000e7576000805461ffff19166101011790555b85851015620001545760405162461bcd60e51b815260206004820152603260248201527f546f6b656e44697374726f3a3a636f6e7374727563746f723a2044555241544960448201527127a72fa622a9a9afaa2420a72fa1a624a32360711b6064820152608401620000bb565b612710841115620001ce5760405162461bcd60e51b815260206004820152603c60248201527f546f6b656e44697374726f3a3a636f6e7374727563746f723a20494e4954494160448201527f4c50455243454e544147455f475245415445525f5448414e5f313030000000006064820152608401620000bb565b620001d862000298565b620001e560003362000367565b6000612710620001f6868b62000634565b62000202919062000611565b60d080546001600160a01b0319166001600160a01b03871617905560cd87905560cb89905560ca8a905560ce81905590506200023f8789620005f6565b60cc556200024e818a62000656565b60cf555030600090815260c96020526040902088905560d0805460ff60a01b1916600160a01b8415150217905580156200028e576000805461ff00191690555b5050505050505050565b600054610100900460ff1680620002b2575060005460ff16155b620003065760405162461bcd60e51b815260206004820152602e60248201526000805160206200337d83398151915260448201526d191e481a5b9a5d1a585b1a5e995960921b6064820152608401620000bb565b600054610100900460ff1615801562000329576000805461ffff19166101011790555b62000333620003aa565b6200033d620003aa565b62000347620003aa565b62000351620003aa565b801562000364576000805461ff00191690555b50565b6200037e82826200044f60201b6200195d1760201c565b6000828152609760209081526040909120620003a59183906200196b6200045f821b17901c565b505050565b600054610100900460ff1680620003c4575060005460ff16155b620004185760405162461bcd60e51b815260206004820152602e60248201526000805160206200337d83398151915260448201526d191e481a5b9a5d1a585b1a5e995960921b6064820152608401620000bb565b600054610100900460ff1615801562000351576000805461ffff1916610101179055801562000364576000805461ff001916905550565b6200045b82826200047f565b5050565b600062000476836001600160a01b03841662000523565b90505b92915050565b60008281526065602090815260408083206001600160a01b038516845290915290205460ff166200045b5760008281526065602090815260408083206001600160a01b03851684529091529020805460ff19166001179055620004df3390565b6001600160a01b0316816001600160a01b0316837f2f8788117e7eff1d82e926ec794901d17c78024a50270940304540a733656f0d60405160405180910390a45050565b60008181526001830160205260408120546200056c5750815460018181018455600084815260208082209093018490558454848252828601909352604090209190915562000479565b50600062000479565b600080600080600080600060e0888a0312156200059157600080fd5b8751602089015160408a015160608b015160808c015160a08d0151949b50929950909750955093506001600160a01b0381168114620005cf57600080fd5b60c08901519092508015158114620005e657600080fd5b8091505092959891949750929550565b600082198211156200060c576200060c62000670565b500190565b6000826200062f57634e487b7160e01b600052601260045260246000fd5b500490565b600081600019048311821515161562000651576200065162000670565b500290565b6000828210156200066b576200066b62000670565b500390565b634e487b7160e01b600052601160045260246000fd5b612ce780620006966000396000f3fe608060405234801561001057600080fd5b50600436106101f05760003560e01c80637e1c0c091161010f578063c7aaa8d4116100a2578063f0bd87cc11610071578063f0bd87cc14610474578063fc0c546a1461049b578063fc1ed437146104bb578063fe64d6ff146104c457600080fd5b8063c7aaa8d414610416578063ca15c87314610429578063d547741f1461043c578063eee565641461044f57600080fd5b8063a0a2b573116100de578063a0a2b573146103d5578063a217fddf146103e8578063b78b52df146103f0578063be7604881461040357600080fd5b80637e1c0c091461033b5780639010d07c1461034457806391d148541461037c5780639a78ea4a146103c257600080fd5b80632f2ff15d116101875780635066c893116101565780635066c893146103035780636ab28bc8146103165780636d8500db1461031f57806378e979251461033257600080fd5b80632f2ff15d146102c257806336568abe146102d55780633e0a322d146102e85780634e71d92d146102fb57600080fd5b8063188ec356116101c3578063188ec356146102525780631e2ff94f1461025a578063248a9ca31461026357806327e235e31461028657600080fd5b806301ffc9a7146101f55780630661c0401461021d5780630f1a6444146102325780630fb5a6b414610249575b600080fd5b610208610203366004612920565b6104d7565b60405190151581526020015b60405180910390f35b61023061022b36600461283e565b610533565b005b61023b60cc5481565b604051908152602001610214565b61023b60cd5481565b61023b610962565b61023b60d15481565b61023b6102713660046128c0565b60009081526065602052604090206001015490565b6102ad610294366004612821565b60c9602052600090815260409020805460019091015482565b60408051928352602083019190915201610214565b6102306102d03660046128d9565b61097a565b6102306102e33660046128d9565b6109a1565b6102306102f63660046128c0565b6109c3565b610230610b97565b61023b610311366004612877565b610ba2565b61023b60cf5481565b61023b61032d3660046128c0565b610d95565b61023b60cb5481565b61023b60ca5481565b6103576103523660046128fe565b610e1b565b60405173ffffffffffffffffffffffffffffffffffffffff9091168152602001610214565b61020861038a3660046128d9565b600091825260656020908152604080842073ffffffffffffffffffffffffffffffffffffffff93909316845291905290205460ff1690565b61023b6103d0366004612821565b610e33565b6102306103e33660046128c0565b60d155565b61023b600081565b6102306103fe366004612877565b610e41565b610230610411366004612877565b61115c565b610230610424366004612962565b61139f565b61023b6104373660046128c0565b6116d0565b61023061044a3660046128d9565b6116e7565b60d0546102089074010000000000000000000000000000000000000000900460ff1681565b61023b7ffbd454f36a7e1a388bd6fc3ab10d434aa4578f811acbbcf33afb1c697486313c81565b60d0546103579073ffffffffffffffffffffffffffffffffffffffff1681565b61023b60ce5481565b6102306104d2366004612821565b6116f1565b60007fffffffff0000000000000000000000000000000000000000000000000000000082167f5a05180f00000000000000000000000000000000000000000000000000000000148061052d575061052d8261198d565b92915050565b60d05474010000000000000000000000000000000000000000900460ff166105e2576040517f08c379a000000000000000000000000000000000000000000000000000000000815260206004820152602d60248201527f546f6b656e44697374726f3a3a63616e63656c416c6c6f636174696f6e3a204e60448201527f4f545f43414e43454c41424c450000000000000000000000000000000000000060648201526084015b60405180910390fd5b3360009081527fffdfc1249c027f9191656349feb0761381bb32c9f557e01f419fd08754bf5a1b602052604090205460ff166106a0576040517f08c379a000000000000000000000000000000000000000000000000000000000815260206004820152602e60248201527f546f6b656e44697374726f3a3a63616e63656c416c6c6f636174696f6e3a204f60448201527f4e4c595f41444d494e5f524f4c4500000000000000000000000000000000000060648201526084016105d9565b73ffffffffffffffffffffffffffffffffffffffff8116600090815260c960205260409020541580156106f9575073ffffffffffffffffffffffffffffffffffffffff8116600090815260c96020526040902060010154155b610785576040517f08c379a000000000000000000000000000000000000000000000000000000000815260206004820152603560248201527f546f6b656e44697374726f3a3a63616e63656c416c6c6f636174696f6e3a204160448201527f4444524553535f414c52454144595f494e5f555345000000000000000000000060648201526084016105d9565b73ffffffffffffffffffffffffffffffffffffffff821660009081527fc30845577a48a4875916abdf69c952cec0f19aac3292d053136a35224608de0b602052604090205460ff1615801561081f575073ffffffffffffffffffffffffffffffffffffffff811660009081527fc30845577a48a4875916abdf69c952cec0f19aac3292d053136a35224608de0b602052604090205460ff16155b6108d1576040517f08c379a000000000000000000000000000000000000000000000000000000000815260206004820152604360248201527f546f6b656e44697374726f3a3a63616e63656c416c6c6f636174696f6e3a204460448201527f49535452494255544f525f524f4c455f4e4f545f415f56414c49445f4144445260648201527f4553530000000000000000000000000000000000000000000000000000000000608482015260a4016105d9565b60006108dc83610e33565b11156108eb576108eb82611a24565b73ffffffffffffffffffffffffffffffffffffffff808316600081815260c96020526040808220805494861680845282842095865583825560019182018054929096019190915583835293829055517f8839b4e99cbac9b99de60313e9f1679f46d6837a692b8c052bf0bd6cacb19c799190a35050565b600060d154600014610975575060d15490565b504290565b6109848282611b85565b600082815260976020526040902061099c908261196b565b505050565b6109ab8282611bab565b600082815260976020526040902061099c9082611c5a565b3360009081527fffdfc1249c027f9191656349feb0761381bb32c9f557e01f419fd08754bf5a1b602052604090205460ff16610a80576040517f08c379a0000000000000000000000000000000000000000000000000000000008152602060048201526024808201527f546f6b656e44697374726f3a3a61737369676e3a204f4e4c595f41444d494e5f60448201527f524f4c450000000000000000000000000000000000000000000000000000000060648201526084016105d9565b610a88610962565b60cb54118015610a9e5750610a9b610962565b81115b610b2a576040517f08c379a000000000000000000000000000000000000000000000000000000000815260206004820152602b60248201527f546f6b656e44697374726f3a3a61737369676e3a2049465f4841535f4e4f545f60448201527f535441525445445f59455400000000000000000000000000000000000000000060648201526084016105d9565b600060cb5460cc54610b3c9190612b49565b60cb8390559050610b4d8183612ab9565b60cc81905560cb546040517fbefe8e3983c0dc663c4ba451fc82d4ff7eb2e4ccc4b944874abea1ecc841feae92610b8b928252602082015260400190565b60405180910390a15050565b610ba033611a24565b565b73ffffffffffffffffffffffffffffffffffffffff821660009081527fc30845577a48a4875916abdf69c952cec0f19aac3292d053136a35224608de0b602052604081205460ff1615610c77576040517f08c379a000000000000000000000000000000000000000000000000000000000815260206004820152603760248201527f546f6b656e44697374726f3a3a636c61696d61626c6541743a2044495354524960448201527f4255544f525f524f4c455f43414e4e4f545f434c41494d00000000000000000060648201526084016105d9565b610c7f610962565b821015610d0e576040517f08c379a000000000000000000000000000000000000000000000000000000000815260206004820152603260248201527f546f6b656e44697374726f3a3a636c61696d61626c6541743a204e4f545f564160448201527f4c49445f504153545f54494d455354414d50000000000000000000000000000060648201526084016105d9565b60ca5473ffffffffffffffffffffffffffffffffffffffff8416600090815260c96020526040812054909190610d4385610d95565b610d4d9190612b0c565b610d579190612ad1565b73ffffffffffffffffffffffffffffffffffffffff8516600090815260c96020526040902060010154909150610d8d9082612b49565b949350505050565b600060cb54821015610da957506000919050565b60cc54821015610dbb57505060ce5490565b60cd5460cb54610dcb9190612ab9565b821115610dda57505060ca5490565b600060cb5483610dea9190612b49565b905060cd5460cf5482610dfd9190612b0c565b610e079190612ad1565b60ce54610e149190612ab9565b9392505050565b6000828152609760205260408120610e149083611c7c565b600061052d82610311610962565b3360009081527fc30845577a48a4875916abdf69c952cec0f19aac3292d053136a35224608de0b602052604090205460ff16610eff576040517f08c379a000000000000000000000000000000000000000000000000000000000815260206004820152602c60248201527f546f6b656e44697374726f3a3a616c6c6f636174653a204f4e4c595f4449535460448201527f52494255544f525f524f4c45000000000000000000000000000000000000000060648201526084016105d9565b73ffffffffffffffffffffffffffffffffffffffff821660009081527fc30845577a48a4875916abdf69c952cec0f19aac3292d053136a35224608de0b602052604090205460ff1615610fd4576040517f08c379a000000000000000000000000000000000000000000000000000000000815260206004820152603660248201527f546f6b656e44697374726f3a3a616c6c6f636174653a2044495354524942555460448201527f4f525f4e4f545f56414c49445f524543495049454e540000000000000000000060648201526084016105d9565b33600090815260c9602052604090206001015415611074576040517f08c379a000000000000000000000000000000000000000000000000000000000815260206004820152602f60248201527f546f6b656e44697374726f3a3a616c6c6f636174653a2044495354524942555460448201527f4f525f43414e4e4f545f434c41494d000000000000000000000000000000000060648201526084016105d9565b33600090815260c9602052604090205461108f908290612b49565b33600090815260c960205260408082209290925573ffffffffffffffffffffffffffffffffffffffff8416815220546110c9908290612ab9565b73ffffffffffffffffffffffffffffffffffffffff8316600090815260c960205260408120919091556110fb83610e33565b111561110a5761110a82611a24565b60405181815273ffffffffffffffffffffffffffffffffffffffff83169033907f5168bfb88d6125d4580e2b91ecb103a730312c3e8b0be9c4031a0fc794e2cd5f906020015b60405180910390a35050565b3360009081527fffdfc1249c027f9191656349feb0761381bb32c9f557e01f419fd08754bf5a1b602052604090205460ff16611219576040517f08c379a0000000000000000000000000000000000000000000000000000000008152602060048201526024808201527f546f6b656e44697374726f3a3a61737369676e3a204f4e4c595f41444d494e5f60448201527f524f4c450000000000000000000000000000000000000000000000000000000060648201526084016105d9565b73ffffffffffffffffffffffffffffffffffffffff821660009081527fc30845577a48a4875916abdf69c952cec0f19aac3292d053136a35224608de0b602052604090205460ff166112ed576040517f08c379a000000000000000000000000000000000000000000000000000000000815260206004820152602d60248201527f546f6b656e44697374726f3a3a61737369676e3a204f4e4c595f544f5f44495360448201527f5452494255544f525f524f4c450000000000000000000000000000000000000060648201526084016105d9565b30600090815260c96020526040902054611308908290612b49565b30600090815260c960205260408082209290925573ffffffffffffffffffffffffffffffffffffffff841681522054611342908290612ab9565b73ffffffffffffffffffffffffffffffffffffffff8316600081815260c960205260409081902092909255905133907e7ae6a979e5d8177867f7c1ca4be1527487a2e43a444b55c3dfaee02c423544906111509085815260200190565b600054610100900460ff16806113b8575060005460ff16155b611444576040517f08c379a000000000000000000000000000000000000000000000000000000000815260206004820152602e60248201527f496e697469616c697a61626c653a20636f6e747261637420697320616c72656160448201527f647920696e697469616c697a656400000000000000000000000000000000000060648201526084016105d9565b600054610100900460ff1615801561148357600080547fffffffffffffffffffffffffffffffffffffffffffffffffffffffffffff0000166101011790555b85851015611513576040517f08c379a000000000000000000000000000000000000000000000000000000000815260206004820152603260248201527f546f6b656e44697374726f3a3a636f6e7374727563746f723a2044555241544960448201527f4f4e5f4c4553535f5448414e5f434c494646000000000000000000000000000060648201526084016105d9565b6127108411156115a5576040517f08c379a000000000000000000000000000000000000000000000000000000000815260206004820152603c60248201527f546f6b656e44697374726f3a3a636f6e7374727563746f723a20494e4954494160448201527f4c50455243454e544147455f475245415445525f5448414e5f3130300000000060648201526084016105d9565b6115ad611c88565b6115b8600033611dbe565b60006127106115c7868b612b0c565b6115d19190612ad1565b60d080547fffffffffffffffffffffffff00000000000000000000000000000000000000001673ffffffffffffffffffffffffffffffffffffffff871617905560cd87905560cb89905560ca8a905560ce81905590506116318789612ab9565b60cc5561163e818a612b49565b60cf555030600090815260c96020526040902088905560d080547fffffffffffffffffffffff00ffffffffffffffffffffffffffffffffffffffff16740100000000000000000000000000000000000000008415150217905580156116c657600080547fffffffffffffffffffffffffffffffffffffffffffffffffffffffffffff00ff1690555b5050505050505050565b600081815260976020526040812061052d90611dc8565b6109ab8282611dd2565b73ffffffffffffffffffffffffffffffffffffffff8116600090815260c9602052604090205415801561174a575073ffffffffffffffffffffffffffffffffffffffff8116600090815260c96020526040902060010154155b6117d6576040517f08c379a000000000000000000000000000000000000000000000000000000000815260206004820152603260248201527f546f6b656e44697374726f3a3a6368616e6765416464726573733a204144445260448201527f4553535f414c52454144595f494e5f555345000000000000000000000000000060648201526084016105d9565b3360009081527fc30845577a48a4875916abdf69c952cec0f19aac3292d053136a35224608de0b602052604090205460ff1615801561185a575073ffffffffffffffffffffffffffffffffffffffff811660009081527fc30845577a48a4875916abdf69c952cec0f19aac3292d053136a35224608de0b602052604090205460ff16155b6118e857604080517f08c379a00000000000000000000000000000000000000000000000000000000081526020600482015260248101919091527f546f6b656e44697374726f3a3a6368616e6765416464726573733a204449535460448201527f52494255544f525f524f4c455f4e4f545f415f56414c49445f4144445245535360648201526084016105d9565b33600081815260c96020526040808220805473ffffffffffffffffffffffffffffffffffffffff861680855283852091825584835560019283018054939092019290925584845283905590519092917f8839b4e99cbac9b99de60313e9f1679f46d6837a692b8c052bf0bd6cacb19c7991a350565b6119678282611df8565b5050565b6000610e148373ffffffffffffffffffffffffffffffffffffffff8416611eec565b60007fffffffff0000000000000000000000000000000000000000000000000000000082167f7965db0b00000000000000000000000000000000000000000000000000000000148061052d57507f01ffc9a7000000000000000000000000000000000000000000000000000000007fffffffff0000000000000000000000000000000000000000000000000000000083161461052d565b6000611a2f82610e33565b905060008111611ac1576040517f08c379a000000000000000000000000000000000000000000000000000000000815260206004820152602f60248201527f546f6b656e44697374726f3a3a636c61696d3a204e4f545f454e4f554754485f60448201527f544f4b454e535f544f5f434c41494d000000000000000000000000000000000060648201526084016105d9565b73ffffffffffffffffffffffffffffffffffffffff8216600090815260c96020526040902060010154611af5908290612ab9565b73ffffffffffffffffffffffffffffffffffffffff808416600090815260c9602052604090206001019190915560d054611b3191168383611f3b565b8173ffffffffffffffffffffffffffffffffffffffff167f47cee97cb7acd717b3c0aa1435d004cd5b3c8c57d70dbceb4e4458bbd60e39d482604051611b7991815260200190565b60405180910390a25050565b600082815260656020526040902060010154611ba18133611fc8565b61099c8383611df8565b73ffffffffffffffffffffffffffffffffffffffff81163314611c50576040517f08c379a000000000000000000000000000000000000000000000000000000000815260206004820152602f60248201527f416363657373436f6e74726f6c3a2063616e206f6e6c792072656e6f756e636560448201527f20726f6c657320666f722073656c66000000000000000000000000000000000060648201526084016105d9565b611967828261209a565b6000610e148373ffffffffffffffffffffffffffffffffffffffff8416612155565b6000610e148383612248565b600054610100900460ff1680611ca1575060005460ff16155b611d2d576040517f08c379a000000000000000000000000000000000000000000000000000000000815260206004820152602e60248201527f496e697469616c697a61626c653a20636f6e747261637420697320616c72656160448201527f647920696e697469616c697a656400000000000000000000000000000000000060648201526084016105d9565b600054610100900460ff16158015611d6c57600080547fffffffffffffffffffffffffffffffffffffffffffffffffffffffffffff0000166101011790555b611d74612272565b611d7c612272565b611d84612272565b611d8c612272565b8015611dbb57600080547fffffffffffffffffffffffffffffffffffffffffffffffffffffffffffff00ff1690555b50565b610984828261195d565b600061052d825490565b600082815260656020526040902060010154611dee8133611fc8565b61099c838361209a565b600082815260656020908152604080832073ffffffffffffffffffffffffffffffffffffffff8516845290915290205460ff1661196757600082815260656020908152604080832073ffffffffffffffffffffffffffffffffffffffff85168452909152902080547fffffffffffffffffffffffffffffffffffffffffffffffffffffffffffffff00166001179055611e8e3390565b73ffffffffffffffffffffffffffffffffffffffff168173ffffffffffffffffffffffffffffffffffffffff16837f2f8788117e7eff1d82e926ec794901d17c78024a50270940304540a733656f0d60405160405180910390a45050565b6000818152600183016020526040812054611f335750815460018181018455600084815260208082209093018490558454848252828601909352604090209190915561052d565b50600061052d565b6040805173ffffffffffffffffffffffffffffffffffffffff8416602482015260448082018490528251808303909101815260649091019091526020810180517bffffffffffffffffffffffffffffffffffffffffffffffffffffffff167fa9059cbb0000000000000000000000000000000000000000000000000000000017905261099c908490612386565b600082815260656020908152604080832073ffffffffffffffffffffffffffffffffffffffff8516845290915290205460ff16611967576120208173ffffffffffffffffffffffffffffffffffffffff166014612492565b61202b836020612492565b60405160200161203c9291906129e7565b604080517fffffffffffffffffffffffffffffffffffffffffffffffffffffffffffffffe0818403018152908290527f08c379a00000000000000000000000000000000000000000000000000000000082526105d991600401612a68565b600082815260656020908152604080832073ffffffffffffffffffffffffffffffffffffffff8516845290915290205460ff161561196757600082815260656020908152604080832073ffffffffffffffffffffffffffffffffffffffff8516808552925280832080547fffffffffffffffffffffffffffffffffffffffffffffffffffffffffffffff0016905551339285917ff6391f5c32d9c69d2a47ea670b442974b53935d1edc7fd64eb21e047a839171b9190a45050565b6000818152600183016020526040812054801561223e576000612179600183612b49565b855490915060009061218d90600190612b49565b90508181146121f25760008660000182815481106121ad576121ad612c23565b90600052602060002001549050808760000184815481106121d0576121d0612c23565b6000918252602080832090910192909255918252600188019052604090208390555b855486908061220357612203612bf4565b60019003818190600052602060002001600090559055856001016000868152602001908152602001600020600090556001935050505061052d565b600091505061052d565b600082600001828154811061225f5761225f612c23565b9060005260206000200154905092915050565b600054610100900460ff168061228b575060005460ff16155b612317576040517f08c379a000000000000000000000000000000000000000000000000000000000815260206004820152602e60248201527f496e697469616c697a61626c653a20636f6e747261637420697320616c72656160448201527f647920696e697469616c697a656400000000000000000000000000000000000060648201526084016105d9565b600054610100900460ff16158015611d8c57600080547fffffffffffffffffffffffffffffffffffffffffffffffffffffffffffff0000166101011790558015611dbb57600080547fffffffffffffffffffffffffffffffffffffffffffffffffffffffffffff00ff16905550565b60006123e8826040518060400160405280602081526020017f5361666545524332303a206c6f772d6c6576656c2063616c6c206661696c65648152508573ffffffffffffffffffffffffffffffffffffffff166126d59092919063ffffffff16565b80519091501561099c578080602001905181019061240691906128a3565b61099c576040517f08c379a000000000000000000000000000000000000000000000000000000000815260206004820152602a60248201527f5361666545524332303a204552433230206f7065726174696f6e20646964206e60448201527f6f7420737563636565640000000000000000000000000000000000000000000060648201526084016105d9565b606060006124a1836002612b0c565b6124ac906002612ab9565b67ffffffffffffffff8111156124c4576124c4612c52565b6040519080825280601f01601f1916602001820160405280156124ee576020820181803683370190505b5090507f30000000000000000000000000000000000000000000000000000000000000008160008151811061252557612525612c23565b60200101907effffffffffffffffffffffffffffffffffffffffffffffffffffffffffffff1916908160001a9053507f78000000000000000000000000000000000000000000000000000000000000008160018151811061258857612588612c23565b60200101907effffffffffffffffffffffffffffffffffffffffffffffffffffffffffffff1916908160001a90535060006125c4846002612b0c565b6125cf906001612ab9565b90505b600181111561266c577f303132333435363738396162636465660000000000000000000000000000000085600f166010811061261057612610612c23565b1a60f81b82828151811061262657612626612c23565b60200101907effffffffffffffffffffffffffffffffffffffffffffffffffffffffffffff1916908160001a90535060049490941c9361266581612b90565b90506125d2565b508315610e14576040517f08c379a000000000000000000000000000000000000000000000000000000000815260206004820181905260248201527f537472696e67733a20686578206c656e67746820696e73756666696369656e7460448201526064016105d9565b6060610d8d848460008585843b612748576040517f08c379a000000000000000000000000000000000000000000000000000000000815260206004820152601d60248201527f416464726573733a2063616c6c20746f206e6f6e2d636f6e747261637400000060448201526064016105d9565b6000808673ffffffffffffffffffffffffffffffffffffffff16858760405161277191906129cb565b60006040518083038185875af1925050503d80600081146127ae576040519150601f19603f3d011682016040523d82523d6000602084013e6127b3565b606091505b50915091506127c38282866127ce565b979650505050505050565b606083156127dd575081610e14565b8251156127ed5782518084602001fd5b816040517f08c379a00000000000000000000000000000000000000000000000000000000081526004016105d99190612a68565b60006020828403121561283357600080fd5b8135610e1481612c81565b6000806040838503121561285157600080fd5b823561285c81612c81565b9150602083013561286c81612c81565b809150509250929050565b6000806040838503121561288a57600080fd5b823561289581612c81565b946020939093013593505050565b6000602082840312156128b557600080fd5b8151610e1481612ca3565b6000602082840312156128d257600080fd5b5035919050565b600080604083850312156128ec57600080fd5b82359150602083013561286c81612c81565b6000806040838503121561291157600080fd5b50508035926020909101359150565b60006020828403121561293257600080fd5b81357fffffffff0000000000000000000000000000000000000000000000000000000081168114610e1457600080fd5b600080600080600080600060e0888a03121561297d57600080fd5b873596506020880135955060408801359450606088013593506080880135925060a08801356129ab81612c81565b915060c08801356129bb81612ca3565b8091505092959891949750929550565b600082516129dd818460208701612b60565b9190910192915050565b7f416363657373436f6e74726f6c3a206163636f756e7420000000000000000000815260008351612a1f816017850160208801612b60565b7f206973206d697373696e6720726f6c65200000000000000000000000000000006017918401918201528351612a5c816028840160208801612b60565b01602801949350505050565b6020815260008251806020840152612a87816040850160208701612b60565b601f017fffffffffffffffffffffffffffffffffffffffffffffffffffffffffffffffe0169190910160400192915050565b60008219821115612acc57612acc612bc5565b500190565b600082612b07577f4e487b7100000000000000000000000000000000000000000000000000000000600052601260045260246000fd5b500490565b6000817fffffffffffffffffffffffffffffffffffffffffffffffffffffffffffffffff0483118215151615612b4457612b44612bc5565b500290565b600082821015612b5b57612b5b612bc5565b500390565b60005b83811015612b7b578181015183820152602001612b63565b83811115612b8a576000848401525b50505050565b600081612b9f57612b9f612bc5565b507fffffffffffffffffffffffffffffffffffffffffffffffffffffffffffffffff0190565b7f4e487b7100000000000000000000000000000000000000000000000000000000600052601160045260246000fd5b7f4e487b7100000000000000000000000000000000000000000000000000000000600052603160045260246000fd5b7f4e487b7100000000000000000000000000000000000000000000000000000000600052603260045260246000fd5b7f4e487b7100000000000000000000000000000000000000000000000000000000600052604160045260246000fd5b73ffffffffffffffffffffffffffffffffffffffff81168114611dbb57600080fd5b8015158114611dbb57600080fdfea2646970667358221220901f4e679815788eb7f495dd626110193423a0194fe9d4930fbc9168aac9b7c564736f6c63430008060033496e697469616c697a61626c653a20636f6e747261637420697320616c726561",
  "linkReferences": {},
  "deployedLinkReferences": {}
}