{
  "_format": "hh-sol-artifact-1",
  "contractName": "LPTokenWrapper",
  "sourceName": "contracts/Distributors/UnipoolTokenDistributor.sol",
  "abi": [
    {
      "inputs": [
        {
          "internalType": "contract IERC20",
          "name": "_uni",
          "type": "address"
        }
      ],
      "stateMutability": "nonpayable",
      "type": "constructor"
    },
    {
      "inputs": [
        {
          "internalType": "address",
          "name": "account",
          "type": "address"
        }
      ],
      "name": "balanceOf",
      "outputs": [
        {
          "internalType": "uint256",
          "name": "",
          "type": "uint256"
        }
      ],
      "stateMutability": "view",
      "type": "function"
    },
    {
      "inputs": [
        {
          "internalType": "uint256",
          "name": "amount",
          "type": "uint256"
        }
      ],
      "name": "stake",
      "outputs": [],
      "stateMutability": "nonpayable",
      "type": "function"
    },
    {
      "inputs": [],
      "name": "totalSupply",
      "outputs": [
        {
          "internalType": "uint256",
          "name": "",
          "type": "uint256"
        }
      ],
      "stateMutability": "view",
      "type": "function"
    },
    {
      "inputs": [],
      "name": "uni",
      "outputs": [
        {
          "internalType": "contract IERC20",
          "name": "",
          "type": "address"
        }
      ],
      "stateMutability": "view",
      "type": "function"
    },
    {
      "inputs": [
        {
          "internalType": "uint256",
          "name": "amount",
          "type": "uint256"
        }
      ],
      "name": "withdraw",
      "outputs": [],
      "stateMutability": "nonpayable",
      "type": "function"
    }
  ],
  "bytecode": "0x60a060405234801561001057600080fd5b506040516108ba3803806108ba83398101604081905261002f91610044565b60601b6001600160601b031916608052610072565b600060208284031215610055578081fd5b81516001600160a01b038116811461006b578182fd5b9392505050565b60805160601c61081d61009d6000396000818160e60152818161016f01526101f0015261081d6000f3fe608060405234801561001057600080fd5b50600436106100675760003560e01c806370a082311161005057806370a0823114610098578063a694fc3a146100ce578063edc9af95146100e157610067565b806318160ddd1461006c5780632e1a7d4d14610083575b600080fd5b6000545b6040519081526020015b60405180910390f35b6100966100913660046106d8565b61012d565b005b6100706100a6366004610684565b73ffffffffffffffffffffffffffffffffffffffff1660009081526001602052604090205490565b6100966100dc3660046106d8565b6101ae565b6101087f000000000000000000000000000000000000000000000000000000000000000081565b60405173ffffffffffffffffffffffffffffffffffffffff909116815260200161007a565b60005461013a908261022d565b600090815533815260016020526040902054610156908261022d565b336000818152600160205260409020919091556101ab907f000000000000000000000000000000000000000000000000000000000000000073ffffffffffffffffffffffffffffffffffffffff169083610240565b50565b6000546101bb9082610319565b6000908155338152600160205260409020546101d79082610319565b336000818152600160205260409020919091556101ab907f000000000000000000000000000000000000000000000000000000000000000073ffffffffffffffffffffffffffffffffffffffff16903084610325565b60006102398284610775565b9392505050565b60405173ffffffffffffffffffffffffffffffffffffffff83166024820152604481018290526103149084907fa9059cbb00000000000000000000000000000000000000000000000000000000906064015b604080517fffffffffffffffffffffffffffffffffffffffffffffffffffffffffffffffe08184030181529190526020810180517bffffffffffffffffffffffffffffffffffffffffffffffffffffffff167fffffffff0000000000000000000000000000000000000000000000000000000090931692909217909152610389565b505050565b6000610239828461075d565b60405173ffffffffffffffffffffffffffffffffffffffff808516602483015283166044820152606481018290526103839085907f23b872dd0000000000000000000000000000000000000000000000000000000090608401610292565b50505050565b60006103eb826040518060400160405280602081526020017f5361666545524332303a206c6f772d6c6576656c2063616c6c206661696c65648152508573ffffffffffffffffffffffffffffffffffffffff1661049a9092919063ffffffff16565b805190915015610314578080602001905181019061040991906106b8565b610314576040517f08c379a000000000000000000000000000000000000000000000000000000000815260206004820152602a60248201527f5361666545524332303a204552433230206f7065726174696f6e20646964206e60448201527f6f7420737563636565640000000000000000000000000000000000000000000060648201526084015b60405180910390fd5b60606104a984846000856104b1565b949350505050565b606082471015610543576040517f08c379a000000000000000000000000000000000000000000000000000000000815260206004820152602660248201527f416464726573733a20696e73756666696369656e742062616c616e636520666f60448201527f722063616c6c00000000000000000000000000000000000000000000000000006064820152608401610491565b843b6105ab576040517f08c379a000000000000000000000000000000000000000000000000000000000815260206004820152601d60248201527f416464726573733a2063616c6c20746f206e6f6e2d636f6e74726163740000006044820152606401610491565b6000808673ffffffffffffffffffffffffffffffffffffffff1685876040516105d491906106f0565b60006040518083038185875af1925050503d8060008114610611576040519150601f19603f3d011682016040523d82523d6000602084013e610616565b606091505b5091509150610626828286610631565b979650505050505050565b60608315610640575081610239565b8251156106505782518084602001fd5b816040517f08c379a0000000000000000000000000000000000000000000000000000000008152600401610491919061070c565b600060208284031215610695578081fd5b813573ffffffffffffffffffffffffffffffffffffffff81168114610239578182fd5b6000602082840312156106c9578081fd5b81518015158114610239578182fd5b6000602082840312156106e9578081fd5b5035919050565b6000825161070281846020870161078c565b9190910192915050565b600060208252825180602084015261072b81604085016020870161078c565b601f017fffffffffffffffffffffffffffffffffffffffffffffffffffffffffffffffe0169190910160400192915050565b60008219821115610770576107706107b8565b500190565b600082821015610787576107876107b8565b500390565b60005b838110156107a757818101518382015260200161078f565b838111156103835750506000910152565b7f4e487b7100000000000000000000000000000000000000000000000000000000600052601160045260246000fdfea264697066735822122002d982ff5b2ec60d9d99be1394187e4addee8e8aae8dfef18f88a380348cc5c064736f6c63430008030033",
  "linkReferences": {},
  "deployedLinkReferences": {}
}