{
  "_format": "hh-sol-artifact-1",
  "contractName": "LPTokenWrapper",
  "sourceName": "contracts/Distributors/UnipoolTokenDistributor.sol",
  "abi": [
    {
      "inputs": [
        {
          "internalType": "contract IERC20Upgradeable",
          "name": "_uni",
          "type": "address"
        }
      ],
      "name": "__LPTokenWrapper_initialize",
      "outputs": [],
      "stateMutability": "nonpayable",
      "type": "function"
    },
    {
      "inputs": [
        {
          "internalType": "address",
          "name": "account",
          "type": "address"
        }
      ],
      "name": "balanceOf",
      "outputs": [
        {
          "internalType": "uint256",
          "name": "",
          "type": "uint256"
        }
      ],
      "stateMutability": "view",
      "type": "function"
    },
    {
      "inputs": [
        {
          "internalType": "uint256",
          "name": "amount",
          "type": "uint256"
        }
      ],
      "name": "stake",
      "outputs": [],
      "stateMutability": "nonpayable",
      "type": "function"
    },
    {
      "inputs": [],
      "name": "totalSupply",
      "outputs": [
        {
          "internalType": "uint256",
          "name": "",
          "type": "uint256"
        }
      ],
      "stateMutability": "view",
      "type": "function"
    },
    {
      "inputs": [],
      "name": "uni",
      "outputs": [
        {
          "internalType": "contract IERC20Upgradeable",
          "name": "",
          "type": "address"
        }
      ],
      "stateMutability": "view",
      "type": "function"
    },
    {
      "inputs": [
        {
          "internalType": "uint256",
          "name": "amount",
          "type": "uint256"
        }
      ],
      "name": "withdraw",
      "outputs": [],
      "stateMutability": "nonpayable",
      "type": "function"
    }
  ],
  "bytecode": "0x608060405234801561001057600080fd5b50610976806100206000396000f3fe608060405234801561001057600080fd5b50600436106100725760003560e01c806370a082311161005057806370a08231146100b6578063a694fc3a146100ec578063edc9af95146100ff57600080fd5b806318160ddd146100775780632e1a7d4d1461008e578063478f4d02146100a3575b600080fd5b6001545b6040519081526020015b60405180910390f35b6100a161009c36600461080e565b61014a565b005b6100a16100b13660046107cf565b6101b4565b61007b6100c43660046107cf565b73ffffffffffffffffffffffffffffffffffffffff1660009081526002602052604090205490565b6100a16100fa36600461080e565b610315565b6000546101259062010000900473ffffffffffffffffffffffffffffffffffffffff1681565b60405173ffffffffffffffffffffffffffffffffffffffff9091168152602001610085565b600154610157908261037d565b60015533600090815260026020526040902054610174908261037d565b3360008181526002602052604081209290925590546101b1916201000090910473ffffffffffffffffffffffffffffffffffffffff169083610390565b50565b600054610100900460ff16806101cd575060005460ff16155b61025e576040517f08c379a000000000000000000000000000000000000000000000000000000000815260206004820152602e60248201527f496e697469616c697a61626c653a20636f6e747261637420697320616c72656160448201527f647920696e697469616c697a656400000000000000000000000000000000000060648201526084015b60405180910390fd5b600054610100900460ff1615801561029d57600080547fffffffffffffffffffffffffffffffffffffffffffffffffffffffffffff0000166101011790555b600080547fffffffffffffffffffff0000000000000000000000000000000000000000ffff166201000073ffffffffffffffffffffffffffffffffffffffff851602179055801561031157600080547fffffffffffffffffffffffffffffffffffffffffffffffffffffffffffff00ff1690555b5050565b6001546103229082610469565b6001553360009081526002602052604090205461033f9082610469565b3360008181526002602052604081209290925590546101b1916201000090910473ffffffffffffffffffffffffffffffffffffffff16903084610475565b600061038982846108ac565b9392505050565b60405173ffffffffffffffffffffffffffffffffffffffff83166024820152604481018290526104649084907fa9059cbb00000000000000000000000000000000000000000000000000000000906064015b604080517fffffffffffffffffffffffffffffffffffffffffffffffffffffffffffffffe08184030181529190526020810180517bffffffffffffffffffffffffffffffffffffffffffffffffffffffff167fffffffff00000000000000000000000000000000000000000000000000000000909316929092179091526104d9565b505050565b60006103898284610894565b60405173ffffffffffffffffffffffffffffffffffffffff808516602483015283166044820152606481018290526104d39085907f23b872dd00000000000000000000000000000000000000000000000000000000906084016103e2565b50505050565b600061053b826040518060400160405280602081526020017f5361666545524332303a206c6f772d6c6576656c2063616c6c206661696c65648152508573ffffffffffffffffffffffffffffffffffffffff166105e59092919063ffffffff16565b805190915015610464578080602001905181019061055991906107ec565b610464576040517f08c379a000000000000000000000000000000000000000000000000000000000815260206004820152602a60248201527f5361666545524332303a204552433230206f7065726174696f6e20646964206e60448201527f6f742073756363656564000000000000000000000000000000000000000000006064820152608401610255565b60606105f484846000856105fc565b949350505050565b60608247101561068e576040517f08c379a000000000000000000000000000000000000000000000000000000000815260206004820152602660248201527f416464726573733a20696e73756666696369656e742062616c616e636520666f60448201527f722063616c6c00000000000000000000000000000000000000000000000000006064820152608401610255565b843b6106f6576040517f08c379a000000000000000000000000000000000000000000000000000000000815260206004820152601d60248201527f416464726573733a2063616c6c20746f206e6f6e2d636f6e74726163740000006044820152606401610255565b6000808673ffffffffffffffffffffffffffffffffffffffff16858760405161071f9190610827565b60006040518083038185875af1925050503d806000811461075c576040519150601f19603f3d011682016040523d82523d6000602084013e610761565b606091505b509150915061077182828661077c565b979650505050505050565b6060831561078b575081610389565b82511561079b5782518084602001fd5b816040517f08c379a00000000000000000000000000000000000000000000000000000000081526004016102559190610843565b6000602082840312156107e157600080fd5b81356103898161091e565b6000602082840312156107fe57600080fd5b8151801515811461038957600080fd5b60006020828403121561082057600080fd5b5035919050565b600082516108398184602087016108c3565b9190910192915050565b60208152600082518060208401526108628160408501602087016108c3565b601f017fffffffffffffffffffffffffffffffffffffffffffffffffffffffffffffffe0169190910160400192915050565b600082198211156108a7576108a76108ef565b500190565b6000828210156108be576108be6108ef565b500390565b60005b838110156108de5781810151838201526020016108c6565b838111156104d35750506000910152565b7f4e487b7100000000000000000000000000000000000000000000000000000000600052601160045260246000fd5b73ffffffffffffffffffffffffffffffffffffffff811681146101b157600080fdfea2646970667358221220006c7d29c3c60067a72403fbe823741ea06513a1322869d940c89ccf3282c46f64736f6c63430008060033",
  "linkReferences": {},
  "deployedLinkReferences": {}
}