{
  "_format": "hh-sol-artifact-1",
  "contractName": "UnipoolTokenDistributor",
  "sourceName": "contracts/Distributors/UnipoolTokenDistributor.sol",
  "abi": [
    {
      "inputs": [
        {
          "internalType": "contract IDistro",
          "name": "_tokenDistribution",
          "type": "address"
        },
        {
          "internalType": "contract IERC20",
          "name": "_uni",
          "type": "address"
        },
        {
          "internalType": "uint256",
          "name": "_duration",
          "type": "uint256"
        }
      ],
      "stateMutability": "nonpayable",
      "type": "constructor"
    },
    {
      "anonymous": false,
      "inputs": [
        {
          "indexed": true,
          "internalType": "address",
          "name": "previousOwner",
          "type": "address"
        },
        {
          "indexed": true,
          "internalType": "address",
          "name": "newOwner",
          "type": "address"
        }
      ],
      "name": "OwnershipTransferred",
      "type": "event"
    },
    {
      "anonymous": false,
      "inputs": [
        {
          "indexed": false,
          "internalType": "uint256",
          "name": "reward",
          "type": "uint256"
        }
      ],
      "name": "RewardAdded",
      "type": "event"
    },
    {
      "anonymous": false,
      "inputs": [
        {
          "indexed": true,
          "internalType": "address",
          "name": "user",
          "type": "address"
        },
        {
          "indexed": false,
          "internalType": "uint256",
          "name": "reward",
          "type": "uint256"
        }
      ],
      "name": "RewardPaid",
      "type": "event"
    },
    {
      "anonymous": false,
      "inputs": [
        {
          "indexed": true,
          "internalType": "address",
          "name": "user",
          "type": "address"
        },
        {
          "indexed": false,
          "internalType": "uint256",
          "name": "amount",
          "type": "uint256"
        }
      ],
      "name": "Staked",
      "type": "event"
    },
    {
      "anonymous": false,
      "inputs": [
        {
          "indexed": true,
          "internalType": "address",
          "name": "user",
          "type": "address"
        },
        {
          "indexed": false,
          "internalType": "uint256",
          "name": "amount",
          "type": "uint256"
        }
      ],
      "name": "Withdrawn",
      "type": "event"
    },
    {
      "inputs": [
        {
          "internalType": "address",
          "name": "account",
          "type": "address"
        }
      ],
      "name": "balanceOf",
      "outputs": [
        {
          "internalType": "uint256",
          "name": "",
          "type": "uint256"
        }
      ],
      "stateMutability": "view",
      "type": "function"
    },
    {
      "inputs": [],
      "name": "duration",
      "outputs": [
        {
          "internalType": "uint256",
          "name": "",
          "type": "uint256"
        }
      ],
      "stateMutability": "view",
      "type": "function"
    },
    {
      "inputs": [
        {
          "internalType": "address",
          "name": "account",
          "type": "address"
        }
      ],
      "name": "earned",
      "outputs": [
        {
          "internalType": "uint256",
          "name": "",
          "type": "uint256"
        }
      ],
      "stateMutability": "view",
      "type": "function"
    },
    {
      "inputs": [],
      "name": "exit",
      "outputs": [],
      "stateMutability": "nonpayable",
      "type": "function"
    },
    {
      "inputs": [],
      "name": "getReward",
      "outputs": [],
      "stateMutability": "nonpayable",
      "type": "function"
    },
    {
      "inputs": [],
      "name": "lastTimeRewardApplicable",
      "outputs": [
        {
          "internalType": "uint256",
          "name": "",
          "type": "uint256"
        }
      ],
      "stateMutability": "view",
      "type": "function"
    },
    {
      "inputs": [],
      "name": "lastUpdateTime",
      "outputs": [
        {
          "internalType": "uint256",
          "name": "",
          "type": "uint256"
        }
      ],
      "stateMutability": "view",
      "type": "function"
    },
    {
      "inputs": [
        {
          "internalType": "uint256",
          "name": "reward",
          "type": "uint256"
        }
      ],
      "name": "notifyRewardAmount",
      "outputs": [],
      "stateMutability": "nonpayable",
      "type": "function"
    },
    {
      "inputs": [],
      "name": "owner",
      "outputs": [
        {
          "internalType": "address",
          "name": "",
          "type": "address"
        }
      ],
      "stateMutability": "view",
      "type": "function"
    },
    {
      "inputs": [],
      "name": "periodFinish",
      "outputs": [
        {
          "internalType": "uint256",
          "name": "",
          "type": "uint256"
        }
      ],
      "stateMutability": "view",
      "type": "function"
    },
    {
      "inputs": [],
      "name": "renounceOwnership",
      "outputs": [],
      "stateMutability": "nonpayable",
      "type": "function"
    },
    {
      "inputs": [],
      "name": "rewardDistribution",
      "outputs": [
        {
          "internalType": "address",
          "name": "",
          "type": "address"
        }
      ],
      "stateMutability": "view",
      "type": "function"
    },
    {
      "inputs": [],
      "name": "rewardPerToken",
      "outputs": [
        {
          "internalType": "uint256",
          "name": "",
          "type": "uint256"
        }
      ],
      "stateMutability": "view",
      "type": "function"
    },
    {
      "inputs": [],
      "name": "rewardPerTokenStored",
      "outputs": [
        {
          "internalType": "uint256",
          "name": "",
          "type": "uint256"
        }
      ],
      "stateMutability": "view",
      "type": "function"
    },
    {
      "inputs": [],
      "name": "rewardRate",
      "outputs": [
        {
          "internalType": "uint256",
          "name": "",
          "type": "uint256"
        }
      ],
      "stateMutability": "view",
      "type": "function"
    },
    {
      "inputs": [
        {
          "internalType": "address",
          "name": "",
          "type": "address"
        }
      ],
      "name": "rewards",
      "outputs": [
        {
          "internalType": "uint256",
          "name": "",
          "type": "uint256"
        }
      ],
      "stateMutability": "view",
      "type": "function"
    },
    {
      "inputs": [
        {
          "internalType": "address",
          "name": "_rewardDistribution",
          "type": "address"
        }
      ],
      "name": "setRewardDistribution",
      "outputs": [],
      "stateMutability": "nonpayable",
      "type": "function"
    },
    {
      "inputs": [
        {
          "internalType": "uint256",
          "name": "amount",
          "type": "uint256"
        }
      ],
      "name": "stake",
      "outputs": [],
      "stateMutability": "nonpayable",
      "type": "function"
    },
    {
      "inputs": [
        {
          "internalType": "uint256",
          "name": "amount",
          "type": "uint256"
        },
        {
          "internalType": "bytes",
          "name": "permit",
          "type": "bytes"
        }
      ],
      "name": "stakeWithPermit",
      "outputs": [],
      "stateMutability": "nonpayable",
      "type": "function"
    },
    {
      "inputs": [],
      "name": "tokenDistro",
      "outputs": [
        {
          "internalType": "contract IDistro",
          "name": "",
          "type": "address"
        }
      ],
      "stateMutability": "view",
      "type": "function"
    },
    {
      "inputs": [],
      "name": "totalSupply",
      "outputs": [
        {
          "internalType": "uint256",
          "name": "",
          "type": "uint256"
        }
      ],
      "stateMutability": "view",
      "type": "function"
    },
    {
      "inputs": [
        {
          "internalType": "address",
          "name": "newOwner",
          "type": "address"
        }
      ],
      "name": "transferOwnership",
      "outputs": [],
      "stateMutability": "nonpayable",
      "type": "function"
    },
    {
      "inputs": [],
      "name": "uni",
      "outputs": [
        {
          "internalType": "contract IERC20",
          "name": "",
          "type": "address"
        }
      ],
      "stateMutability": "view",
      "type": "function"
    },
    {
      "inputs": [
        {
          "internalType": "address",
          "name": "",
          "type": "address"
        }
      ],
      "name": "userRewardPerTokenPaid",
      "outputs": [
        {
          "internalType": "uint256",
          "name": "",
          "type": "uint256"
        }
      ],
      "stateMutability": "view",
      "type": "function"
    },
    {
      "inputs": [
        {
          "internalType": "uint256",
          "name": "amount",
          "type": "uint256"
        }
      ],
      "name": "withdraw",
      "outputs": [],
      "stateMutability": "nonpayable",
      "type": "function"
    }
  ],
  "bytecode": "0x60e0604052600060045560006005553480156200001b57600080fd5b5060405162001e2938038062001e298339810160408190526200003e91620000b0565b6001600160601b0319606083901b16608052600280546001600160a01b0319163390811790915560405181906000907f8be0079c531659141344cd1fd0a4f28419497f9722a3daafe3b4186f6b6457e0908290a35060609290921b6001600160601b03191660a0525060c05262000110565b600080600060608486031215620000c5578283fd5b8351620000d281620000f7565b6020850151909350620000e581620000f7565b80925050604084015190509250925092565b6001600160a01b03811681146200010d57600080fd5b50565b60805160601c60a05160601c60c051611cb26200017760003960008181610207015281816107b401528181610810015261084b015260008181610365015261098f0152600081816103ae0152818161100a015281816113f901526114bf0152611cb26000f3fe608060405234801561001057600080fd5b50600436106101a25760003560e01c80637b0a47ee116100ee578063ca8af4d411610097578063e9fad8ee11610071578063e9fad8ee14610398578063ebe2b12b146103a0578063edc9af95146103a9578063f2fde38b146103d0576101a2565b8063ca8af4d414610360578063cd3daf9d14610387578063df136d651461038f576101a2565b80638da5cb5b116100c85780638da5cb5b14610326578063a694fc3a14610344578063c8f33c9114610357576101a2565b80637b0a47ee146102f557806380faa57d146102fe5780638b87634714610306576101a2565b80632e1a7d4d1161015057806370a082311161012a57806370a08231146102a4578063715018a6146102da57806371cc29e5146102e2576101a2565b80632e1a7d4d146102765780633c6b16ab146102895780633d18b9121461029c576101a2565b80630fb5a6b4116101815780630fb5a6b414610202578063101114cf1461022957806318160ddd1461026e576101a2565b80628cc262146101a75780630700037d146101cd5780630d68b761146101ed575b600080fd5b6101ba6101b5366004611945565b6103e3565b6040519081526020015b60405180910390f35b6101ba6101db366004611945565b60096020526000908152604090205481565b6102006101fb366004611945565b61047c565b005b6101ba7f000000000000000000000000000000000000000000000000000000000000000081565b6003546102499073ffffffffffffffffffffffffffffffffffffffff1681565b60405173ffffffffffffffffffffffffffffffffffffffff90911681526020016101c4565b6101ba610549565b610200610284366004611a36565b610550565b610200610297366004611a36565b610672565b6102006108a9565b6101ba6102b2366004611945565b73ffffffffffffffffffffffffffffffffffffffff1660009081526001602052604090205490565b610200610a21565b6102006102f0366004611a4e565b610b11565b6101ba60055481565b6101ba610c41565b6101ba610314366004611945565b60086020526000908152604090205481565b60025473ffffffffffffffffffffffffffffffffffffffff16610249565b610200610352366004611a36565b610c54565b6101ba60065481565b6102497f000000000000000000000000000000000000000000000000000000000000000081565b6101ba610d6e565b6101ba60075481565b610200610dbc565b6101ba60045481565b6102497f000000000000000000000000000000000000000000000000000000000000000081565b6102006103de366004611945565b610ddf565b73ffffffffffffffffffffffffffffffffffffffff81166000908152600960209081526040808320546008909252822054610476919061047090670de0b6b3a76400009061046a9061043d90610437610d6e565b90610f91565b73ffffffffffffffffffffffffffffffffffffffff88166000908152600160205260409020545b90610fa4565b90610fb0565b90610fbc565b92915050565b60025473ffffffffffffffffffffffffffffffffffffffff163314610502576040517f08c379a000000000000000000000000000000000000000000000000000000000815260206004820181905260248201527f4f776e61626c653a2063616c6c6572206973206e6f7420746865206f776e657260448201526064015b60405180910390fd5b600380547fffffffffffffffffffffffff00000000000000000000000000000000000000001673ffffffffffffffffffffffffffffffffffffffff92909216919091179055565b6000545b90565b33610559610d6e565b600755610564610c41565b60065573ffffffffffffffffffffffffffffffffffffffff8116156105c55761058c816103e3565b73ffffffffffffffffffffffffffffffffffffffff82166000908152600960209081526040808320939093556007546008909152919020555b6000821161062f576040517f08c379a000000000000000000000000000000000000000000000000000000000815260206004820152601160248201527f43616e6e6f74207769746864726177203000000000000000000000000000000060448201526064016104f9565b61063882610fc8565b60405182815233907f7084f5476618d8e60b11ef0d7d3f06914655adb8793e28ff7f018d4c76d505d5906020015b60405180910390a25050565b60035473ffffffffffffffffffffffffffffffffffffffff163373ffffffffffffffffffffffffffffffffffffffff161461072f576040517f08c379a000000000000000000000000000000000000000000000000000000000815260206004820152602160248201527f43616c6c6572206973206e6f742072657761726420646973747269627574696f60448201527f6e0000000000000000000000000000000000000000000000000000000000000060648201526084016104f9565b6000610739610d6e565b600755610744610c41565b60065573ffffffffffffffffffffffffffffffffffffffff8116156107a55761076c816103e3565b73ffffffffffffffffffffffffffffffffffffffff82166000908152600960209081526040808320939093556007546008909152919020555b60045442106107e0576107d8827f0000000000000000000000000000000000000000000000000000000000000000610fb0565b60055561083f565b6004546000906107f09042610f91565b9050600061080960055483610fa490919063ffffffff16565b90506108397f000000000000000000000000000000000000000000000000000000000000000061046a8684610fbc565b60055550505b42600681905561086f907f0000000000000000000000000000000000000000000000000000000000000000610fbc565b6004556040518281527fde88a922e0d3b88b24e9623efeb464919c6bf9f66857a65e2bfcf2ce87a9433d9060200160405180910390a15050565b336108b2610d6e565b6007556108bd610c41565b60065573ffffffffffffffffffffffffffffffffffffffff81161561091e576108e5816103e3565b73ffffffffffffffffffffffffffffffffffffffff82166000908152600960209081526040808320939093556007546008909152919020555b6000610929336103e3565b90508015610a1d573360008181526009602052604080822091909155517fb78b52df00000000000000000000000000000000000000000000000000000000815260048101919091526024810182905273ffffffffffffffffffffffffffffffffffffffff7f0000000000000000000000000000000000000000000000000000000000000000169063b78b52df90604401600060405180830381600087803b1580156109d357600080fd5b505af11580156109e7573d6000803e3d6000fd5b50506040518381523392507fe2403640ba68fed3a2f88b7557551d1993f84b99bb10ff833f0cf8db0c5e04869150602001610666565b5050565b60025473ffffffffffffffffffffffffffffffffffffffff163314610aa2576040517f08c379a000000000000000000000000000000000000000000000000000000000815260206004820181905260248201527f4f776e61626c653a2063616c6c6572206973206e6f7420746865206f776e657260448201526064016104f9565b60025460405160009173ffffffffffffffffffffffffffffffffffffffff16907f8be0079c531659141344cd1fd0a4f28419497f9722a3daafe3b4186f6b6457e0908390a3600280547fffffffffffffffffffffffff0000000000000000000000000000000000000000169055565b33610b1a610d6e565b600755610b25610c41565b60065573ffffffffffffffffffffffffffffffffffffffff811615610b8657610b4d816103e3565b73ffffffffffffffffffffffffffffffffffffffff82166000908152600960209081526040808320939093556007546008909152919020555b60008411610bf0576040517f08c379a000000000000000000000000000000000000000000000000000000000815260206004820152600e60248201527f43616e6e6f74207374616b65203000000000000000000000000000000000000060448201526064016104f9565b610bfb848484611049565b5050610c068461147d565b60405184815233907f9e71bc8eea02a63969f509818f2dafb9254532904319f9dbda79b67bd34a5f3d9060200160405180910390a250505050565b6000610c4f426004546114fc565b905090565b33610c5d610d6e565b600755610c68610c41565b60065573ffffffffffffffffffffffffffffffffffffffff811615610cc957610c90816103e3565b73ffffffffffffffffffffffffffffffffffffffff82166000908152600960209081526040808320939093556007546008909152919020555b60008211610d33576040517f08c379a000000000000000000000000000000000000000000000000000000000815260206004820152600e60248201527f43616e6e6f74207374616b65203000000000000000000000000000000000000060448201526064016104f9565b610d3c8261147d565b60405182815233907f9e71bc8eea02a63969f509818f2dafb9254532904319f9dbda79b67bd34a5f3d90602001610666565b6000610d78610549565b610d85575060075461054d565b610c4f610db3610d93610549565b61046a670de0b6b3a7640000610464600554610464600654610437610c41565b60075490610fbc565b33600090815260016020526040902054610dd590610284565b610ddd6108a9565b565b60025473ffffffffffffffffffffffffffffffffffffffff163314610e60576040517f08c379a000000000000000000000000000000000000000000000000000000000815260206004820181905260248201527f4f776e61626c653a2063616c6c6572206973206e6f7420746865206f776e657260448201526064016104f9565b73ffffffffffffffffffffffffffffffffffffffff8116610f03576040517f08c379a000000000000000000000000000000000000000000000000000000000815260206004820152602660248201527f4f776e61626c653a206e6577206f776e657220697320746865207a65726f206160448201527f646472657373000000000000000000000000000000000000000000000000000060648201526084016104f9565b60025460405173ffffffffffffffffffffffffffffffffffffffff8084169216907f8be0079c531659141344cd1fd0a4f28419497f9722a3daafe3b4186f6b6457e090600090a3600280547fffffffffffffffffffffffff00000000000000000000000000000000000000001673ffffffffffffffffffffffffffffffffffffffff92909216919091179055565b6000610f9d8284611be8565b9392505050565b6000610f9d8284611bab565b6000610f9d8284611b72565b6000610f9d8284611b5a565b600054610fd59082610f91565b600090815533815260016020526040902054610ff19082610f91565b33600081815260016020526040902091909155611046907f000000000000000000000000000000000000000000000000000000000000000073ffffffffffffffffffffffffffffffffffffffff169083611512565b50565b600060608161105a848601866119f6565b90507fffffffff0000000000000000000000000000000000000000000000000000000081167fd505accf000000000000000000000000000000000000000000000000000000001461112d576040517f08c379a000000000000000000000000000000000000000000000000000000000815260206004820152603060248201527f556e69706f6f6c546f6b656e4469737472696275746f723a3a5f7065726d697460448201527f3a204e4f545f56414c49445f43414c4c0000000000000000000000000000000060648201526084016104f9565b60008080808080806111428b6004818f611b32565b81019061114f9190611961565b96509650965096509650965096503373ffffffffffffffffffffffffffffffffffffffff168773ffffffffffffffffffffffffffffffffffffffff1614611218576040517f08c379a000000000000000000000000000000000000000000000000000000000815260206004820152603860248201527f556e69706f6f6c546f6b656e4469737472696275746f723a3a5f7065726d697460448201527f3a204f574e45525f4e4f545f455155414c5f53454e444552000000000000000060648201526084016104f9565b73ffffffffffffffffffffffffffffffffffffffff861630146112bd576040517f08c379a000000000000000000000000000000000000000000000000000000000815260206004820152603860248201527f556e69706f6f6c546f6b656e4469737472696275746f723a3a5f7065726d697460448201527f3a205350454e4445525f4e4f545f455155414c5f54484953000000000000000060648201526084016104f9565b8c851461134c576040517f08c379a000000000000000000000000000000000000000000000000000000000815260206004820152602e60248201527f556e69706f6f6c546f6b656e4469737472696275746f723a3a5f7065726d697460448201527f3a2057524f4e475f414d4f554e5400000000000000000000000000000000000060648201526084016104f9565b6040805173ffffffffffffffffffffffffffffffffffffffff89811660248301528881166044830152606482018890526084820187905260ff861660a483015260c4820185905260e48083018590528351808403909101815261010490920183526020820180517bffffffffffffffffffffffffffffffffffffffffffffffffffffffff167fd505accf0000000000000000000000000000000000000000000000000000000017905291517f0000000000000000000000000000000000000000000000000000000000000000909216916114269190611ac5565b6000604051808303816000865af19150503d8060008114611463576040519150601f19603f3d011682016040523d82523d6000602084013e611468565b606091505b50995099505050505050505050935093915050565b60005461148a9082610fbc565b6000908155338152600160205260409020546114a69082610fbc565b33600081815260016020526040902091909155611046907f000000000000000000000000000000000000000000000000000000000000000073ffffffffffffffffffffffffffffffffffffffff169030846115eb565b600081831061150b5781610f9d565b5090919050565b60405173ffffffffffffffffffffffffffffffffffffffff83166024820152604481018290526115e69084907fa9059cbb00000000000000000000000000000000000000000000000000000000906064015b604080517fffffffffffffffffffffffffffffffffffffffffffffffffffffffffffffffe08184030181529190526020810180517bffffffffffffffffffffffffffffffffffffffffffffffffffffffff167fffffffff000000000000000000000000000000000000000000000000000000009093169290921790915261164f565b505050565b60405173ffffffffffffffffffffffffffffffffffffffff808516602483015283166044820152606481018290526116499085907f23b872dd0000000000000000000000000000000000000000000000000000000090608401611564565b50505050565b60006116b1826040518060400160405280602081526020017f5361666545524332303a206c6f772d6c6576656c2063616c6c206661696c65648152508573ffffffffffffffffffffffffffffffffffffffff1661175b9092919063ffffffff16565b8051909150156115e657808060200190518101906116cf91906119d6565b6115e6576040517f08c379a000000000000000000000000000000000000000000000000000000000815260206004820152602a60248201527f5361666545524332303a204552433230206f7065726174696f6e20646964206e60448201527f6f7420737563636565640000000000000000000000000000000000000000000060648201526084016104f9565b606061176a8484600085611772565b949350505050565b606082471015611804576040517f08c379a000000000000000000000000000000000000000000000000000000000815260206004820152602660248201527f416464726573733a20696e73756666696369656e742062616c616e636520666f60448201527f722063616c6c000000000000000000000000000000000000000000000000000060648201526084016104f9565b843b61186c576040517f08c379a000000000000000000000000000000000000000000000000000000000815260206004820152601d60248201527f416464726573733a2063616c6c20746f206e6f6e2d636f6e747261637400000060448201526064016104f9565b6000808673ffffffffffffffffffffffffffffffffffffffff1685876040516118959190611ac5565b60006040518083038185875af1925050503d80600081146118d2576040519150601f19603f3d011682016040523d82523d6000602084013e6118d7565b606091505b50915091506118e78282866118f2565b979650505050505050565b60608315611901575081610f9d565b8251156119115782518084602001fd5b816040517f08c379a00000000000000000000000000000000000000000000000000000000081526004016104f99190611ae1565b600060208284031215611956578081fd5b8135610f9d81611c5a565b600080600080600080600060e0888a03121561197b578283fd5b873561198681611c5a565b9650602088013561199681611c5a565b95506040880135945060608801359350608088013560ff811681146119b9578384fd5b9699959850939692959460a0840135945060c09093013592915050565b6000602082840312156119e7578081fd5b81518015158114610f9d578182fd5b600060208284031215611a07578081fd5b81357fffffffff0000000000000000000000000000000000000000000000000000000081168114610f9d578182fd5b600060208284031215611a47578081fd5b5035919050565b600080600060408486031215611a62578283fd5b83359250602084013567ffffffffffffffff80821115611a80578384fd5b818601915086601f830112611a93578384fd5b813581811115611aa1578485fd5b876020828501011115611ab2578485fd5b6020830194508093505050509250925092565b60008251611ad7818460208701611bff565b9190910192915050565b6000602082528251806020840152611b00816040850160208701611bff565b601f017fffffffffffffffffffffffffffffffffffffffffffffffffffffffffffffffe0169190910160400192915050565b60008085851115611b41578182fd5b83861115611b4d578182fd5b5050820193919092039150565b60008219821115611b6d57611b6d611c2b565b500190565b600082611ba6577f4e487b710000000000000000000000000000000000000000000000000000000081526012600452602481fd5b500490565b6000817fffffffffffffffffffffffffffffffffffffffffffffffffffffffffffffffff0483118215151615611be357611be3611c2b565b500290565b600082821015611bfa57611bfa611c2b565b500390565b60005b83811015611c1a578181015183820152602001611c02565b838111156116495750506000910152565b7f4e487b7100000000000000000000000000000000000000000000000000000000600052601160045260246000fd5b73ffffffffffffffffffffffffffffffffffffffff8116811461104657600080fdfea2646970667358221220aa0e5ec1845839818b6ba59b992983dcce9875122c72e2905a9745c43093ca4e64736f6c63430008030033",
  "linkReferences": {},
  "deployedLinkReferences": {}
}