{
  "_format": "hh-sol-artifact-1",
  "contractName": "MerkleDistributorVested",
  "sourceName": "contracts/Distributors/MerkleTreeDistributor.sol",
  "abi": [
    {
      "anonymous": false,
      "inputs": [
        {
          "indexed": false,
          "internalType": "uint256",
          "name": "index",
          "type": "uint256"
        },
        {
          "indexed": false,
          "internalType": "address",
          "name": "account",
          "type": "address"
        },
        {
          "indexed": false,
          "internalType": "address",
          "name": "recipient",
          "type": "address"
        },
        {
          "indexed": false,
          "internalType": "uint256",
          "name": "amount",
          "type": "uint256"
        }
      ],
      "name": "Claimed",
      "type": "event"
    },
    {
      "anonymous": false,
      "inputs": [
        {
          "indexed": true,
          "internalType": "address",
          "name": "previousOwner",
          "type": "address"
        },
        {
          "indexed": true,
          "internalType": "address",
          "name": "newOwner",
          "type": "address"
        }
      ],
      "name": "OwnershipTransferred",
      "type": "event"
    },
    {
      "inputs": [
        {
          "internalType": "uint256",
          "name": "index",
          "type": "uint256"
        },
        {
          "internalType": "address",
          "name": "account",
          "type": "address"
        },
        {
          "internalType": "uint256",
          "name": "amount",
          "type": "uint256"
        },
        {
          "internalType": "bytes32[]",
          "name": "merkleProof",
          "type": "bytes32[]"
        }
      ],
      "name": "claim",
      "outputs": [],
      "stateMutability": "nonpayable",
      "type": "function"
    },
    {
      "inputs": [
        {
          "internalType": "uint256",
          "name": "index",
          "type": "uint256"
        },
        {
          "internalType": "address",
          "name": "account",
          "type": "address"
        },
        {
          "internalType": "address",
          "name": "recipient",
          "type": "address"
        },
        {
          "internalType": "uint256",
          "name": "amount",
          "type": "uint256"
        },
        {
          "internalType": "bytes32[]",
          "name": "merkleProof",
          "type": "bytes32[]"
        }
      ],
      "name": "claimTo",
      "outputs": [],
      "stateMutability": "nonpayable",
      "type": "function"
    },
    {
      "inputs": [
        {
          "internalType": "contract IDistro",
          "name": "_tokenDistro",
          "type": "address"
        },
        {
          "internalType": "bytes32",
          "name": "merkleRoot_",
          "type": "bytes32"
        }
      ],
      "name": "initialize",
      "outputs": [],
      "stateMutability": "nonpayable",
      "type": "function"
    },
    {
      "inputs": [
        {
          "internalType": "uint256",
          "name": "index",
          "type": "uint256"
        }
      ],
      "name": "isClaimed",
      "outputs": [
        {
          "internalType": "bool",
          "name": "",
          "type": "bool"
        }
      ],
      "stateMutability": "view",
      "type": "function"
    },
    {
      "inputs": [],
      "name": "merkleRoot",
      "outputs": [
        {
          "internalType": "bytes32",
          "name": "",
          "type": "bytes32"
        }
      ],
      "stateMutability": "view",
      "type": "function"
    },
    {
      "inputs": [],
      "name": "owner",
      "outputs": [
        {
          "internalType": "address",
          "name": "",
          "type": "address"
        }
      ],
      "stateMutability": "view",
      "type": "function"
    },
    {
      "inputs": [],
      "name": "renounceOwnership",
      "outputs": [],
      "stateMutability": "nonpayable",
      "type": "function"
    },
    {
      "inputs": [],
      "name": "tokenDistro",
      "outputs": [
        {
          "internalType": "contract IDistro",
          "name": "",
          "type": "address"
        }
      ],
      "stateMutability": "view",
      "type": "function"
    },
    {
      "inputs": [
        {
          "internalType": "address",
          "name": "newOwner",
          "type": "address"
        }
      ],
      "name": "transferOwnership",
      "outputs": [],
      "stateMutability": "nonpayable",
      "type": "function"
    }
  ],
  "bytecode": "0x608060405234801561001057600080fd5b50610f90806100206000396000f3fe608060405234801561001057600080fd5b50600436106100a35760003560e01c80638da5cb5b11610076578063be13f47c1161005b578063be13f47c14610156578063ca8af4d414610169578063f2fde38b14610189576100a3565b80638da5cb5b146100f45780639e34070f14610133576100a3565b8063054d5e2a146100a85780632e7ba6ef146100bd5780632eb4a7ab146100d0578063715018a6146100ec575b600080fd5b6100bb6100b6366004610d9e565b61019c565b005b6100bb6100cb366004610e18565b6104df565b6100d960655481565b6040519081526020015b60405180910390f35b6100bb61079a565b60335473ffffffffffffffffffffffffffffffffffffffff165b60405173ffffffffffffffffffffffffffffffffffffffff90911681526020016100e3565b610146610141366004610d86565b61088a565b60405190151581526020016100e3565b6100bb610164366004610d5b565b6108cb565b60665461010e9073ffffffffffffffffffffffffffffffffffffffff1681565b6100bb610197366004610d38565b610a28565b60335473ffffffffffffffffffffffffffffffffffffffff163314610222576040517f08c379a000000000000000000000000000000000000000000000000000000000815260206004820181905260248201527f4f776e61626c653a2063616c6c6572206973206e6f7420746865206f776e657260448201526064015b60405180910390fd5b61022b8661088a565b156102b8576040517f08c379a000000000000000000000000000000000000000000000000000000000815260206004820152603460248201527f4d65726b6c654469737472696275746f725665737465643a3a636c61696d204460448201527f726f7020616c726561647920636c61696d65642e0000000000000000000000006064820152608401610219565b60408051602081018890527fffffffffffffffffffffffffffffffffffffffff000000000000000000000000606088901b169181019190915260548101849052600090607401604051602081830303815290604052805190602001209050610357838380806020026020016040519081016040528093929190818152602001838360200280828437600092019190915250506065549150849050610bda565b6103e3576040517f08c379a000000000000000000000000000000000000000000000000000000000815260206004820152602d60248201527f4d65726b6c654469737472696275746f725665737465643a3a636c61696d204960448201527f6e76616c69642070726f6f662e000000000000000000000000000000000000006064820152608401610219565b6103ec87610cb0565b6066546040517fb78b52df00000000000000000000000000000000000000000000000000000000815273ffffffffffffffffffffffffffffffffffffffff8781166004830152602482018790529091169063b78b52df90604401600060405180830381600087803b15801561046057600080fd5b505af1158015610474573d6000803e3d6000fd5b5050604080518a815273ffffffffffffffffffffffffffffffffffffffff8a811660208301528916818301526060810188905290517fce3bcb6e219596cf26007ffdfaae8953bc3f76e3f36c0a79b23e28020da3222e9350908190036080019150a150505050505050565b6104e88561088a565b15610575576040517f08c379a000000000000000000000000000000000000000000000000000000000815260206004820152603460248201527f4d65726b6c654469737472696275746f725665737465643a3a636c61696d204460448201527f726f7020616c726561647920636c61696d65642e0000000000000000000000006064820152608401610219565b60408051602081018790527fffffffffffffffffffffffffffffffffffffffff000000000000000000000000606087901b169181019190915260548101849052600090607401604051602081830303815290604052805190602001209050610614838380806020026020016040519081016040528093929190818152602001838360200280828437600092019190915250506065549150849050610bda565b6106a0576040517f08c379a000000000000000000000000000000000000000000000000000000000815260206004820152602d60248201527f4d65726b6c654469737472696275746f725665737465643a3a636c61696d204960448201527f6e76616c69642070726f6f662e000000000000000000000000000000000000006064820152608401610219565b6106a986610cb0565b6066546040517fb78b52df00000000000000000000000000000000000000000000000000000000815273ffffffffffffffffffffffffffffffffffffffff8781166004830152602482018790529091169063b78b52df90604401600060405180830381600087803b15801561071d57600080fd5b505af1158015610731573d6000803e3d6000fd5b50506040805189815273ffffffffffffffffffffffffffffffffffffffff891660208201819052818301526060810188905290517fce3bcb6e219596cf26007ffdfaae8953bc3f76e3f36c0a79b23e28020da3222e9350908190036080019150a1505050505050565b60335473ffffffffffffffffffffffffffffffffffffffff16331461081b576040517f08c379a000000000000000000000000000000000000000000000000000000000815260206004820181905260248201527f4f776e61626c653a2063616c6c6572206973206e6f7420746865206f776e65726044820152606401610219565b60335460405160009173ffffffffffffffffffffffffffffffffffffffff16907f8be0079c531659141344cd1fd0a4f28419497f9722a3daafe3b4186f6b6457e0908390a3603380547fffffffffffffffffffffffff0000000000000000000000000000000000000000169055565b60008061089961010084610e80565b905060006108a961010085610ef2565b60009283526067602052604090922054600190921b9182169091149392505050565b600054610100900460ff16806108e4575060005460ff16155b610970576040517f08c379a000000000000000000000000000000000000000000000000000000000815260206004820152602e60248201527f496e697469616c697a61626c653a20636f6e747261637420697320616c72656160448201527f647920696e697469616c697a65640000000000000000000000000000000000006064820152608401610219565b600054610100900460ff161580156109af57600080547fffffffffffffffffffffffffffffffffffffffffffffffffffffffffffff0000166101011790555b606680547fffffffffffffffffffffffff00000000000000000000000000000000000000001673ffffffffffffffffffffffffffffffffffffffff851617905560658290558015610a2357600080547fffffffffffffffffffffffffffffffffffffffffffffffffffffffffffff00ff1690555b505050565b60335473ffffffffffffffffffffffffffffffffffffffff163314610aa9576040517f08c379a000000000000000000000000000000000000000000000000000000000815260206004820181905260248201527f4f776e61626c653a2063616c6c6572206973206e6f7420746865206f776e65726044820152606401610219565b73ffffffffffffffffffffffffffffffffffffffff8116610b4c576040517f08c379a000000000000000000000000000000000000000000000000000000000815260206004820152602660248201527f4f776e61626c653a206e6577206f776e657220697320746865207a65726f206160448201527f64647265737300000000000000000000000000000000000000000000000000006064820152608401610219565b60335460405173ffffffffffffffffffffffffffffffffffffffff8084169216907f8be0079c531659141344cd1fd0a4f28419497f9722a3daafe3b4186f6b6457e090600090a3603380547fffffffffffffffffffffffff00000000000000000000000000000000000000001673ffffffffffffffffffffffffffffffffffffffff92909216919091179055565b600081815b8551811015610ca5576000868281518110610c23577f4e487b7100000000000000000000000000000000000000000000000000000000600052603260045260246000fd5b60200260200101519050808311610c65576040805160208101859052908101829052606001604051602081830303815290604052805190602001209250610c92565b60408051602081018390529081018490526060016040516020818303038152906040528051906020012092505b5080610c9d81610e94565b915050610bdf565b509092149392505050565b6000610cbe61010083610e80565b90506000610cce61010084610ef2565b6000928352606760205260409092208054600190931b9092179091555050565b60008083601f840112610cff578182fd5b50813567ffffffffffffffff811115610d16578182fd5b6020830191508360208260051b8501011115610d3157600080fd5b9250929050565b600060208284031215610d49578081fd5b8135610d5481610f35565b9392505050565b60008060408385031215610d6d578081fd5b8235610d7881610f35565b946020939093013593505050565b600060208284031215610d97578081fd5b5035919050565b60008060008060008060a08789031215610db6578182fd5b863595506020870135610dc881610f35565b94506040870135610dd881610f35565b935060608701359250608087013567ffffffffffffffff811115610dfa578283fd5b610e0689828a01610cee565b979a9699509497509295939492505050565b600080600080600060808688031215610e2f578081fd5b853594506020860135610e4181610f35565b935060408601359250606086013567ffffffffffffffff811115610e63578182fd5b610e6f88828901610cee565b969995985093965092949392505050565b600082610e8f57610e8f610f06565b500490565b60007fffffffffffffffffffffffffffffffffffffffffffffffffffffffffffffffff821415610eeb577f4e487b710000000000000000000000000000000000000000000000000000000081526011600452602481fd5b5060010190565b600082610f0157610f01610f06565b500690565b7f4e487b7100000000000000000000000000000000000000000000000000000000600052601260045260246000fd5b73ffffffffffffffffffffffffffffffffffffffff81168114610f5757600080fd5b5056fea2646970667358221220615bdce96599d7f7649a0dc6da69b0068b4b06213442bcb0a9be895223ca7c0c64736f6c63430008030033",
  "linkReferences": {},
  "deployedLinkReferences": {}
}