{
  "_format": "hh-sol-artifact-1",
  "contractName": "MerkleDistributorVested",
  "sourceName": "contracts/Distributors/MerkleTreeDistributor.sol",
  "abi": [
    {
      "anonymous": false,
      "inputs": [
        {
          "indexed": false,
          "internalType": "uint256",
          "name": "index",
          "type": "uint256"
        },
        {
          "indexed": false,
          "internalType": "address",
          "name": "account",
          "type": "address"
        },
        {
          "indexed": false,
          "internalType": "address",
          "name": "recipient",
          "type": "address"
        },
        {
          "indexed": false,
          "internalType": "uint256",
          "name": "amount",
          "type": "uint256"
        }
      ],
      "name": "Claimed",
      "type": "event"
    },
    {
      "anonymous": false,
      "inputs": [
        {
          "indexed": true,
          "internalType": "address",
          "name": "previousOwner",
          "type": "address"
        },
        {
          "indexed": true,
          "internalType": "address",
          "name": "newOwner",
          "type": "address"
        }
      ],
      "name": "OwnershipTransferred",
      "type": "event"
    },
    {
      "inputs": [
        {
          "internalType": "uint256",
          "name": "index",
          "type": "uint256"
        },
        {
          "internalType": "address",
          "name": "account",
          "type": "address"
        },
        {
          "internalType": "uint256",
          "name": "amount",
          "type": "uint256"
        },
        {
          "internalType": "bytes32[]",
          "name": "merkleProof",
          "type": "bytes32[]"
        }
      ],
      "name": "claim",
      "outputs": [],
      "stateMutability": "nonpayable",
      "type": "function"
    },
    {
      "inputs": [
        {
          "internalType": "uint256",
          "name": "index",
          "type": "uint256"
        },
        {
          "internalType": "address",
          "name": "account",
          "type": "address"
        },
        {
          "internalType": "address",
          "name": "recipient",
          "type": "address"
        },
        {
          "internalType": "uint256",
          "name": "amount",
          "type": "uint256"
        },
        {
          "internalType": "bytes32[]",
          "name": "merkleProof",
          "type": "bytes32[]"
        }
      ],
      "name": "claim",
      "outputs": [],
      "stateMutability": "nonpayable",
      "type": "function"
    },
    {
      "inputs": [
        {
          "internalType": "contract IDistro",
          "name": "_tokenDistro",
          "type": "address"
        },
        {
          "internalType": "bytes32",
          "name": "merkleRoot_",
          "type": "bytes32"
        }
      ],
      "name": "initialize",
      "outputs": [],
      "stateMutability": "nonpayable",
      "type": "function"
    },
    {
      "inputs": [
        {
          "internalType": "uint256",
          "name": "index",
          "type": "uint256"
        }
      ],
      "name": "isClaimed",
      "outputs": [
        {
          "internalType": "bool",
          "name": "",
          "type": "bool"
        }
      ],
      "stateMutability": "view",
      "type": "function"
    },
    {
      "inputs": [],
      "name": "merkleRoot",
      "outputs": [
        {
          "internalType": "bytes32",
          "name": "",
          "type": "bytes32"
        }
      ],
      "stateMutability": "view",
      "type": "function"
    },
    {
      "inputs": [],
      "name": "owner",
      "outputs": [
        {
          "internalType": "address",
          "name": "",
          "type": "address"
        }
      ],
      "stateMutability": "view",
      "type": "function"
    },
    {
      "inputs": [],
      "name": "renounceOwnership",
      "outputs": [],
      "stateMutability": "nonpayable",
      "type": "function"
    },
    {
      "inputs": [],
      "name": "tokenDistro",
      "outputs": [
        {
          "internalType": "contract IDistro",
          "name": "",
          "type": "address"
        }
      ],
      "stateMutability": "view",
      "type": "function"
    },
    {
      "inputs": [
        {
          "internalType": "address",
          "name": "newOwner",
          "type": "address"
        }
      ],
      "name": "transferOwnership",
      "outputs": [],
      "stateMutability": "nonpayable",
      "type": "function"
    }
  ],
  "bytecode": "0x608060405234801561001057600080fd5b50610f90806100206000396000f3fe608060405234801561001057600080fd5b50600436106100a35760003560e01c80639e34070f11610076578063ca8af4d41161005b578063ca8af4d414610156578063f0f7df9c14610176578063f2fde38b14610189576100a3565b80639e34070f14610120578063be13f47c14610143576100a3565b80632e7ba6ef146100a85780632eb4a7ab146100bd578063715018a6146100d95780638da5cb5b146100e1575b600080fd5b6100bb6100b6366004610e18565b61019c565b005b6100c660655481565b6040519081526020015b60405180910390f35b6100bb61045c565b60335473ffffffffffffffffffffffffffffffffffffffff165b60405173ffffffffffffffffffffffffffffffffffffffff90911681526020016100d0565b61013361012e366004610d86565b61054c565b60405190151581526020016100d0565b6100bb610151366004610d5b565b61058d565b6066546100fb9073ffffffffffffffffffffffffffffffffffffffff1681565b6100bb610184366004610d9e565b6106ea565b6100bb610197366004610d38565b610a28565b6101a58561054c565b15610237576040517f08c379a000000000000000000000000000000000000000000000000000000000815260206004820152603460248201527f4d65726b6c654469737472696275746f725665737465643a3a636c61696d204460448201527f726f7020616c726561647920636c61696d65642e00000000000000000000000060648201526084015b60405180910390fd5b60408051602081018790527fffffffffffffffffffffffffffffffffffffffff000000000000000000000000606087901b1691810191909152605481018490526000906074016040516020818303038152906040528051906020012090506102d6838380806020026020016040519081016040528093929190818152602001838360200280828437600092019190915250506065549150849050610bda565b610362576040517f08c379a000000000000000000000000000000000000000000000000000000000815260206004820152602d60248201527f4d65726b6c654469737472696275746f725665737465643a3a636c61696d204960448201527f6e76616c69642070726f6f662e00000000000000000000000000000000000000606482015260840161022e565b61036b86610cb0565b6066546040517fb78b52df00000000000000000000000000000000000000000000000000000000815273ffffffffffffffffffffffffffffffffffffffff8781166004830152602482018790529091169063b78b52df90604401600060405180830381600087803b1580156103df57600080fd5b505af11580156103f3573d6000803e3d6000fd5b50506040805189815273ffffffffffffffffffffffffffffffffffffffff891660208201819052818301526060810188905290517fce3bcb6e219596cf26007ffdfaae8953bc3f76e3f36c0a79b23e28020da3222e9350908190036080019150a1505050505050565b60335473ffffffffffffffffffffffffffffffffffffffff1633146104dd576040517f08c379a000000000000000000000000000000000000000000000000000000000815260206004820181905260248201527f4f776e61626c653a2063616c6c6572206973206e6f7420746865206f776e6572604482015260640161022e565b60335460405160009173ffffffffffffffffffffffffffffffffffffffff16907f8be0079c531659141344cd1fd0a4f28419497f9722a3daafe3b4186f6b6457e0908390a3603380547fffffffffffffffffffffffff0000000000000000000000000000000000000000169055565b60008061055b61010084610e80565b9050600061056b61010085610ef2565b60009283526067602052604090922054600190921b9182169091149392505050565b600054610100900460ff16806105a6575060005460ff16155b610632576040517f08c379a000000000000000000000000000000000000000000000000000000000815260206004820152602e60248201527f496e697469616c697a61626c653a20636f6e747261637420697320616c72656160448201527f647920696e697469616c697a6564000000000000000000000000000000000000606482015260840161022e565b600054610100900460ff1615801561067157600080547fffffffffffffffffffffffffffffffffffffffffffffffffffffffffffff0000166101011790555b606680547fffffffffffffffffffffffff00000000000000000000000000000000000000001673ffffffffffffffffffffffffffffffffffffffff8516179055606582905580156106e557600080547fffffffffffffffffffffffffffffffffffffffffffffffffffffffffffff00ff1690555b505050565b60335473ffffffffffffffffffffffffffffffffffffffff16331461076b576040517f08c379a000000000000000000000000000000000000000000000000000000000815260206004820181905260248201527f4f776e61626c653a2063616c6c6572206973206e6f7420746865206f776e6572604482015260640161022e565b6107748661054c565b15610801576040517f08c379a000000000000000000000000000000000000000000000000000000000815260206004820152603460248201527f4d65726b6c654469737472696275746f725665737465643a3a636c61696d204460448201527f726f7020616c726561647920636c61696d65642e000000000000000000000000606482015260840161022e565b60408051602081018890527fffffffffffffffffffffffffffffffffffffffff000000000000000000000000606088901b1691810191909152605481018490526000906074016040516020818303038152906040528051906020012090506108a0838380806020026020016040519081016040528093929190818152602001838360200280828437600092019190915250506065549150849050610bda565b61092c576040517f08c379a000000000000000000000000000000000000000000000000000000000815260206004820152602d60248201527f4d65726b6c654469737472696275746f725665737465643a3a636c61696d204960448201527f6e76616c69642070726f6f662e00000000000000000000000000000000000000606482015260840161022e565b61093587610cb0565b6066546040517fb78b52df00000000000000000000000000000000000000000000000000000000815273ffffffffffffffffffffffffffffffffffffffff8781166004830152602482018790529091169063b78b52df90604401600060405180830381600087803b1580156109a957600080fd5b505af11580156109bd573d6000803e3d6000fd5b5050604080518a815273ffffffffffffffffffffffffffffffffffffffff8a811660208301528916818301526060810188905290517fce3bcb6e219596cf26007ffdfaae8953bc3f76e3f36c0a79b23e28020da3222e9350908190036080019150a150505050505050565b60335473ffffffffffffffffffffffffffffffffffffffff163314610aa9576040517f08c379a000000000000000000000000000000000000000000000000000000000815260206004820181905260248201527f4f776e61626c653a2063616c6c6572206973206e6f7420746865206f776e6572604482015260640161022e565b73ffffffffffffffffffffffffffffffffffffffff8116610b4c576040517f08c379a000000000000000000000000000000000000000000000000000000000815260206004820152602660248201527f4f776e61626c653a206e6577206f776e657220697320746865207a65726f206160448201527f6464726573730000000000000000000000000000000000000000000000000000606482015260840161022e565b60335460405173ffffffffffffffffffffffffffffffffffffffff8084169216907f8be0079c531659141344cd1fd0a4f28419497f9722a3daafe3b4186f6b6457e090600090a3603380547fffffffffffffffffffffffff00000000000000000000000000000000000000001673ffffffffffffffffffffffffffffffffffffffff92909216919091179055565b600081815b8551811015610ca5576000868281518110610c23577f4e487b7100000000000000000000000000000000000000000000000000000000600052603260045260246000fd5b60200260200101519050808311610c65576040805160208101859052908101829052606001604051602081830303815290604052805190602001209250610c92565b60408051602081018390529081018490526060016040516020818303038152906040528051906020012092505b5080610c9d81610e94565b915050610bdf565b509092149392505050565b6000610cbe61010083610e80565b90506000610cce61010084610ef2565b6000928352606760205260409092208054600190931b9092179091555050565b60008083601f840112610cff578182fd5b50813567ffffffffffffffff811115610d16578182fd5b6020830191508360208260051b8501011115610d3157600080fd5b9250929050565b600060208284031215610d49578081fd5b8135610d5481610f35565b9392505050565b60008060408385031215610d6d578081fd5b8235610d7881610f35565b946020939093013593505050565b600060208284031215610d97578081fd5b5035919050565b60008060008060008060a08789031215610db6578182fd5b863595506020870135610dc881610f35565b94506040870135610dd881610f35565b935060608701359250608087013567ffffffffffffffff811115610dfa578283fd5b610e0689828a01610cee565b979a9699509497509295939492505050565b600080600080600060808688031215610e2f578081fd5b853594506020860135610e4181610f35565b935060408601359250606086013567ffffffffffffffff811115610e63578182fd5b610e6f88828901610cee565b969995985093965092949392505050565b600082610e8f57610e8f610f06565b500490565b60007fffffffffffffffffffffffffffffffffffffffffffffffffffffffffffffffff821415610eeb577f4e487b710000000000000000000000000000000000000000000000000000000081526011600452602481fd5b5060010190565b600082610f0157610f01610f06565b500690565b7f4e487b7100000000000000000000000000000000000000000000000000000000600052601260045260246000fd5b73ffffffffffffffffffffffffffffffffffffffff81168114610f5757600080fd5b5056fea26469706673582212202cb003af5ae387904b877074b63dbcab517de35685845275759e4af9e07064d064736f6c63430008030033",
  "linkReferences": {},
  "deployedLinkReferences": {}
}